:020000040000FA
:10000000180C0020150100002F0100003101000034
:1000100000000000000000000000000000000000E0
:10002000000000000000000000000000330100009C
:100030000000000000000000350100003701000052
:1000400039010000B502000039010000390100004B
:1000500039010000000000003901000039010000F2
:10006000390100003901000051050000390100008C
:100070003901000039010000390100003901000098
:100080003901000039010000390100003901000088
:100090007504000039010000390100003901000039
:1000A00039010000390100000000000000000000DC
:1000B0000000000000000000000000000000000040
:1000C0000348854600F066F800480047590D0000D7
:1000D000180C0020401E00BF00BF00BF00BF00BFC3
:1000E00000BF00BF00BF00BF00BF00BF00BFF1D115
:1000F00070470000401E00BF00BF00BF00BF00BF30
:1001000000BF00BF00BF00BF00BF00BF00BFF1D1F4
:10011000704700000321094802680A43026008484A
:1001200002680A4302600748804707480047FEE725
:10013000FEE7FEE7FEE7FEE7FEE7000024050040DD
:1001400054050040FD040000C100000003460B43BD
:100150009B0703D009E008C9121F08C0042AFAD27D
:1001600003E00B780370401C491C521EF9D2704703
:10017000D2B201E00270401C491EFBD2704700223F
:10018000F6E710B513460A4604461946FFF7F0FF96
:10019000204610BD064C0125064E05E0E36807CC5D
:1001A0002B430C3C98471034B442F7D3FFF78CFF35
:1001B000242C0000442C000010B500F087FE10BD78
:1001C000F7B50746002401202E4900041546886033
:1001D0002D4EB078002802D02C48FFF7EDFF002FFD
:1001E00002D12B48FFF7E8FF7068002802D02948A9
:1001F000FFF7E2FF284677600127274D002820D02F
:10020000012828D0022824D02448FFF7D5FF24480D
:10021000B770002101600199611889B229602E68C8
:1002200020494F606D680068002802D01E48FFF723
:10023000C3FFA64211D3A54201D3B5421CD31B482C
:1002400018E0184847606C6807601549002008608E
:10025000DDE7AC68DBE72C68D9E7B54201D20120C5
:1002600000E00020AC4201D8012100E000218842DA
:1002700002D10F48FFF7A0FF0120024900044860A7
:1002800003B0F0BD00A30040400000207300040054
:10029000750004007600040040A5004089000400B9
:1002A00040A1004040A000409B000400B0000400BA
:1002B000C9000400F8B55F4C20696778401C2061D4
:1002C000607D002802D05C48FFF776FF2046227848
:1002D0005A4D00245A495B4E032A3FD1CA68002A6E
:1002E0003CD0012F03D0022F2FD057489EE0074665
:1002F0000069032802D05548FFF75EFF02203870DE
:10030000B969491CB96152490C60C11EA9605149C3
:1003100008604B48C4600460046144600321797044
:100320007C603C753268117D00290AD04A498B688F
:10033000BB75C461494B01209861494B042098600A
:100340008C60D06800283AD1F8BD0069012802D03D
:100350004448FFF731FF01F0B5FEF8BD032F64D02C
:10036000012F2ED0022FF6D042783F4B1201D21827
:10037000137B0027002B03D0CB68002B00D0012774
:10038000927A334B02701C60032A48D00022D24379
:10039000AA60304B02221A60CC60032242700C60CB
:1003A0000C614C604460047530680069002800D01E
:1003B0008047002FD1D0306880680028CDD080479A
:1003C000F8BD0269012A18D0022AF9D1CC600C616B
:1003D0000C601F490C60111FA9600821696003218E
:1003E00001704460047530680069002800D08047BF
:1003F000306880680028E2D1F8BD0C604C600021B4
:10040000C943A960012169603168097D002902D0D2
:10041000134A042151601549C0684860F8BD08229C
:10042000D243AA6008226A60B9E71148FFF7C4FE08
:10043000F8BD00000401002090010A0000130040F4
:100440000011004048000020A9010A009F010A0095
:100450000012004080E200E0401500400010004023
:1004600000F50140A4010A00F42B00000015004033
:10047000D6010A00F8B5204D2C468034012080F3C7
:1004800010886068002832D020680C214843401949
:100490000279310A090211434279FF231B02120239
:1004A00099431A40114382791B02120499431A405E
:1004B0001143C2790E02360A11060E438168828901
:1004C000C08997B2000407436068401E60602068DE
:1004D000401C206020680A2801D3002020600020F2
:1004E00080F310882B683A4630469847C6E70020CC
:1004F00080F31088F8BD00002801002010B500F03E
:100500007FFA002805D00E490C484860C8130D49F1
:1005100088610D48018CC9B201290ED1818C09076F
:100520000BD1018D0906090F042906D1808D000623
:10053000000F02D105490120886010BDDFFF07C010
:1005400000050040006C0040C00F00F000060040B5
:1005500070B5012013490004886013480025056028
:10056000124C6068002802D11148FFF725FEA570E3
:10057000636810480122656042600F484168006866
:1005800095031430A94205D20325AD03A84201D931
:10059000627005E0814201D3012000E0002060701C
:1005A000984770BD00A3004040A1004040000020DB
:1005B000EC00040040A0004040A5004002E008C854
:1005C000121F08C1002AFAD170477047002001E0CD
:1005D00001C1121F002AFBD170470000F0B5494845
:1005E0008BB003684849494A012B02D04B6B002B62
:1005F00005D153681B78202B01D8012300E000238C
:10060000434D03242C700024404A002B146057D023
:1006100084688268CA623D4A03A901920091C26857
:1006200001232146184601F029FF002824D0012883
:1006300005D0022824D003284FD036484BE0039839
:10064000002802D03448FFF7B7FD204602F068F8D2
:10065000002802D13148FFF7AFFD68680222817D92
:1006600068460026027001960681468144708170BA
:10067000C67001F0A5FE30E02948FFF79DFD2CE093
:100680000398002802D12748FFF796FD204602F084
:1006900047F8002802D12448FFF78EFD686802223F
:1006A000817D039E6846027000236A46019613818D
:1006B0005381447001278170C77001F081FE0CE006
:1006C00000200090034602460146019001F0D6FE4C
:1006D000042802D01548FFF76FFD0C4C2068002855
:1006E00007D00120607512482061042028700BB0EB
:1006F000F0BD01F09DFC00206075206100F01AF84B
:100700000BB0F0BD0014004000150040E0000020D8
:100710002C000020C8050900B8050900B90509002A
:10072000BD050900C0050900C1050900CF05090084
:10073000D107000070B501F07BFC1C4C00251C4E5D
:100740000120256130701B481B490069086301F0D6
:10075000EDFF00281FD001F0E9FF032802D0174861
:10076000FFF72AFD022001F05FFD002001F0D6FD19
:1007700001F0DCFF032802D01148FFF71DFD30789F
:10078000012802D00F48FFF717FD022030700E48F5
:100790002561E06070BD01F04FFE0228E2D302F057
:1007A00051F860600028DDD10848D9E7E00000205A
:1007B0002C0000209000002000150040800509005A
:1007C0008805090092050900DD0500007B05090088
:1007D00010B5034905200870FFF7ACFF10BD0000FD
:1007E0002C000020F0B5454885B00068012803D0F2
:1007F0004348406B002806D14248406800782028D2
:1008000001D8012500E000253F4C01266069002841
:1008100004D100F0C1FD002800D1666101F086FF1F
:10082000012802D03948FFF7C7FC39484068007DED
:10083000002802D03748FFF7BFFC01F0F9FB002D7C
:1008400057D00121084601F0E3FE052840D20100FF
:100850007944097949188F4402381D383800002737
:1008600001F052FF0390A689E58901F053FF02468B
:10087000274869464068837D0F7003990191694656
:100880000E814D814A7000208B70C870684601F05F
:1008900097FD1DE0002701F037FF0390A689E58949
:1008A00001F038FF02461A4869464068837D0F70A0
:1008B0000399019169460E814D814A7001208B7028
:1008C000C870684601F07CFD02E01348FFF774FC35
:1008D00000F032FB206111481149426962602378BF
:1008E000022B01D0002A06D0C0680860002000F06A
:1008F00057FB05B0F0BD8068F7E70000001400402A
:1009000000150040E0000020C4000020A8060900F7
:100910002C000020A9060900C8060900900000204C
:10092000F800002030B5234D83B0687E00283AD00F
:1009300000F0D2FC002401280CD000F017FD1E4866
:10094000007F002802D1012081074860002002F0CA
:100950001DF86C6001F06CFBAC706C76052168468C
:10096000017001940481448144708470C47001F06A
:1009700027FD1248124904700320886001F0D6FE5A
:10098000012812D0022810D003280CD10023009493
:100990001A4619461846019401F070FD042802D049
:1009A0000848FFF709FC03B030BD0021084601F0FC
:1009B0002FFEF3E7C4000020900000202C00002050
:1009C00000F50140E80109007FB50B4B6C460FCBE9
:1009D0000FC40020094D042301466C468A00A25C26
:1009E0002E69D640F207D20F8A400243491CD0B28A
:1009F0009942F3D304B070BDD42B00000005005021
:100A00001048018CC9B2012917D1818C090714D172
:100A1000018D09060A0F03D1828D1206120F0ED026
:100A2000090F012903D1828D1206120F07D0032965
:100A300003D1808D0006000F01D0002070470120F7
:100A400070470000C00F00F0F8B5AA4D00206861A3
:100A50000326AE60A849C8630120C863A74C60693B
:100A6000891588436061606900090001801D60612B
:100A700060690F2109048843310440186061A0694E
:100A8000012149068843A061A06949100843A0617B
:100A9000A069000A00022030A061A069FF210902BC
:100AA0008843A06196490220086000F00DFCE861CF
:100AB0009448A8616E60944801F08CFB93494860AB
:100AC0009348A269417F07231B049A4309040A4300
:100AD000A2610021036A0A461827D6001846F04092
:100AE000C0B28507C407ED0F240EAD0125434407AE
:100AF000E40F64012C430507ED0F2D012543C406C7
:100B0000E40FE4002C438506ED0FAD0025434406B9
:100B1000E40F64002C43C0092043BC1BA040521CBE
:100B20000143D2B2042AD8D37448C1617848002165
:100B3000436A0A46D6001846F040C0B2C407250EE4
:100B40008407E40FA4012C434507ED0F6D012543F5
:100B50000407E40F24012C43C506ED0FED002543E7
:100B60008406E40FA4002C434506ED0F6D002543D9
:100B7000C0092843BC1BA040521C0143D2B2042A26
:100B8000D8D35E4D2962624E002430192030007A9D
:100B9000082C4ED2A107C90EFF228A40D243042C52
:100BA00023D26B6A13406B62C207130E8207D20F07
:100BB00092011A434307DB0F5B0113430207D20F75
:100BC00012011A43C306DB0FDB0013438206D20F68
:100BD00092001A434306DB0F5B001343C00918431E
:100BE0008840696A0843686226E0AB6A1340AB62DA
:100BF0008307C207DB0F120E9F0117434207D20F74
:100C000053010207D20F3B4312011A43C306DB0F05
:100C1000DB0013438206D20F97004206D20F520028
:100C20001F433A43C00910438840A96A0843A86299
:100C300002E03848FFF7C0FA641C082CA5DB364CEC
:100C4000207CE860607C696B090A090269630028FE
:100C50001CD001281DD0022825D003282BD02F48D6
:100C6000FFF7AAFAA07C2E4B2E492F4C2F4A0028C2
:100C70002AD0012832D0022807D128618C622C4862
:100C80004B62C8622B484A630863F8BD686B6863AF
:100C9000E8E7686B012108436863FF20E863FF20F1
:100CA0000830A863DEE7686B0221084368632248C6
:100CB000E863224806E0686B032108436863204824
:100CC000E8630020A863CDE7002028618C621D48FE
:100CD0004B62C8621C484A630863F8BD0120286162
:100CE0008C621A484B62C862194808631948486305
:100CF000F8BD000000F50140C01F00400015004095
:100D000080E200E004110040E00000202C00002000
:100D10009000002039030900B0000020C203090040
:100D200000500078001700404E0000543E420F82F1
:100D300008800C6088647200FFFF00002110010031
:100D4000FFFFFF0003800C602264720002800C60D1
:100D500011646600DEC08F8201F07AFE002000F090
:100D600017FC1B4C6070642000F0A8FC6178084000
:100D70006070FFF729FE214608700122002000F074
:100D800023FBE07000F0B6FBA070124D607901010A
:100D90002079C0000843E17889000143A078400031
:100DA0000843617808431F28F0D0FF2001F0FCFDC4
:100DB0002846FFF78FF9FF2001F0F6FD2846FFF7E0
:100DC00089F9FF2001F0F0FD2846FFF783F9DDE700
:100DD0000000002040420F00F8B503041B0E0E4631
:100DE0000093C3B2010E000200160024170C40420B
:100DF00095B2062B5BD21A007A4412799218974466
:100E0000021427423F3C002900D001210C4629044E
:100E10003D46000405430C43304600F0B5FC2A462D
:100E20002146009800F03CFBF8BD23488068407ED6
:100E3000002802D12148FFF7BFF9304600F0A4FC9A
:100E40002146280401433A46009800F017FBF8BDFC
:100E5000002900D001210C4600040443002907D0DA
:100E6000002E02D11648FFF7A7F9304600F08CFC9F
:100E70002146009800F08AFBF8BD00F039FBF8BD70
:100E800000F01AFCF8BD0F484168491C4160017828
:100E90000029F7D08168002902D0491E8160F8BD81
:100EA00000F04EFD0028E8D100F018FCF8BD06481F
:100EB000FFF782F9F8BD00000C000020B503050023
:100EC000C303050084000020E303050002490F224C
:100ED0000A70C860704700000C00002009480A4AE8
:100EE0004168491C416012681368994208D3002385
:100EF00043600168491C01605268914200D303605D
:100F000070470000380000203400002070B5084D04
:100F1000064C296820684968884202D30548FFF7D3
:100F20004BF9286821688068405C70BD380000205B
:100F300034000020B2000100014800687047000042
:100F40003800002001484068704700003800002049
:100F500010B5040002D10548FFF72EF9044800211E
:100F6000046004480160416010BD00002A000100D7
:100F7000340000203800002010B504460548006801
:100F80004068A04202D80448FFF716F903480460FD
:100F900010BD000034000020B9000100380000201E
:100FA00010B50446054800680068A04202D804480D
:100FB000FFF702F90348446010BD00003400002030
:100FC000C50001003800002070B51B4C05462068A4
:100FD000062802D31948FFF7EFF821680020184EC1
:100FE00000290BD98200B258AA4203D11548FFF755
:100FF000E3F80EE0401CC0B28842F3D3124800214F
:1010000022224A431318AB4206D0491CC9B2062912
:10101000F6D30E48FFF7D0F820680D49800030580D
:10102000884202D00B48FFF7C7F82068810075504E
:10103000401C206070BD000060000020850003009F
:1010400034030020F60003004C0300208600030058
:10105000ADDEADDE88000300014800687047000087
:101060006000002010B50446102802D30348FFF7A3
:10107000A3F8600002492018085C10BDC8000300F6
:101080004402002070B400201F4A01464300C318E8
:101090009C186170A170D154401C1028F6D3002117
:1010A0001A4D1B4BDE240A46222042438E00501963
:1010B0009851AC5444708470C4700471447184714C
:1010C000C471047244728472C4720473447384736E
:1010D000C473047444748474C4740475447584754E
:1010E000C475047644768476C4760477447784772E
:1010F000C47720300470491C44700629D3D30549B5
:101100000620086070BC7047440200204C03002099
:10111000340300206000002070B50025044610282C
:1011200002D30F48FFF748F860000E492218885C88
:10113000002813D00C2044430B48231850188478FF
:10114000A4001D598478641C84708478801C032C4E
:1011500001D300230370885C401E8854284670BD6C
:10116000A60003004402002074020020F8B50D46DA
:101170000446102902D32048FFF71EF81F4900201B
:101180000968064600290CD91D4A8300D358A3429A
:1011900003D11C48FFF710F80EE0401CC0B2884293
:1011A000F3D319480022222151430B18A34206D041
:1011B000521CD2B2062AF6D31448FEF7FDFF68008F
:1011C000134A2918505C032814D20C2045431148B7
:1011D0002B1888184578AD005C514478641C447025
:1011E0004478401C032C00D30670505C401C5054C3
:1011F0000120F8BD0020F8BD8F0003006000002032
:1012000034030020F60003004C030020900003008C
:10121000440200207402002010B50446102802D3B6
:101220000948FEF7C9FF600021180848425C002AFF
:1012300008D00C225443064AA2180818807880006F
:10124000105810BD002010BDB7000300440200205C
:101250007402002070B5164900240A68002A25D0BF
:101260009000144B144DC0188038C46F521EC567CF
:101270000A600021002A0BD988001D58A54203D11D
:101280000E48FEF799FF0EE0491CC9B29142F3D314
:101290000B48002122224A431318A34206D0491CBE
:1012A000C9B20629F6D30748FEF786FF204670BD6F
:1012B0006000002034030020ADDEADDEF600030048
:1012C0004C0300207D0003000048704748A0004008
:1012D0000048704740A10040014800787047000076
:1012E0004000002070B5114801254560C560104ED2
:1012F0000024B4600F4845600F484068002802D0C1
:101300000E48FEF759FF00200D49C04388600D4884
:101310000460042030610C4844600570447084709F
:1013200008150A4908600A49086070BD00A000401D
:1013300000A5004040A0004040A50040350004004A
:1013400000A3004040A100404000002080E200E0F7
:1013500000E100E003490120086003490020087013
:101360007047000000A000404000002010B4074873
:1013700001214160C16000220548064C4260427074
:101380008B0223608270017010BC704700A0004087
:101390004000002080E200E00148407870470000F3
:1013A0004000002030B552000A439900039C0A43D4
:1013B0002102049D0A4329040A430249800040187F
:1013C000026030BD00070050F7B52A4D16460746AB
:1013D000082804D304202870002003B0F0BD019831
:1013E000002806D0202E09D906202870002003B03E
:1013F000F0BD03202870002003B0F0BD384600F097
:10140000D5F9032804D309202870002003B0F0BDCB
:10141000384600F0C7F9032804D30A2028700020BA
:1014200003B0F0BD00F0BAF9022804D208202870F9
:10143000002003B0F0BD00F0B7FA04460670407813
:101440000121084360703246A01C0199FEF77EFE20
:10145000F8B2214600F088FA002802D0012003B03B
:10146000F0BD0548FEF7A8FE0F202870002003B04D
:10147000F0BD00000C000020DD00050070B5054641
:10148000064C00206071FFF79FFA21460870012288
:101490002846FFF799FFE07070BD000000000020B3
:1014A00037B5054682B0202000900F4C01206071B6
:1014B0006846007B00280CD06A460C49284600F09C
:1014C00029F820710098002803D00848007801F01E
:1014D0006BFAFFF779FA0449012208702846FFF7F2
:1014E00073FFE07005B030BD0000002064000020F4
:1014F0007047000006488168002903D1022101706D
:101500000020704710B500F0FFF8012010BD00006A
:101510000C000020F8B516460F46044600F042F9CC
:10152000184D00280CD0002F0ED0204600F038FABD
:101530000078316881420BD2062028700020F8BD67
:101540000B2028700020F8BD032028700020F8BD73
:10155000204600F0FFF904000CD0A01C0AD022782D
:10156000A11C38463260FEF7F1FD204600F00CF970
:101570000120F8BD0448FEF71FFE0F202870002050
:10158000F8BD00000C0000200501050070470000B8
:10159000F1B5454D82B000242C704448EC600460E5
:1015A00044608460424800F005F9A86001250028E5
:1015B00074D03D4F407E3F4902267A68012817D0FB
:1015C000102A17D8100015D00846FEF7BFFD39487D
:1015D000796800F009FA01200090029800280DD0E7
:1015E00001280FD002280FD00520387000200FE00E
:1015F0003E7001E0072038700020EDE7012000F088
:101600005DFA04E0022000E0002000F057FA01201B
:10161000009908400090042000F0D0F922490020F1
:101620008968497E002903D01F482746067002E0DA
:1016300000F0D4F92F461C49009889680740497E7C
:101640000020002903D018480670204602E000F070
:101650004DFA2846074014488068407E002803D091
:1016600011480670204603E0012000F0D7F9284613
:101670000D4907408A680020527E002A01D00E7072
:1016800002E000F03DFA2C463C40012000F06AF8F0
:10169000002C03D0012003B0F0BDFFE70248057025
:1016A000002003B0F0BD00000C00002084000020EA
:1016B000D90D00001C0000207047000010B506493D
:1016C0008A68527E002A03D002200870002010BDD4
:1016D00000F0EEF9012010BD0C00002010B5012033
:1016E00080F310880748417E002906D081780029C0
:1016F00003D10121817001F079F9002080F3108875
:1017000010BD0000C400002070B5114C607E0028A0
:101710001CD1FFF799F90F4DA868002802D10E4897
:10172000FEF74AFD6868002802D10C48FEF744FD28
:1017300001F018F9002802D00948FEF73DFD00200D
:1017400001F024F90120607601F050F970BD00002D
:10175000C4000020F80000205E0209005F020900BA
:101760006602090010B5044604484068002802D10A
:101770000348FEF721FD0348047510BD2C0000202E
:10178000F6030900E000002010B5012181F3108864
:1017900000F0ACFF002080F3108810BD10B500F001
:1017A000A9FF10BD10B500F0BBFF10BD10B500F0D3
:1017B000C3FF10BDF8B50646012080F31088544CD5
:1017C0000025607003202070A5706560A560A5816C
:1017D000E5812561656125764E4865760560456041
:1017E0008560C560056105754B4F1830BD6045606B
:1017F000FFF778FD304600F027FE00F0A1FF002043
:1018000001F0BCF83846FFF7A3FB454A434910688E
:10181000FF2633049843106008681A12904308604A
:10182000404801684022B14311430160012080F328
:1018300010882178012905D06070607E00285ED074
:1018400001F0D4F8002080F310883046364E042290
:101850003061727735483062354870623548012111
:1018600001720221417203238372C2720522027344
:1018700006224273072282730822C27305744174E0
:10188000012282741E2070614B20C000F1607060E4
:101890002278022A02D06068002833D039600F20F5
:1018A000B060022A02D06268002A2ED0396000207F
:1018B00070830120307670760020307700F0BCFF16
:1018C000692030606078012802D01B48FEF774FC64
:1018D00001202070A5706560A560A581E581256166
:1018E000656125766576FFF7AFF801211348890217
:1018F00001608902016085F310880548F8BD01F098
:10190000D3F89FE7B0683860C9E73860CFE70000D8
:10191000C4000020E0000020F800002000E400E007
:1019200008E400E014E400E09000002004070A0D41
:1019300005080B0EB00000203C02090080E200E028
:101940000348407E002801D00020704701207047E6
:10195000C400002010B5012181F3108800F026FF9B
:10196000002181F3108810BD10B5012282F3108888
:1019700000F021FF00280DD008488178002904D10B
:10198000407E002801D001F031F8002080F310885B
:10199000012010BD002080F3108810BDC40000207D
:1019A00010B500F01BFF10BD10B5012080F31088AA
:1019B00000F019FF002181F3108810BD0549487718
:1019C00005498A6907231B049A43000402438A617C
:1019D0007047000090000020001500400149087683
:1019E000704700009000002070B50C00054602D141
:1019F0000748FEF7E1FB002D02D10648FEF7DCFBAD
:101A00000548856044600020FFF7B6FA70BD00000D
:101A10004803090049030900F800002030B41749C1
:101A2000174C8874174B1849184A194D00280DD0C7
:101A3000012816D0022807D120614B6215488A621E
:101A4000C86215484D63086330BC704700202061B0
:101A50004B6212488A62C86211484D63086330BC09
:101A60007047012020614B620E488A62C8620E48AE
:101A700008630E48486330BC70470000B000002087
:101A80000015004000500078001700404E00005440
:101A90003E420F8208800C608864720003800C60F4
:101AA0002264720002800C6011646600DEC08F82C6
:101AB00001494883704700009000002010B50121C3
:101AC00081F3108808490A78824205D04870487E20
:101AD000002805D000F08AFF002080F3108810BD98
:101AE00000F0E2FFF8E70000C4000020024908749B
:101AF0000249C86070470000B00000200015004097
:101B000001490877704700009000002070B5124826
:101B1000124C4068407D002805D0012000F0FEFBFB
:101B2000A089401CA08100260D4930464E610D4918
:101B30004A680968551A00F029FF6069A84202D373
:101B40000948FEF739FB60690122291A0748FEF7A8
:101B500037FB666170BD00002C000020C40000202F
:101B600000F50140900000204D06090049290000C1
:101B7000F0B5FA48FA4C4069FA4EFB4F87B000289E
:101B800003D1FFF709FC002816D0F44D686800283F
:101B900001D0401E68602878022802D069680029B8
:101BA00079D0F1682160A978002975D0FFF796F9FE
:101BB000FEF7B8FE07B0F0BDE84800250078012820
:101BC00002D0022805D009E000F0A0FB002805D0D3
:101BD000B9E1387804287DD003287BD0FFF77EF95F
:101BE000DE484168002901D0491E41600178022980
:101BF00002D04168002919D0F1682160044680783C
:101C0000002815D0FEF78EFE00F016FC022870D3D7
:101C100003266846002406700194048144814470C0
:101C20008570C57000F0CCFB07B0F0BDB168E4E78B
:101C300000F03AFF002811D00020766800F0A6FEE0
:101C40006069B04202D3C948FEF7B6FA6069012262
:101C5000311AC748FEF7B4FA6561D5E72078002845
:101C60007ED0012819D002287BD0C248FEF7A4FA02
:101C7000707E0128C8D120780228C5D0616800296B
:101C8000C2D10127BF0700286CD001286BD0BA4809
:101C9000FEF792FAB8E77FE180E100F0C9F900F0C1
:101CA00045FD002826D0708B00287CD0A189814278
:101CB00079D30121002000F0ABFC012700F024FDC6
:101CC0000590A2890492E289039200F023FD6946FF
:101CD0000F7000E037E1059901916946049A0A8185
:101CE000039A4A8148708D70CD70684600F068FB99
:101CF000A7E023E100F0A0FB02287DD32078022892
:101D000002D06068002804D0FFF71CF9002832D008
:101D100097E02069FFF730F90020FFF741F900F064
:101D2000B5FD002868D0A581E58100F0F3FC93495A
:101D3000C86200F0EFFC012181409048016300F08F
:101D4000E3FC8F49086000F0D9FC8D4948608D485C
:101D5000C860FFF7DBF88949886000F0E7FC03E022
:101D6000BEE09FE0DCE0C6E0012872D000F0DEFCBF
:101D700002285CD058E0307E002828D000F086FD94
:101D800000285ED0A581E58100F0C4FC7B49C862D3
:101D900000F0C0FC012181407848016300F0B4FCF0
:101DA0007749086000E055E000F0A8FC74494860FD
:101DB0007448C860FFF7AAF87049886000F0B6FC64
:101DC000012865D000F0B2FC02285FD02CE0FFF7BC
:101DD000B3F82169884234D100F058FD002830D092
:101DE000A581E58100F096FC6449C86200F092FC90
:101DF00001218140614800E023E0016300F084FCA0
:101E00005F49086000F07AFC5D4948605D48C86041
:101E1000FFF77CF85949886000F088FC012837D02A
:101E200000F084FC022831D05748FEF7C5F92DE0B8
:101E300000F0FAF9FFF74CFA5449086178684068F5
:101E400048610120376800F0A1FD6069B84221D3E4
:101E50004DE01DE0FFF7A0FA002802D04C48FEF745
:101E6000ABF9FFF753F845498968884202D0E08909
:101E7000401CE081FFF74AF84049886000F056FCBA
:101E8000012805D000F052FC0228CDD10020CFE778
:101E90000120CDE760690122391A3548FEF790F933
:101EA0006561E5E600200090FFF730F83349896866
:101EB000884201D1009805E0FFF728F82F49886093
:101EC000012000903978401E084201D1FEF732FC13
:101ED0000020776800F05AFD6069B842DAD306E066
:101EE0000020776800F052FD6069B842D2D31F48E5
:101EF000FEF762F9CEE700F019FC002800D083E677
:101F000000F01CFD0028FAD1FFF7E6F90128F6D011
:101F1000FFF72CFA307F00280BD10120786008E011
:101F2000FFF7DAF90128EAD0FFF720FA307F00281E
:101F3000F3D0002000F02AFD656065E61548FEF745
:101F40003BF907B0F0BD70680122410803484161C8
:101F50000748FEF735F907B0F0BD0000C4000020C7
:101F6000F8000020900000202C0000204D06090001
:101F700049290000580409007204090000150040B6
:101F8000E0000020E50700001E06090000F5014002
:101F90000A0509008C040900B16803E6022809D08B
:101FA000FEF79CFF0020746800F0F0FC6869A04216
:101FB00023D31FE03878042829D0032827D0FEF740
:101FC0008DFF0024FEF7A2FF154FB968884203D0A9
:101FD000FEF79CFFB86001241248641E007804429A
:101FE00001D1FEF7A7FB0020746800F0CFFC686900
:101FF000A04202D30C48FEF7DFF868690122211ADB
:102000000A48FEF7DDF80020686107B0F0BD70688F
:102010000122410805486961FEF7D2F807B0F0BD1A
:10202000001500402C0000204D0609004929000041
:10203000F8B51C48022707601B49401788601B48F9
:1020400007601B48002404601A4E34611A490120BD
:1020500008618861194D287801281CD002281ED0FB
:1020600003281CD00120FEF745F8346110482C707D
:10207000046000200C49C04388600C480760F4608D
:10208000032068703460346174606C602C750C4897
:102090006C750760F8BD0620FEF72CF8E5E7022016
:1020A000E1E7000080E100E00013004080E200E092
:1020B0000012004000110040001000400401002008
:1020C00000E100E0F8B53348354A06690327324B92
:1020D0000025324C1168012E05D0022E48D031481F
:1020E000FEF76AF8F8BD042606708669761C8661DC
:1020F0001F602D4E02233360E56025602561656019
:102100002A4B08265E60097D002910D0284EB16850
:10211000284F81753868400702D42748FEF74CF8ED
:10212000E5612649012088610420B860B560206817
:10213000002802D02248FEF73FF8E068002802D0CD
:102140002048FEF739F820480068800702D51F486C
:10215000FEF732F8124C2068C068002800D0804793
:102160002068417D0029BDD0194900684860F8BD4C
:10217000E5602561256065601D6000230B4A0570E0
:10218000DB43936047704560057508690028EED011
:102190008047F8BD040100200012004000110040FB
:1021A00048000020E7020A0080E200E0001300403F
:1021B0004015004000F50140AD020A00001000404B
:1021C000B6020A00B7020A0000E200E0B8020A0004
:1021D0000015004010B50D49022408600C48046049
:1021E0000D480C4941620D490162FFF721FF0021B2
:1021F0000B48032201704270416001610175417515
:10220000817508480460064810BD000048000020A1
:1022100080E100E01410004000F50140041100408E
:102220000401002000E100E0F8B505462A4900015C
:102230002A4C4718207D002802D02948FDF7BCFF12
:102240000026002D2AD0012D28D0022D26D0254889
:10225000FDF7B2FF2448FDF7AFFF00212348667564
:10226000C9438160224902200860224865700068E5
:10227000032D0168A16040682661A661E0603A68AC
:1022800062601BD21C4B3A7A1A60FB7A1B4A002B05
:1022900008D05060506800280DD109E0207800284F
:1022A000DBD0D7E751605068002804D1144800E023
:1022B0001448FDF781FF0D48797A41600D480068A8
:1022C000007D002805D0022D03D10F49A6750420FA
:1022D000486001206075F8BDF42B00000401002067
:1022E000DB000A00F9020A00DD000A0000130040CA
:1022F00080E200E04800002000120040001500408D
:1023000000010A0005010A0000F50140024840688A
:10231000012800D00020704700110040F8B51E4C85
:10232000074665781D4928014618607D012802D0BE
:102330001B48FDF741FF207D002802D01948FDF71A
:102340003BFF0120002120756175032D0AD2002F6B
:1023500001D131680860022D01D0012D05D1B07A7C
:10236000207002E01048FDF727FF10480068007D4C
:1023700000280FD0022D0DD10D484068400702D42F
:102380000C48FDF719FF0C484068002802D10B48A3
:10239000FDF712FFF8BD000004010020F42B00003F
:1023A00021010A0022010A003A010A004800002027
:1023B00000F5014040010A000015004041010A00FB
:1023C00070B5184D04462868002802D11648FDF75C
:1023D000F3FE164E70680A2802D31548FDF7ECFE8E
:1023E000E86F0C21484341192078087160784871E2
:1023F000A0788871E078C8716068886020898881D9
:102400006089C8817068401C7060E86F401CE86794
:10241000E86F0A2801D30020E8670120054900057C
:10242000086070BD2801002034000B00A8010020C6
:1024300035000B0000E200E0024840680A21081A5B
:10244000C0B27047A801002010B5040002D10748AF
:10245000FDF7B2FE06490C600020C8670549086018
:102460004860012004490005086010BD29000B00E8
:1024700028010020A801002000E100E0FFB55A4833
:1024800085B0C06F032500270F9E0C46002802D19F
:102490005648FDF791FE54480078032802D054486E
:1024A000FDF78AFE5048C06F41785248CA07019034
:1024B000002A1ED1807C00281BD0002000900598A7
:1024C00000286ED0079849070002890F000A464B82
:1024D00009060843A200D118896B00220E9B88428E
:1024E0001A60326003905ED03F4FF86F002805D12C
:1024F00001E00120E2E74048FDF75EFE3A48214650
:10250000C06F08310291FEF731FE002804D0002090
:1025100035490127C86700E000270098384000903F
:10252000002F40D0029881002F4809180398886135
:1025300008990F4236D03148005D002832D020463D
:10254000FEF790FD002802D12D48FDF735FE20460C
:10255000FEF7E2FD0290002811D001982546007C8C
:10256000002805D020480069A84201D100F040F9B8
:102570001D490020491980310870204948550E999D
:10258000029808600E99002909D0002802D11D4840
:10259000FDF712FE002119480225015503E01A48F3
:1025A000F6E712E00125009800280AD02046FEF741
:1025B00033FE3060002803D010480121015501E0AE
:1025C00012483060002F01D006E00425064CE06F71
:1025D000FEF7FAFC0020E06703490020087000F0D5
:1025E00007F9284609B0F0BDB00100205B010C00DE
:1025F0005C010C00300200206F020C004C00002037
:1026000091010C0096010C009A010C0008020020B8
:10261000F8B52D4C064620780D46012804D0022836
:1026200002D02A48FDF7C8FD002E28D020780128C6
:1026300002D02748FDF7C0FDE068002802D12548F8
:10264000FDF7BAFDE0680078002804D0E06F666806
:10265000002805D101E0002712E01F48FDF7ACFD7E
:1026600031460831E06FFEF781FD002802D00020DE
:10267000E06702E01948FDF79FFD022700E004270C
:10268000002D1AD065682846FEF746FD06000ED0DC
:102690001348007C002804D02069A84201D100F032
:1026A000A7F800206119803108700E494855A068CC
:1026B000B04202D00C48FDF77FFD0020207000F0F2
:1026C00097F83846F8BD0000B0010020FC000C006F
:1026D00002010C0003010C006F020C000E010C0043
:1026E000300200204C0000201E010C0010B5FEF747
:1026F0006BFC10BD10B5FEF7AFFC10BD0148C06803
:1027000070470000B0010020014880687047000059
:10271000B00100200148406870470000B00100206F
:1027200010B50830FEF79EFC10BD0000014800788F
:1027300070470000B001002010B5FEF793FC10BDFB
:1027400070B5FEF79FFC0022144C154E1046010692
:10275000930001431B19996113460506014608338E
:1027600029439D002D19A961A11880310870E11835
:1027700080310870B054521C082AE8D32070606081
:10278000A060E0602061074960610874064A4874EF
:102790001076E0670120887470BD0000B001002051
:1027A0004C00002030020020F001002010B508305D
:1027B000FEF7B2FC10BD70B50E4604460025FEF7CC
:1027C0004BFC002808D021463046FEF7CFFC0028FD
:1027D00002D000F00DF80125284670BD10B5083074
:1027E000FEF71AFD10BD10B5FEF734FD10BD000058
:1027F000F8B50F4C2078002819D10E4E307C0028F7
:1028000015D1082501276069FEF72CFC002802D0AD
:102810003774606920616069401C6061082801D1DB
:1028200000206061307C002801D16D1EEBD1F8BD25
:10283000B001002030020020014988747047000078
:102840003002002070B50F4D2878002802D00E48C5
:10285000FDF7B2FCE86F002802D1FEF7FBFCE86749
:1028600004000CD0FF2020706078062108436070BF
:10287000FF222021A01CFDF77BFC032028702046AE
:1028800070BD0000B00100203B010C0070B5264C6B
:102890002078002802D02548FDF78EFC244D002624
:1028A000287C002825D020696060FEF7B5FCA06078
:1028B000002802D11F48FDF77FFCA0684078C007C0
:1028C00005D1A87C002802D00220E6600FE06068F5
:1028D0000830FEF7C7FB03280BD2E06F002802D1B7
:1028E000FEF7B8FCE067E060002802D0012020700D
:1028F00002E02078002816D0A068002802D10E48F7
:10290000FDF75AFC2069606080000119C87EF92338
:10291000401CC876A26880075178400F19400143D7
:1029200051702E74012070BDB0010020C3000C0056
:1029300030020020C9000C00E7000C000148007CB8
:10294000704700003002002004480178817041780F
:102950000170880002490858004700005400002018
:102960005800002001480078704700005400002003
:1029700001484078704700005400002002498870E8
:1029800048700870704700005400002010B50446DD
:10299000022802D30248FDF70FFC0248447010BD24
:1029A0002A000D0054000020FFB50E4C6D461ECCD1
:1029B0001EC5042600220C4D6C4601210B46934097
:1029C000034205D09300E35C0F469F40EF6004E0B4
:1029D0009300E35C0F469F40AF60521CB242EDD3C0
:1029E000FFBD0000E42B00000005005010B5FEF70D
:1029F00073FC012820D1FFF7BBFF002802D00F484D
:102A0000FDF7DAFB00221E210D48FDF7D9FB0D482A
:102A1000007F00280ED10C48012141610B480022A3
:102A200002608205116000BF00BF00BF00BF0168E7
:102A30000029FCD0FEF78EFC10BD00002C0609001A
:102A400049290000900000200005004000010040DE
:102A500070B514488AB01EC802AD1EC50FC80690D6
:102A600007A80EC0002502AE2C46A8003058002250
:102A70000323009411460194FEF794FC6D1C042D71
:102A8000F3D3002506AEA80030580122009400239D
:102A900011460194FEF786FC6D1C042DF3D30AB099
:102AA00070BD0000B42B0000F0B53B4E83B0307811
:102AB000717888426DD0002801D1FDF7C5FF70788C
:102AC000364D002400281CD10320A860FFF72EFEFD
:102AD000012804D0022802D0032812D104E00021EA
:102AE0000846FFF795FD07E0002300941A461946B3
:102AF00018460194FFF7C2FC042802D02848FDF7CD
:102B00005BFB6C61FFF794FA264D274F2C606C60DD
:102B10002C61AC60EC603078012802D0022809D02A
:102B20001CE0FFF703FE002815D000210846FFF740
:102B30006FFD10E0FFF77CFA1C482C610470FFF772
:102B4000F5FD032807D1002300941A4619461846BC
:102B50000194FFF793FC3078022802D070680028B7
:102B600013D01348F9680160707830700425684606
:102B70000023057001930381438143708470C47006
:102B8000FFF71EFC012003B0F0BD0948B9680160E1
:102B9000EAE7002003B0F0BDC400002000F50140CA
:102BA000E8010900E0000020900000202C00002037
:102BB000F8000020110000001200000013000000C7
:102BC00014000000150000001600000017000000AF
:102BD00018000000110000001200000013000000A7
:102BE000140000001500000016000000170000008F
:102BF00018000000001000401011004003100000F9
:102C00000100000000100040000000000B02040062
:102C1000000000000410004000000000070803014D
:102C200000000000442C00000000002064000000B0
:102C3000BC050000A82C000064000020B40B0000BC
:102C4000CC05000000000000000000000024F4009B
:102C5000000000000500000000000000000000006F
:102C600004192A3F4D000000000000000000000091
:102C70000000000000000000000000000000000054
:102C80000000000000000000000000000000000044
:102C9000000000000000000000000000711B0000A8
:082CA0000D1B00000000000004
:04000005000000C136
:00000001FF
