:020000040000FA
:10000000880C0020150100002F01000031010000C4
:1000100000000000000000000000000000000000E0
:10002000000000000000000000000000330100009C
:100030000000000000000000350100003701000052
:1000400039010000FD020000390100003901000003
:1000500039010000000000003901000039010000F2
:100060003901000039010000990500003901000044
:100070003901000039010000390100003901000098
:100080003901000039010000390100003901000088
:10009000BD040000390100003901000039010000F1
:1000A00039010000390100000000000000000000DC
:1000B0000000000000000000000000000000000040
:1000C0000348854600F08AF800480047591A0000A6
:1000D000880C0020401E00BF00BF00BF00BF00BF53
:1000E00000BF00BF00BF00BF00BF00BF00BFF1D115
:1000F00070470000401E00BF00BF00BF00BF00BF30
:1001000000BF00BF00BF00BF00BF00BF00BFF1D1F4
:10011000704700000321094802680A43026008484A
:1001200002680A4302600748804707480047FEE725
:10013000FEE7FEE7FEE7FEE7FEE7000024050040DD
:100140005405004045050000C100000030B50B46D5
:10015000014600202022012409E00D46D5409D42A1
:1001600005D31D469540491B254695404019154627
:10017000521E002DF1DC30BD03460B439B0703D01C
:1001800009E008C9121F08C0042AFAD203E00B785C
:100190000370401C491C521EF9D27047D2B201E0D4
:1001A0000270401C491EFBD270470022F6E710B5D2
:1001B00013460A4604461946FFF7F0FF204610BDD5
:1001C00030B504460020034600E05B1C934203D296
:1001D000E05CCD5C401BF8D030BD0000064C012532
:1001E000064E05E0E36807CC2B430C3C98471034DF
:1001F000B442F7D3FFF768FFC83F0000E83F0000B4
:1002000010B501F017FD10BDF7B507460024012019
:100210002E490004154688602D4EB078002802D083
:100220002C48FFF7EDFF002F02D12B48FFF7E8FF26
:100230007068002802D02948FFF7E2FF284677605F
:100240000127274D002820D0012828D0022824D0BB
:100250002448FFF7D5FF2448B770002101600199B9
:10026000611889B229602E6820494F606D68006866
:10027000002802D01E48FFF7C3FFA64211D3A542B3
:1002800001D3B5421CD31B4818E0184847606C687E
:100290000760154900200860DDE7AC68DBE72C68E3
:1002A000D9E7B54201D2012000E00020AC4201D8DC
:1002B000012100E00021884202D10F48FFF7A0FF92
:1002C000012002490004486003B0F0BD00A30040D3
:1002D0006000002073000400750004007600040034
:1002E00040A500408900040040A1004040A000401B
:1002F0009B000400B0000400C9000400F8B55F4C86
:1003000020696778401C2061607D002802D05C482D
:10031000FFF776FF204622785A4D00245A495B4E5B
:10032000032A3FD1CA68002A3CD0012F03D0022FF4
:100330002FD057489EE007460069032802D0554851
:10034000FFF75EFF02203870B969491CB961524954
:100350000C60C11EA960514908604B48C46004602C
:1003600004614460032179707C603C753268117DC2
:1003700000290AD04A498B68BB75C461494B0120EA
:100380009861494B042098608C60D06800283AD16D
:10039000F8BD0069012802D04448FFF731FF03F09F
:1003A00053F8F8BD032F64D0012F2ED0022FF6D0C2
:1003B00042783F4B1201D218137B0027002B03D049
:1003C000CB68002B00D00127927A334B02701C605F
:1003D000032A48D00022D243AA60304B02221A607E
:1003E000CC60032242700C600C614C604460047568
:1003F00030680069002800D08047002FD1D03068D5
:1004000080680028CDD08047F8BD0269012A18D045
:10041000022AF9D1CC600C610C601F490C60111FDD
:10042000A960082169600321017044600475306887
:100430000069002800D08047306880680028E2D139
:10044000F8BD0C604C600021C943A96001216960BE
:100450003168097D002902D0134A042151601549F1
:10046000C0684860F8BD0822D243AA6008226A60CA
:10047000B9E71148FFF7C4FEF8BD00007001002085
:1004800090010A00001300400011004068000020A5
:10049000A9010A009F010A000012004080E200E06A
:1004A000401500400010004000F50140A4010A0082
:1004B000983F000000150040D6010A00F8B5204D15
:1004C0002C468034012080F310886068002832D0E8
:1004D00020680C21484340190279310A090211436E
:1004E0004279FF231B02120299431A401143827979
:1004F0001B02120499431A401143C2790E02360AB4
:1005000011060E4381688289C08997B200040743AF
:100510006068401E60602068401C206020680A28D7
:1005200001D300202060002080F310882B683A4619
:1005300030469847C6E7002080F31088F8BD0000D9
:100540009401002010B501F0DBF8002805D00E4919
:100550000C484860C8130D4988610D48018CC9B228
:1005600001290ED1818C09070BD1018D0906090FD4
:10057000042906D1808D0006000F02D10549012013
:10058000886010BDDFFF07C000050040006C004020
:10059000C00F00F00006004070B5012013490004B0
:1005A0008860134800250560124C6068002802D15D
:1005B0001148FFF725FEA5706368104801226560A9
:1005C00042600F484168006895031430A94205D283
:1005D0000325AD03A84201D9627005E0814201D331
:1005E000012000E000206070984770BD00A300402B
:1005F00040A1004060000020EC00040040A000404A
:1006000040A5004002E008C8121F08C1002AFAD124
:1006100070477047002001E001C1121F002AFBD182
:1006200070470000F0B549488BB003684849494A13
:10063000012B02D04B6B002B05D153681B78202B6C
:1006400001D8012300E00023434D03242C70002433
:10065000404A002B146057D084688268CA623D4AC1
:1006600003A901920091C26801232146184603F0B4
:1006700009F9002824D0012805D0022824D0032815
:100680004FD036484BE00398002802D03448FFF79B
:10069000B7FD204603F06AFA002802D13148FFF77F
:1006A000AFFD68680222817D6846002602700196CF
:1006B0000681468144708170C67003F043F830E0D3
:1006C0002948FFF79DFD2CE00398002802D1274818
:1006D000FFF796FD204603F049FA002802D124488E
:1006E000FFF78EFD68680222817D039E68460270D6
:1006F00000236A460196138153814470012781705B
:10070000C77003F01FF80CE000200090034602467B
:100710000146019003F0B6F8042802D01548FFF70F
:100720006FFD0C4C2068002807D00120607512482E
:100730002061042028700BB0F0BD02F03BFE0020C9
:100740006075206100F01AF80BB0F0BD0014004095
:10075000001500404C0100204C000020C805090095
:10076000B8050900B9050900BD050900C005090063
:10077000C1050900CF0509001908000070B502F095
:1007800019FE1C4C00251C4E0120256130701B48B1
:100790001B490069086303F0EFF900281FD003F03C
:1007A000EBF9032802D01748FFF72AFD022002F0D8
:1007B000FDFE002002F074FF03F0DEF9032802D0F2
:1007C0001148FFF71DFD3078012802D00F48FFF7D0
:1007D00017FD022030700E482561E06070BD02F008
:1007E000EDFF0228E2D303F053FA60600028DDD168
:1007F0000848D9E74C0100204C000020FC000020F4
:1008000000150040800509008805090092050900CF
:10081000250600007B05090010B503490520087076
:10082000FFF7ACFF10BD00004C000020F0B54548BC
:1008300085B00068012803D04348406B002806D1EA
:10084000424840680078202801D8012500E00025B2
:100850003F4C01266069002804D101F01BFD0028EF
:1008600000D1666103F088F9012802D03948FFF70A
:10087000C7FC39484068007D002802D03748FFF7A0
:10088000BFFC02F097FD002D57D00121084603F070
:10089000C3F8052840D201007944097949188F44EA
:1008A00002381D383800002703F054F90390A68958
:1008B000E58903F055F90246274869464068837D7B
:1008C0000F700399019169460E814D814A70002095
:1008D0008B70C870684602F035FF1DE0002703F0FA
:1008E00039F90390A689E58903F03AF902461A48D6
:1008F00069464068837D0F700399019169460E81B6
:100900004D814A7001208B70C870684602F01AFF52
:1009100002E01348FFF774FC00F06CFB2061114803
:100920001149426962602378022B01D0002A06D067
:10093000C0680860002001F0E1F905B0F0BD8068F2
:10094000F7E7000000140040001500404C010020B3
:1009500030010020A80609004C000020A90609006B
:10096000C8060900FC0000206401002030B5234DBA
:1009700083B0687E00283AD001F02CFC00240128C6
:100980000CD001F071FC1E48007F002802D101202C
:1009900081074860002003F01FFA6C6002F00AFD36
:1009A000AC706C7605216846017001940481448125
:1009B00044708470C47002F0C5FE1248124904707D
:1009C0000320886003F0D8F8012812D0022810D044
:1009D00003280CD1002300941A46194618460194A6
:1009E00002F050FF042802D00848FFF709FC03B0CA
:1009F00030BD0021084603F00FF8F3E73001002076
:100A0000FC0000204C00002000F50140E801090036
:100A100010B503220149FFF7AFFB10BD843F000072
:100A2000F0B58BB020270026099701F03DFD044664
:100A300001F05AFD0A9001F0D1FEC82001F072FECB
:100A4000052001F09FFE002001F000FD01F0B2FC46
:100A5000002069460870054600220121684600F022
:100A6000A3FA002806D0002001F0C6FE6D1CEDB2EE
:100A7000642DF1D3C82000F021F9012069460870E7
:100A800001460022684600F08FFA002823D01F4854
:100A9000007800281FD0002001F00AFD00281EDD8C
:100AA00009AA01A90020099701F094FC002816D09A
:100AB00068460079082812D1144801AD042209388B
:100AC000691CFFF759FB681C00F0B0FD002000F026
:100AD00097FC012603E0FF202D3000F0EFF8FF2007
:100AE0005F3000F0EBF801F079FE002001F0AEFC81
:100AF000002001F0BBFC204601F014FE0A9801F032
:100B000041FE01F057FC30460BB0F0BD1E00002046
:100B1000002207E00378401CFF2B01D00020704723
:100B2000521CD2B28A42F5D301207047F0B5074675
:100B3000204889B0007815460E46002813D00128B9
:100B400014D0022834D110221B4904A8FFF714FB4B
:100B50001A490D2204A8FFF70FFB0020154B6C4625
:100B60005B1C02460DE010221349F3E710221249E4
:100B700004A8FFF701FB04A800F0EAF8EDE7052858
:100B800002D2195C215400E02254401CC0B210284B
:100B9000F5D301F0F1F804A801F000F96946084620
:100BA00001F0C0F82B466A463146384600F098FD01
:100BB00009B0F0BD0C000020873F0000D4000020E9
:100BC00070B50C4605460D2912D800F02FF8002804
:100BD00001D0012070BD07480078002808D100F03E
:100BE0006DF9002804D02146284600F01FF870BD9A
:100BF000002070BD120000200149087070470000FD
:100C00000C00002010B501460D220248FFF7B4FA8F
:100C100010BD0000D400002010B501460522024896
:100C2000FFF7AAFA10BD00000D000020F0B507463E
:100C3000081D89B00D46C6B206206946087404AC8A
:100C4000601CFFF7E5FE2A463946201DFFF794FA9F
:100C5000194D2878002801D0002000E00220FFF77D
:100C6000CBFF701EC2B2611C601CFFF75FFF01204A
:100C70000090002301AA314604A800F089FC002856
:100C800003D1684600790B2802D0002009B0F0BDDE
:100C900001ACA01D03220146FFF748FFA01D00F094
:100CA0009BF90028F2D02878002802D1601CFFF7B9
:100CB000B3FF0120EAE700001200002010B504464F
:100CC00001F00EFC60434000FFF704FA10BD000085
:100CD00010B5024802F094FD10BD000000100000A5
:100CE000F7B5064682B0144611464E20FFF72EFA9D
:100CF00000900220307030194F212038C1770398BE
:100D0000002811D00125671E0CE0A9070398890F60
:100D1000405C0099FFF71AFA00986843081870556C
:100D20006D1CEDB2BD42F0DB012105230CE0701813
:100D30002038725CC07F101AC0B2052802D2181A7F
:100D400010187054491CC9B2A142F0D305B0F0BDCF
:100D500010B505220149FFF70FFA10BD1900002058
:100D6000F0B5324D87B028780026012701AC002865
:100D700017D0032069460871601CFFF749FE002068
:100D8000FFF73AFF0322611C601CFFF7CFFE002330
:100D900003AA042101A8009700F0FAFB002815D04F
:100DA00018E00220694608710521601C00F0CAF8AD
:100DB0000122062101A800F0F7F800280AD0601CE3
:100DC000FFF72AFF2F70002007B0F0BD6846007BB8
:100DD000092802D02E700320F6E703AC601C09221C
:100DE0000146FFF7A3FE601C00F0F6F8002819D0BA
:100DF0006846007C002804D0012805D0022800D1D4
:100E00002E706846007CDFE7601D00F0B7F80D210A
:100E1000074800F097F80648FFF7F4FE012000F0BD
:100E2000EFFAEDE72E700220CEE70000120000205E
:100E3000E10000209F204001C07FFF2801D0012059
:100E40007047002070470000084883225201811833
:100E5000897FFF2904D008090F2800D10840704776
:100E6000401E00B20028F2DA0E2070478103000015
:100E70000EB5114900200870FFF7DCFF002815D1DE
:100E800083204001807FFF2810D0FFF7DDFF01465F
:100E90000E280BD2684600F04AF80748042269463B
:100EA000C01CFFF769F901A800F068F80248C01CEF
:100EB00000F0BCFB0EBD00001200002010B58AB08F
:100EC000042069460874012001460090002301AA0D
:100ED00004A800F05DFB002827D1684600790A28A5
:100EE00023D101A80130FFF797FE05206946087459
:100EF00004AC601CFFF78CFD0D21201D00F022F8D2
:100F0000201DFFF77FFE0120FFF776FE1022611CF7
:100F1000601CFFF70BFE0122112104A800F044F829
:100F2000002802D001200AB010BD0020FBE7CA0053
:100F300089180122120310B589180922FFF71CF93C
:100F400010BD0000F0B50A4B00271F60094D0124B9
:100F50002C603A4608E01E68002EFCD0064EB668AB
:100F600086541F60521CD2B28A42F4D36C60F0BD2A
:100F700000D1004000D0004000D5004010B501462F
:100F800005220248FFF7F8F810BD00001900002004
:100F900010B5044601F0DEF9640000E030BF01F056
:100FA00099FAA042FAD310BD70B50546094C00204D
:100FB00013466070A0700A462946184601F070F981
:100FC000002801D170BD30BF60780028FBD0A07828
:100FD00070BD00001200002010B503220449FFF785
:100FE000EFF8002801D0002010BD012010BD000046
:100FF000843F00000148006870470000580000204E
:10100000FFFFFFFFFFFFFFFFFFFFFFFFFFFFFFFFF0
:10101000FFFFFFFFFFFFFFFFFFFFFFFFFFFFFFFFE0
:10102000FFFFFFFFFFFFFFFFFFFFFFFFFFFFFFFFD0
:10103000FFFFFFFFFFFFFFFFFFFFFFFFFFFFFFFFC0
:10140000F0B5002785B03C460397002861D0002541
:101410006E4629466846FFF78AFD04225949684608
:10142000FEF7CEFE002807D156490522091D301DC2
:10143000FEF7C6FE002810D06D1CEDB20E2DE8D3CD
:10144000002529466846FFF772FD04224D4968468B
:10145000FEF7B6FE002802D00FE02C4634E005214E
:10146000301DFFF755FB002807D046490522091D0E
:10147000301DFEF781FE2C464BE06D1CEDB20E2DAB
:10148000DFD3002529466846FFF751FD092168464C
:10149000FFF73EFB002805D004223A496846FEF7D4
:1014A0006BFEE2E76D1CEDB20E2DEBD30398002826
:1014B00008D0E00001222018120380186946092292
:1014C00002F0D2F9002F5AD0FFF7B4FC002827D041
:1014D00055E0002421466846FFF729FD04222949EA
:1014E0006846FEF76DFE0028EED0641CE4B20E2CB8
:1014F000F0D3002421466846FFF719FD0421684611
:10150000FFF706FB002806D004221E496846FEF7B6
:1015100033FE0127CDE7641CE4B20E2CEAD32EE0A3
:10152000FFF792FCA0422AD00E2C28D08322520131
:10153000154B0020917F5D1C03E08118897F984244
:101540001AD0CE4336070DD00E090F2E0ED0401CF8
:1015500000B2A842F1DB0D4A801802F067F90120C1
:1015600005B0F0BD090909012143F4E70907090F96
:1015700022011143C9B2EEE7E0212143EBE700204D
:10158000EEE7000015000020810300007E1000003F
:10159000FFB583B00A200C9D009016460F462846E2
:1015A00001F02AF9012400F0F9FE01F055F80028B5
:1015B000FBD100F08BFF02901E2001F0C3F800F079
:1015C000F9FE2A4639460398FFF7EEFC00281FD0A3
:1015D0000224284601F010F90720694608710A2004
:1015E000FFF7D6FC2A46012101A8FFF7DDFC002801
:1015F0000ED0284600F05CFF002809D02020009083
:101600006A463146284600F0E5FE002800D0002456
:1016100000F0C4FE01F020F80028FBD1029801F090
:1016200091F800F0C7FE204607B0F0BDF0B585B0D8
:10163000054601F011F8294C0646002D4BD069787B
:10164000287809024018A978EA780904120689184E
:10165000471801F0C3F8204601F01CF800280CD010
:101660000021084601F000F8002806D0384601F0B5
:1016700021F8002801D0012403E0012409E0002F13
:1016800007D02146084600F0EFFF002801D00127CF
:1016900000E00027641CE4B2082CF0D300F0FEFE4A
:1016A0000446C2B229466846FFF71AFB002F0FD046
:1016B0002146684601F00EF8002809D00120002ECE
:1016C00004D000F077FE002805D0012005B0F0BD61
:1016D0000020002EFAD00020F8E700000406080AD7
:1016E00070B5002408E00D781678641C754005700C
:1016F000401C491CE4B2521C9C42F4D370BD000053
:101700001048018CC9B2012917D1818C090714D165
:10171000018D09060A0F03D1828D1206120F0ED019
:10172000090F012903D1828D1206120F07D0032958
:1017300003D1808D0006000F01D0002070470120EA
:1017400070470000C00F00F0F8B5AA4D0020686196
:101750000326AE60A849C8630120C863A74C60692E
:10176000891588436061606900090001801D60611E
:1017700060690F2109048843310440186061A06941
:10178000012149068843A061A06949100843A0616E
:10179000A069000A00022030A061A069FF210902AF
:1017A0008843A06196490220086000F00BFDE861C3
:1017B0009448A8616E60944801F0CEFE9349486059
:1017C0009348A269417F07231B049A4309040A43F3
:1017D000A2610021036A0A461827D6001846F04085
:1017E000C0B28507C407ED0F240EAD0125434407A1
:1017F000E40F64012C430507ED0F2D012543C406BA
:10180000E40FE4002C438506ED0FAD0025434406AC
:10181000E40F64002C43C0092043BC1BA040521CB1
:101820000143D2B2042AD8D37448C1617848002158
:10183000436A0A46D6001846F040C0B2C407250ED7
:101840008407E40FA4012C434507ED0F6D012543E8
:101850000407E40F24012C43C506ED0FED002543DA
:101860008406E40FA4002C434506ED0F6D002543CC
:10187000C0092843BC1BA040521C0143D2B2042A19
:10188000D8D35E4D2962624E002430192030007A90
:10189000082C4ED2A107C90EFF228A40D243042C45
:1018A00023D26B6A13406B62C207130E8207D20FFA
:1018B00092011A434307DB0F5B0113430207D20F68
:1018C00012011A43C306DB0FDB0013438206D20F5B
:1018D00092001A434306DB0F5B001343C009184311
:1018E0008840696A0843686226E0AB6A1340AB62CD
:1018F0008307C207DB0F120E9F0117434207D20F67
:1019000053010207D20F3B4312011A43C306DB0FF8
:10191000DB0013438206D20F97004206D20F52001B
:101920001F433A43C00910438840A96A0843A8628C
:1019300002E03848FEF764FC641C082CA5DB364C3A
:10194000207CE860607C696B090A090269630028F1
:101950001CD001281DD0022825D003282BD02F48C9
:10196000FEF74EFCA07C2E4B2E492F4C2F4A002810
:101970002AD0012832D0022807D128618C622C4855
:101980004B62C8622B484A630863F8BD686B6863A2
:10199000E8E7686B012108436863FF20E863FF20E4
:1019A0000830A863DEE7686B0221084368632248B9
:1019B000E863224806E0686B032108436863204817
:1019C000E8630020A863CDE7002028618C621D48F1
:1019D0004B62C8621C484A630863F8BD0120286155
:1019E0008C621A484B62C8621948086319484863F8
:1019F000F8BD000000F50140C01F00400015004088
:101A000080E200E0041100404C0100204C00002066
:101A1000FC000020390309001C010020C20309005A
:101A200000500078001700404E0000543E420F82E4
:101A300008800C6088647200FFFF00002110010024
:101A4000FFFFFF0003800C602264720002800C60C4
:101A500011646600DEC08F8200208EB004460990BB
:101A60000420344D08900FCD0D930AAB07C300201E
:101A7000314E0AAB0C2281005958890089190A603D
:101A8000401C0428F7D3002000F052FD4B2000F04A
:101A900049FEFF20F93000F065FEFFF719F9FFF766
:101AA000E7F900F087FC254E0AAD224810300FC838
:101AB0000D930AAB07C30021042308468200AA5CE9
:101AC0003769D740FA07D20F82400A43401CD1B28F
:101AD0009842F3D368460170002C03D00D21FFF724
:101AE0006FF812E000F0A0FE00F0A4FE112269469B
:101AF000022000F0D5FB002801D107E030BF00F044
:101B00009FFE0028FAD000F0A1FE09900120444079
:101B10000998002806D1FEF783FF002802D0FFF7BE
:101B20001FF9089008980028BFD1FFF719F908900D
:101B3000BBE70000643F00000007005000050050B4
:101B4000F8B503041B0E0E460093C3B2010E00024B
:101B500000160024170C404295B2062B5BD21A00E7
:101B60007A44127992189744021427423F3C002984
:101B700000D001210C4629043D46000405430C43D6
:101B8000304600F0E3FE2A462146009800F0F8FBBC
:101B9000F8BD23488068407E002802D12148FEF726
:101BA0002FFB304600F0D2FE2146280401433A467E
:101BB000009800F0D5FBF8BD002900D001210C46AB
:101BC00000040443002907D0002E02D11648FEF776
:101BD00017FB304600F0BAFE2146009800F0A6FC44
:101BE000F8BD00F0E6FBF8BD00F03CFDF8BD0F4885
:101BF0004168491C416001780029F7D081680029BB
:101C000002D0491E8160F8BD00F094FF0028E8D1A1
:101C100000F022FEF8BD0648FEF7F2FAF8BD00001B
:101C20002C000020B5030500C3030500F0000020D0
:101C3000E303050002490F220A70C86070470000E4
:101C40002C00002009480A4A4168491C416012687A
:101C50001368994208D3002343600168491C01605E
:101C60005268914200D30360704700005800002082
:101C70005400002070B5084D064C2968206849685A
:101C8000884202D30548FEF7BBFA286821688068BD
:101C9000405C70BD5800002054000020B2000100DC
:101CA00001484068704700005800002010B504004B
:101CB00002D10548FEF7A4FA044800210460044854
:101CC0000160416010BD00002A00010054000020A6
:101CD0005800002010B50446054800684068A0423E
:101CE00002D80448FEF78CFA0348046010BD0000D7
:101CF00054000020B90001005800002010B504462F
:101D0000054800680068A04202D80448FEF778FA47
:101D10000348446010BD000054000020C5000100CD
:101D20005800002070B5114D06460124686824064D
:101D3000814202D01022FEF71FFA0D4900200860F0
:101D40000C4B01221A6001E0641E0CD00A68002AC4
:101D5000FAD00860A9688E4203D010223046FEF700
:101D60000BFA012070BD002070BD000000000020B3
:101D700000E1004000E00040054906480A461032F4
:101D800006C0103202600448416001207047000024
:101D9000840000200000002000E50040014610B54E
:101DA000024810220068FEF7E7F910BD000000208D
:101DB000F0B583B00546102802D33548FEF720FA67
:101DC00028460C21484333494018019068002E18DA
:101DD000314830180090102D02D33048FEF710FA29
:101DE0002D49885D002851D00098019A83789B0086
:101DF000D4588278521C82708278801C032A01D3C6
:101E000000220270885D401E8855002C3ED0244878
:101E1000844202D12348FEF7F3F9234F386806289D
:101E200002D32248FEF7ECF91F4900200968002977
:101E30000CD91F4A8300D358A34203D11D48FEF793
:101E4000DFF90EE0401CC0B28842F3D31A480021EB
:101E500022224A431318A34206D0491CC9B20629BC
:101E6000F6D31648FEF7CCF90F48114F00688000F2
:101E700039580B48814202D01148FEF7C1F90A488F
:101E800001688A00BC50491C0160A4E703B0F0BDA2
:101E9000D7000300E0020020B0020020A6000300EB
:101EA000ADDEADDEDB000300800000208500030016
:101EB000A0030020F6000300B80300208600030002
:101EC0008800030070B51B4C05462068062802D325
:101ED0001948FEF795F921680020184E00290BD902
:101EE0008200B258AA4203D11548FEF789F90EE0E4
:101EF000401CC0B28842F3D31248002122224A4338
:101F00001318AB4206D0491CC9B20629F6D30E48B5
:101F1000FEF776F920680D4980003058884202D0DB
:101F20000B48FEF76DF9206881007550401C206059
:101F300070BD00008000002085000300A003002089
:101F4000F6000300B803002086000300ADDEADDE1E
:101F500088000300014800687047000080000020EE
:101F600010B50446102802D30348FEF749F9600073
:101F700002492018085C10BDC8000300B002002010
:101F800070B400201F4A01464300C3189C186170BA
:101F9000A170D154401C1028F6D300211A4D1B4BC0
:101FA000DE240A46222042438E0050199851AC5438
:101FB00044708470C470047144718471C47104727B
:101FC00044728472C472047344738473C47304745B
:101FD00044748474C474047544758475C47504763B
:101FE00044768476C476047744778477C477203047
:101FF0000470491C44700629D3D3054906200860A3
:1020000070BC7047B0020020B8030020A00300207D
:102010008000002070B500250446102802D30F4828
:10202000FEF7EEF860000E492218885C002813D0F5
:102030000C2044430B48231850188478A4001D59E1
:102040008478641C84708478801C032C01D3002362
:102050000370885C401E8854284670BDA6000300AB
:10206000B0020020E0020020F8B50D460446102919
:1020700002D32048FEF7C4F81F490020096806462D
:1020800000290CD91D4A8300D358A34203D11C4810
:10209000FEF7B6F80EE0401CC0B28842F3D31948F0
:1020A0000022222151430B18A34206D0521CD2B267
:1020B000062AF6D31448FEF7A3F86800134A291835
:1020C000505C032814D20C20454311482B18881863
:1020D0004578AD005C514478641C44704478401CE1
:1020E000032C00D30670505C401C50540120F8BDF6
:1020F0000020F8BD8F00030080000020A003002016
:10210000F6000300B803002090000300B002002096
:10211000E002002010B50446102802D30948FEF75B
:102120006FF8600021180848425C002A08D00C2291
:102130005443064AA218081880788000105810BD31
:10214000002010BDB7000300B0020020E002002014
:1021500070B5164900240A68002A25D09000144B57
:10216000144DC0188038C46F521EC5670A60002124
:10217000002A0BD988001D58A54203D10E48FEF74E
:102180003FF80EE0491CC9B29142F3D30B4800213D
:1021900022224A431318A34206D0491CC9B2062979
:1021A000F6D30748FEF72CF8204670BD80000020CB
:1021B000A0030020ADDEADDEF6000300B803002072
:1021C0007D0003000048704748A000400048704769
:1021D00040A10040014800787047000060000020E6
:1021E00070B5114801254560C560104E0024B460EB
:1021F0000F4845600F484068002802D00E48FDF7A0
:10220000FFFF00200D49C04388600D480460042092
:1022100030610C48446005704470847008150A49A8
:1022200008600A49086070BD00A0004000A5004099
:1022300040A0004040A500403500040000A300403D
:1022400040A100406000002080E200E000E100E0EA
:10225000034901200860034900200870704700000E
:1022600000A000406000002010B407480121416038
:10227000C16000220548064C426042708B02236018
:102280008270017010BC704700A000406000002008
:1022900080E200E0014840787047000060000020C4
:1022A000F7B52A4D16460746082804D3042028709F
:1022B000002003B0F0BD0198002806D0202E09D9D7
:1022C00006202870002003B0F0BD032028700020F5
:1022D00003B0F0BD384600F05DFB032804D30920AD
:1022E0002870002003B0F0BD384600F043FB0328FF
:1022F00004D30A202870002003B0F0BD00F030FBAA
:10230000022804D208202870002003B0F0BD00F09D
:1023100045FC04460670407801210843607032464F
:10232000A01C0199FDF728FFF8B2214600F016FC29
:10233000002802D0012003B0F0BD0548FDF760FF82
:102340000F202870002003B0F0BD00002C000020FA
:10235000DD0005000149002048607047F0000020C2
:1023600007B5082201A90548FDF706FF034801212A
:102370000C384170002181700EBD00001E0000204D
:1023800007B5082201A90448FDF7F6FE024801211D
:102390000C38417081700EBD1E00002010B500F099
:1023A000C9FB002802D000F004F810BD00F054FA78
:1023B00010BD704706488168002903D102210170D1
:1023C0000020704710B500F05DFA012010BD00003C
:1023D0002C000020F8B516460F46044600F0CAFA55
:1023E000184D00280CD0002F0ED0204600F0D2FB54
:1023F0000078316881420BD2062028700020F8BD99
:102400000B2028700020F8BD032028700020F8BDA4
:10241000204600F099FB04000CD0A01C0AD02278C2
:10242000A11C38463260FDF7A7FE204600F08EFA68
:102430000120F8BD0448FDF7E3FE0F2028700020BE
:10244000F8BD00002C0000200501050010B508288B
:1024500004D3054904200870002010BDC0B200F06C
:1024600051FA012010BD00002C00002010B50A49CF
:102470008A68527E002A03D00C200870002010BD0C
:10248000082803D304200870002010BDC0B200F05B
:1024900043FA012010BD00002C00002001484068D4
:1024A000704700002C00002010B500F05DFA10BD50
:1024B00010B5082804D3044904200870401F10BD3B
:1024C00000F058FA10BD00002C00002010B500F0FC
:1024D00055FA10BD0148406870470000F000002028
:1024E00010B500F051FA10BD10B5012400F056FAF5
:1024F000F02816D006DC002816D0042809D0EC28D5
:1025000012D110E0F4280AD0F82806D0FC280BD10C
:1025100001E0002408E0022406E0032404E004248F
:1025200002E0052400E00624204610BD70470000AC
:10253000F1B5454D82B000242C704448EC60046035
:1025400044608460424800F02FFAA860012500280A
:1025500074D03D4F407E3F4902267A68012817D04B
:10256000102A17D8100015D00846FDF705FE394887
:10257000796800F033FB01200090029800280DD00C
:1025800001280FD002280FD00520387000200FE05E
:102590003E7001E0072038700020EDE7012000F0D8
:1025A00087FB04E0022000E0002000F081FB012016
:1025B000009908400090042000F0FAFA2249002017
:1025C0008968497E002903D01F482746067002E02B
:1025D00000F0FEFA2F461C49009889680740497EA2
:1025E0000020002903D018480670204602E000F0C1
:1025F0003FFC2846074014488068407E002803D0EE
:1026000011480670204603E0012000F001FB284637
:102610000D4907408A680020527E002A01D00E70C2
:1026200002E000F02FFC2C463C40012000F058F95D
:10263000002C03D0012003B0F0BDFFE70248057075
:10264000002003B0F0BD00002C000020F0000020AE
:10265000411B00003C00002001488068407E70471C
:102660002C0000207047000010B5094A93685B7E7B
:10267000002B03D002201070002010BD082803D3C7
:1026800004201070002010BD00F096FB012010BD4A
:102690002C00002010B506498A68527E002A03D01B
:1026A00002200870002010BD00F01AFB012010BDB0
:1026B0002C00002010B506498A68527E002A03D0FB
:1026C00002200870002010BD00F040FB012010BD6A
:1026D0002C00002010B5114CA268527E012A11D0A6
:1026E000102913D8002911D0002813D00A466160A0
:1026F00001460B48FDF740FD0948616800F06EFA9D
:10270000012010BD02202070002010BD0720207085
:10271000002010BD03202070002010BD2C000020E0
:102720003C00002010B506498A68527E002A03D07A
:1027300002200870002010BD00F0B4FA012010BD86
:102740002C00002010B506498A68527E002A03D06A
:1027500002200870002010BD00F07EFB012010BD9B
:102760002C00002010B506498A68527E002A03D04A
:1027700002200870002010BD00F074FB012010BD85
:102780002C00002010B5144902468B6800205B7EA7
:10279000002B03D002200870002010BD072A17D29A
:1027A00013007B441B79DB189F44030E0507090BBC
:1027B0000D00042008E0FC2006E0F82004E0F420EE
:1027C00002E0F02000E0EC2000F052FB012010BD00
:1027D0000E200870002010BD2C00002010B5FFF75F
:1027E0003BFF002806D0FFF7D9FD30BFFFF734FFCD
:1027F0000028FBD110BD000038B50446012181F34B
:102800001088202505E06A46064920460095FFF716
:10281000E1FD2046FFF74CFE0028F4DC002080F3A9
:10282000108838BDB400002001490020487070476E
:10283000120000200149002088707047120000201B
:10284000014840787047000012000020014880785D
:10285000704700001200002010B5012080F310889E
:102860000748417E002906D08178002903D1012143
:10287000817001F0BFFA002080F3108810BD0000C5
:102880003001002070B5114C607E00281CD1FEF78D
:102890005BFF0F4DA868002802D10E48FDF7B0FC81
:1028A0006868002802D10C48FDF7AAFC01F080FA04
:1028B000002802D00948FDF7A3FC002001F08CFAA3
:1028C0000120607601F096FA70BD00003001002012
:1028D000640100205E0209005F020900660209002F
:1028E00010B5044604484068002802D10348FDF7AB
:1028F00087FC0348047510BD4C000020F603090056
:102900004C01002010B5012181F3108801F0F2F88C
:10291000002080F3108810BD10B50446012181F31A
:10292000108808490878002805D0487E002802D081
:102930000548FDF765FC204601F0E2F8002080F331
:10294000108810BD30010020FA02090010B50121E5
:1029500081F3108801F0F0F8002080F3108810BD9A
:1029600010B501F0EDF810BD0148408B7047000034
:10297000FC00002010B501F0F9F810BD01484069D5
:1029800070470000FC0000200148406870470000CC
:10299000FC00002010B501F0F5F810BD0148007CE6
:1029A000704700001C010020F8B50646012080F3A6
:1029B0001088544C0025607003202070A57065605D
:1029C000A560A581E5812561656125764E4865761E
:1029D000056045608560C560056105754B4F183021
:1029E000BD604560FFF7FCFB304600F0EFFE01F0F4
:1029F000CDF8002001F0E8F93846FFF757F9454ACD
:102A000043491068FF2633049843106008681A127F
:102A100090430860404801684022B143114301607F
:102A2000012080F310882178012905D06070607E34
:102A300000285ED001F0DEF9002080F310883046D7
:102A4000364E042230617277354830623548706204
:102A50003548012101720221417203238372C2723F
:102A60000522027306224273072282730822C27370
:102A700005744174012282741E2070614B20C000D5
:102A8000F16070602278022A02D06068002833D09A
:102A900039600F20B060022A02D06268002A2ED06E
:102AA0003960002070830120307670760020307706
:102AB00001F0E8F8692030606078012802D01B48F6
:102AC000FDF79EFB01202070A5706560A560A581C3
:102AD000E5812561656125766576FEF735FE012184
:102AE0001348890201608902016085F31088054856
:102AF000F8BD01F0B1F99FE7B0683860C9E7386008
:102B0000CFE70000300100204C01002064010020CC
:102B100000E400E008E400E014E400E0FC00002031
:102B200004070A0D05080B0E1C0100203C020900D9
:102B300080E200E00348407E002801D0002070477A
:102B4000012070473001002010B5012181F3108869
:102B500001F052F8002181F3108810BD10B5012258
:102B600082F3108801F04DF800280DD008488178D4
:102B7000002904D1407E002801D001F03BF900205B
:102B800080F31088012010BD002080F3108810BD54
:102B90003001002010B501F047F810BD10B501203C
:102BA00080F3108801F045F8002181F3108810BDF2
:102BB0000549487705498A6907231B049A4300049D
:102BC00002438A6170470000FC00002000150040AD
:102BD0000149087670470000FC00002070B50C0029
:102BE000054602D10748FDF70BFB002D02D1064830
:102BF000FDF706FB0548856044600020FFF76AF892
:102C000070BD000048030900490309006401002069
:102C100030B41749174C8874174B1849184A194D86
:102C200000280DD0012816D0022807D120614B6260
:102C300015488A62C86215484D63086330BC704706
:102C4000002020614B6212488A62C86211484D63BD
:102C5000086330BC7047012020614B620E488A62D5
:102C6000C8620E4808630E48486330BC70470000D5
:102C70001C010020001500400050007800170040A3
:102C80004E0000543E420F8208800C60886472003F
:102C900003800C602264720002800C601164660084
:102CA000DEC08F820149488370470000FC0000208D
:102CB00010B5012181F3108808490A78824205D0B5
:102CC0004870487E002805D001F094F8002080F379
:102CD000108810BD01F0C0F8F8E7000030010020B6
:102CE000F0B41849086200210B461826DD000246A0
:102CF000EA40D2B2D407270E9407E40FA4013C4364
:102D00005707FF0F7F0127431407E40F24013C43BB
:102D1000D706FF0FFF003C439706FF0FBF00274376
:102D20005406E40F64003C43D2092243741BA240C2
:102D30005B1C1143DBB2042BD8D30348C161F0BC48
:102D400070470000FC00002000150040F0B4184956
:102D5000486200210B461826DD000246EA40D2B246
:102D6000D407270E9407E40FA4013C435707FF0F35
:102D70007F0127431407E40F24013C43D706FF0FCC
:102D8000FF003C439706FF0FBF0027435406E40FA4
:102D900064003C43D2092243741BA2405B1C1143D4
:102DA000DBB2042BD8D303480162F0BC70470000AB
:102DB000FC00002000150040F8B5082841D2234A45
:102DC0001218203211728207D60EFF22B240D7436A
:102DD0008B07CA07DB0F120E9B0113434A07D20F62
:102DE00052011A430B07DB0F1B019C46CB06DB0F7E
:102DF000DD008B06DB0F9C004B06DB0F5B00C90977
:102E0000042813480ED2406A3840114F7862604659
:102E1000104305432C4323431943786AB1400143CF
:102E20007962F8BD806A3840094FB8626046104345
:102E300005432C4323431943B86AB1400143B962A7
:102E4000F8BD0448FDF7DCF9F8BD0000FC000020E7
:102E5000001500403903090001494861704700002E
:102E6000FC0000200149486070470000FC00002081
:102E7000024908740249C860704700001C01002024
:102E8000001500400149087770470000FC00002051
:102E900070B51248124C4068407D002805D00120D2
:102EA00000F0FEFBA089401CA08100260D493046A1
:102EB0004E610D494A680968551A00F08DFF606936
:102EC000A84202D30948FDF79BF960690122291A3B
:102ED0000748FDF799F9666170BD00004C000020BD
:102EE0003001002000F50140FC0000204D060900E3
:102EF000953D0000F0B5FA48FA4C4069FA4EFB4F98
:102F000087B0002803D1FFF7C5F9002816D0F44D8B
:102F10006868002801D0401E68602878022802D026
:102F20006968002979D0F1682160A978002975D0F5
:102F3000FEF788FEFDF71AFD07B0F0BDE848002552
:102F40000078012802D0022805D009E000F0A0FB9B
:102F5000002805D0B9E1387804287DD003287BD03B
:102F6000FEF770FEDE484168002901D0491E41602D
:102F70000178022902D04168002919D0F168216046
:102F800004468078002815D0FDF7F0FC00F016FC10
:102F9000022870D303266846002406700194048139
:102FA000448144708570C57000F0CCFB07B0F0BD63
:102FB000B168E4E700F050FF002811D000207668E7
:102FC00000F00AFF6069B04202D3C948FDF718F962
:102FD00060690122311AC748FDF716F96561D5E726
:102FE000207800287ED0012819D002287BD0C24842
:102FF000FDF706F9707E0128C8D120780228C5D0D7
:1030000061680029C2D10127BF0700286CD00128C0
:103010006BD0BA48FDF7F4F8B8E77FE180E100F043
:10302000C9F900F0A9FD002826D0708B00287CD0BB
:10303000A189814279D30121002000F0EDFC012714
:1030400000F088FD0590A2890492E289039200F0C5
:1030500087FD69460F7000E037E1059901916946E7
:10306000049A0A81039A4A8148708D70CD7068462F
:1030700000F068FBA7E023E100F0A0FB02287DD36D
:103080002078022802D06068002804D0FEF708FEED
:10309000002832D097E02069FEF71CFE0020FEF7E2
:1030A0002DFE00F019FE002868D0A581E58100F012
:1030B00057FD9349C86200F053FD012181409048BB
:1030C000016300F047FD8F49086000F03DFD8D4928
:1030D00048608D48C860FEF7CDFD8949886000F0E2
:1030E0004BFD03E0BEE09FE0DCE0C6E0012872D0CB
:1030F00000F042FD02285CD058E0307E002828D045
:1031000000F0EAFD00285ED0A581E58100F028FDF1
:103110007B49C86200F024FD0121814078480163A9
:1031200000F018FD7749086000E055E000F00CFD64
:10313000744948607448C860FEF79CFD7049886017
:1031400000F01AFD012865D000F016FD02285FD0BE
:103150002CE0FDF74FFF2169884234D100F0BCFD1F
:10316000002830D0A581E58100F0FAFC6449C862EE
:1031700000F0F6FC01218140614800E023E001639A
:1031800000F0E8FC5F49086000F0DEFC5D49486043
:103190005D48C860FEF76EFD5949886000F0ECFCA0
:1031A000012837D000F0E8FC022831D05748FDF75D
:1031B00027F82DE000F0FAF9FFF708F85449086104
:1031C0007868406848610120376800F005FE606952
:1031D000B84221D34DE01DE0FFF75CF8002802D093
:1031E0004C48FDF70DF8FEF745FD454989688842D2
:1031F00002D0E089401CE081FEF73CFD4049886038
:1032000000F0BAFC012805D000F0B6FC0228CDD1B0
:103210000020CFE70120CDE760690122391A354847
:10322000FCF7F2FF6561E5E600200090FEF722FD65
:1032300033498968884201D1009805E0FEF71AFDFC
:103240002F498860012000903978401E084201D142
:10325000FDF794FA0020776800F0BEFD6069B8427F
:10326000DAD306E00020776800F0B6FD6069B84266
:10327000D2D31F48FCF7C4FFCEE700F07DFC002846
:1032800000D083E600F080FD0028FAD1FEF7A2FF0F
:103290000128F6D0FEF7E8FF307F00280BD101208F
:1032A000786008E0FEF796FF0128EAD0FEF7DCFF21
:1032B000307F0028F3D0002000F08EFD656065E6C9
:1032C0001548FCF79DFF07B0F0BD7068012241086A
:1032D000034841610748FCF797FF07B0F0BD0000C5
:1032E0003001002064010020FC0000204C00002080
:1032F0004D060900953D00005804090072040900BC
:10330000001500404C0100202D0800001E06090099
:1033100000F501400A0509008C040900B16803E6C4
:10332000022809D0FEF78EFC0020746800F054FDDE
:103330006869A04223D31FE03878042829D00328E5
:1033400027D0FEF77FFC0024FEF794FC154FB968E8
:10335000884203D0FEF78EFCB86001241248641E38
:103360000078044201D1FDF709FA0020746800F0EA
:1033700033FD6869A04202D30C48FCF741FF68693D
:103380000122211A0A48FCF73FFF0020686107B0BC
:10339000F0BD70680122410805486961FCF734FFFF
:1033A00007B0F0BD001500404C0000204D0609009C
:1033B000953D0000F8B51C48022707601B494017DF
:1033C00088601B4807601B48002404601A4E346163
:1033D0001A49012008618861194D287801281CD0FC
:1033E00002281ED003281CD00120FCF783FE346184
:1033F00010482C70046000200C49C04388600C48C1
:103400000760F460032068703460346174606C603D
:103410002C750C486C750760F8BD0620FCF76AFE39
:10342000E5E70220E1E7000080E100E00013004052
:1034300080E200E000120040001100400010004057
:103440007001002000E100E0F8B53348354A066914
:103450000327324B0025324C1168012E05D0022E75
:1034600048D03148FCF7CCFEF8BD042606708669CA
:10347000761C86611F602D4E02233360E560256057
:10348000256165602A4B08265E60097D002910D001
:10349000284EB168284F81753868400702D4274804
:1034A000FCF7AEFEE5612649012088610420B86082
:1034B000B5602068002802D02248FCF7A1FEE06831
:1034C000002802D02048FCF79BFE204800688007B7
:1034D00002D51F48FCF794FE124C2068C0680028F3
:1034E00000D080472068417D0029BDD0194900687F
:1034F0004860F8BDE5602561256065601D600023BA
:103500000B4A0570DB439360477045600575086999
:103510000028EED08047F8BD700100200012004066
:103520000011004068000020E7020A0080E200E08D
:10353000001300404015004000F50140AD020A00B4
:1035400000100040B6020A00B7020A0000E200E0E4
:10355000B8020A000015004010B50D4902240860A9
:103560000C4804600D480C4941620D490162FFF7A7
:1035700021FF00210B48032201704270416001616C
:1035800001754175817508480460064810BD00004A
:103590006800002080E100E01410004000F50140C8
:1035A000041100407001002000E100E0F8B505467C
:1035B0002A4900012A4C4718207D002802D02948BA
:1035C000FCF71EFE0026002D2AD0012D28D0022D4A
:1035D00026D02548FCF714FE2448FCF711FE0021F4
:1035E00023486675C9438160224902200860224849
:1035F00065700068032D0168A16040682661A661BE
:10360000E0603A6862601BD21C4B3A7A1A60FB7A1F
:103610001B4A002B08D05060506800280DD109E0EB
:1036200020780028DBD0D7E751605068002804D10B
:10363000144800E01448FCF7E3FD0D48797A416036
:103640000D480068007D002805D0022D03D10F49E8
:10365000A6750420486001206075F8BD983F000001
:1036600070010020DB000A00F9020A00DD000A00F8
:103670000013004080E200E06800002000120040DB
:103680000015004000010A0005010A0000F5014094
:1036900002484068012800D0002070470011004017
:1036A000F8B51E4C074665781D4928014618607D0F
:1036B000012802D01B48FCF7A3FD207D002802D082
:1036C0001948FCF79DFD0120002120756175032D2F
:1036D0000AD2002F01D131680860022D01D0012DDE
:1036E00005D1B07A207002E01048FCF789FD10483F
:1036F0000068007D00280FD0022D0DD10D484068D4
:10370000400702D40C48FCF77BFD0C4840680028B9
:1037100002D10B48FCF774FDF8BD000070010020D9
:10372000983F000021010A0022010A003A010A0024
:103730006800002000F5014040010A00001500402B
:1037400041010A0070B5184D04462868002802D1CE
:103750001648FCF755FD164E70680A2802D3154826
:10376000FCF74EFDE86F0C214843411920780871A1
:1037700060784871A0788871E078C8716068886066
:10378000208988816089C8817068401C7060E86FFA
:10379000401CE867E86F0A2801D30020E867012091
:1037A00005490005086070BD9401002034000B003D
:1037B0001402002035000B0000E200E002484068DF
:1037C0000A21081AC0B270471402002010B5040084
:1037D00002D10748FCF714FD06490C600020C867B9
:1037E000054908604860012004490005086010BDD3
:1037F00029000B00940100201402002000E100E0E9
:10380000084A0221516008490B68002BFCD09060E7
:1038100008680028FCD00020506008680028FCD010
:103820007047000000E5014000E40140820710B548
:10383000920F9043D200FF24944003689140A34329
:10384000CA18074B0121596006490C68002CFCD0AE
:10385000026008680028FCD00020586010BD0000FD
:1038600000E5014000E40140F0B515460E4607466C
:10387000002404E0315D3819FFF7D8FF641CAC4226
:10388000F8D3F0BDFFB55A4885B0C06F03250027B7
:103890000F9E0C46002802D15648FCF7B1FC544854
:1038A0000078032802D05448FCF7AAFC5048C06FA7
:1038B00041785248CA070190002A1ED1807C002816
:1038C0001BD000200090059800286ED0079849076B
:1038D0000002890F000A464B09060843A200D118CE
:1038E000896B00220E9B88421A60326003905ED082
:1038F0003F4FF86F002805D101E00120E2E7404882
:10390000FCF77EFC3A482146C06F08310291FEF771
:10391000ABFB002804D0002035490127C86700E030
:103920000027009838400090002F40D00298810076
:103930002F4809180398886108990F4236D03148FA
:10394000005D002832D02046FEF70AFB002802D195
:103950002D48FCF755FC2046FEF75CFB0290002842
:1039600011D001982546007C002805D02048006928
:10397000A84201D100F062F91D49002049198031A7
:103980000870204948550E99029808600E99002940
:1039900009D0002802D11D48FCF732FC002119484B
:1039A0000225015503E01A48F6E712E001250098C8
:1039B00000280AD02046FEF7ADFB3060002803D077
:1039C00010480121015501E012483060002F01D05C
:1039D00006E00425064CE06FFEF774FA0020E0676D
:1039E00003490020087000F029F9284609B0F0BD0D
:1039F0001C0200205B010C005C010C009C020020FA
:103A00006F020C006C00002091010C0096010C006C
:103A10009A010C0074020020F8B52D4C064620785F
:103A20000D46012804D0022802D02A48FCF7E8FB02
:103A3000002E28D02078012802D02748FCF7E0FB90
:103A4000E068002802D12548FCF7DAFBE06800783E
:103A5000002804D0E06F6668002805D101E0002747
:103A600012E01F48FCF7CCFB31460831E06FFEF74F
:103A7000FBFA002802D00020E06702E01948FCF7BA
:103A8000BFFB022700E00427002D1AD065682846F6
:103A9000FEF7C0FA06000ED01348007C002804D0C0
:103AA0002069A84201D100F0C9F8002061198031D5
:103AB00008700E494855A068B04202D00C48FCF787
:103AC0009FFB0020207000F0B9F83846F8BD0000D8
:103AD0001C020020FC000C0002010C0003010C0081
:103AE0006F020C000E010C009C0200206C000020F4
:103AF0001E010C0010B50830FEF75AF910BD000089
:103B000070B5044609480A4D007C002804D0296994
:103B1000A14201D100F092F8291900208031054A14
:103B2000087010552046FEF743F970BD9C02002036
:103B30001C0200206C00002010B5FEF7C3F910BD78
:103B400010B5FEF707FA10BD0148C06870470000C5
:103B50001C02002001488068704700001C02002001
:103B600001484068704700001C02002010B5083072
:103B7000FEF7F6F910BD000001480078704700001C
:103B80001C02002010B5FEF7EBF910BD70B5FEF772
:103B9000F7F90022144C154E10460106930001431C
:103BA0001B199961134605060146083329439D00F8
:103BB0002D19A961A11880310870E11880310870B1
:103BC000B054521C082AE8D320706060A060E06006
:103BD0002061074960610874064A48741076E067FE
:103BE0000120887470BD00001C0200206C000020C1
:103BF0009C0200205C02002010B50830FEF70AFA93
:103C000010BD70B50E4604460025FEF7A3F9002846
:103C100008D021463046FEF727FA002802D000F0EF
:103C20000DF80125284670BD10B50830FEF772FA70
:103C300010BD10B5FEF78CFA10BD0000F8B50F4CA2
:103C40002078002819D10E4E307C002815D1082587
:103C500001276069FEF784F9002802D03774606993
:103C600020616069401C6061082801D1002060610A
:103C7000307C002801D16D1EEBD1F8BD1C02002064
:103C80009C02002001498874704700009C020020BB
:103C900070B50F4D2878002802D00E48FCF7B0FA16
:103CA000E86F002802D1FEF753FAE86704000CD051
:103CB000FF2020706078062108436070FF222021D9
:103CC000A01CFCF76BFA03202870204670BD000092
:103CD0001C0200203B010C0070B5264C2078002807
:103CE00002D02548FCF78CFA244D0026287C0028B9
:103CF00025D020696060FEF70DFAA060002802D18F
:103D00001F48FCF77DFAA0684078C00705D1A87C61
:103D1000002802D00220E6600FE060680830FEF75D
:103D20001FF903280BD2E06F002802D1FEF710FA2A
:103D3000E067E060002802D00120207002E02078D7
:103D4000002816D0A068002802D10E48FCF758FAC7
:103D50002069606080000119C87EF923401CC87684
:103D6000A26880075178400F1940014351702E74AA
:103D7000012070BD1C020020C3000C009C0200202A
:103D8000C9000C00E7000C000148007C70470000EF
:103D90009C020020044801788170417801708800FD
:103DA00002490858004700007400002078000020F5
:103DB00001480078704700007400002001484078F6
:103DC0007047000074000020024988704870087035
:103DD000704700007400002010B50446022802D38A
:103DE0000248FCF70DFA0248447010BD2A000D008D
:103DF0007400002010B5FEF7EDF9012820D1FFF77F
:103E0000DDFF002802D00F48FCF7FAF900221E213E
:103E10000D48FCF7F9F90D48007F00280ED10C4839
:103E2000012141610B48002202608205116000BF40
:103E300000BF00BF00BF01680029FCD0FEF708FAF0
:103E400010BD00002C060900953D0000FC0000207C
:103E50000005004000010040F0B53B4E83B03078D3
:103E6000717888426DD0002801D1FDF76DFC707823
:103E7000364D002400281CD10320A860FFF77CFEEB
:103E8000012804D0022802D0032812D104E0002126
:103E90000846FFF7C1FD07E0002300941A461946C3
:103EA00018460194FFF7EEFC042802D02848FCF7DE
:103EB000A7F96C61FFF77EFA264D274F2C606C60E6
:103EC0002C61AC60EC603078012802D0022809D067
:103ED0001CE0FFF751FE002815D000210846FFF72F
:103EE0009BFD10E0FFF766FA1C482C610470FFF799
:103EF00043FE032807D1002300941A4619461846AA
:103F00000194FFF7BFFC3078022802D070680028C7
:103F100013D01348F9680160707830700425684642
:103F20000023057001930381438143708470C47042
:103F3000FFF708FC012003B0F0BD0948B968016033
:103F4000EAE7002003B0F0BD3001002000F5014099
:103F5000E80109004C010020FC0000204C0000207A
:103F60006401002011000000120000001300000096
:103F700014000000110000001200000013000000F7
:103F80001400000032536601172D391A440C400DFD
:103F9000490D3E1A2D0C4D0000100040101100403C
:103FA00003100000010000000010004000000000AD
:103FB0000B0204000000000004100040000000009C
:103FC0000708030100000000E83F00000000002097
:103FD00084000000040600006C4000008400002003
:103FE000040C0000140600000000000000000000A7
:103FF00000000000000000000000000000000000C1
:1040000000000000000000000000000000000000B0
:104010000024F40000000000050000000000000083
:104020000000000004192A3F4D00000000000000BD
:104030000000000000000000000000000000000080
:104040000000000000000000000000000000000070
:104050000000000000000000000000000000000060
:0C406000F52E0000912E00000000000072
:04000005000000C136
:00000001FF
