:020000040000FA
:10000000800C0020F50000000F010000110100002D
:1000100000000000000000000000000000000000E0
:1000200000000000000000000000000013010000BC
:100030000000000000000000150100001701000092
:1000400019010000DD020000190100001901000083
:100050001901000000000000190100001901000052
:1000600019010000190100007905000019010000C4
:100070001901000019010000190100001901000018
:100080001901000019010000190100001901000008
:100090009D04000019010000190100001901000071
:1000A000190100001901000000000000000000001C
:1000B0000000000000000000000000000000000040
:1000C0000348854600F07AF800480047D114000044
:1000D000800C0020401E00BF00BF00BF00BF00BF5B
:1000E00000BF00BF00BF00BF00BF00BF00BFF1D115
:1000F000704700000321094802680A43026008486B
:1001000002680A4302600748804707480047FEE745
:10011000FEE7FEE7FEE7FEE7FEE7000024050040FD
:100120005405004025050000C100000030B50B4615
:10013000014600202022012409E00D46D5409D42C1
:1001400005D31D469540491B254695404019154647
:10015000521E002DF1DC30BD03460B439B0703D03C
:1001600009E008C9121F08C0042AFAD203E00B787C
:100170000370401C491C521EF9D27047D2B201E0F4
:100180000270401C491EFBD270470022F6E710B5F2
:1001900013460A4604461946FFF7F0FF204610BDF5
:1001A00030B504460020034600E05B1C934203D2B6
:1001B000E05CCD5C401BF8D030BD0000064C012552
:1001C000064E05E0E36807CC2B430C3C98471034FF
:1001D000B442F7D3FFF778FF003900002039000060
:1001E00010B501F03DFA10BDF7B507460024012017
:1001F0002E490004154688602D4EB078002802D0A4
:100200002C48FFF7EDFF002F02D12B48FFF7E8FF46
:100210007068002802D02948FFF7E2FF284677607F
:100220000127274D002820D0012828D0022824D0DB
:100230002448FFF7D5FF2448B770002101600199D9
:10024000611889B229602E6820494F606D68006886
:10025000002802D01E48FFF7C3FFA64211D3A542D3
:1002600001D3B5421CD31B4818E0184847606C689E
:100270000760154900200860DDE7AC68DBE72C6803
:10028000D9E7B54201D2012000E00020AC4201D8FC
:10029000012100E00021884202D10F48FFF7A0FFB2
:1002A000012002490004486003B0F0BD00A30040F3
:1002B000580000207300040075000400760004005C
:1002C00040A500408900040040A1004040A000403B
:1002D0009B000400B0000400C9000400F8B55F4CA6
:1002E00020696778401C2061607D002802D05C484E
:1002F000FFF776FF204622785A4D00245A495B4E7C
:10030000032A3FD1CA68002A3CD0012F03D0022F14
:100310002FD057489EE007460069032802D0554871
:10032000FFF75EFF02203870B969491CB961524974
:100330000C60C11EA960514908604B48C46004604C
:1003400004614460032179707C603C753268117DE2
:1003500000290AD04A498B68BB75C461494B01200A
:100360009861494B042098608C60D06800283AD18D
:10037000F8BD0069012802D04448FFF731FF02F0C0
:10038000F7FCF8BD032F64D0012F2ED0022FF6D03A
:1003900042783F4B1201D218137B0027002B03D069
:1003A000CB68002B00D00127927A334B02701C607F
:1003B000032A48D00022D243AA60304B02221A609E
:1003C000CC60032242700C600C614C604460047588
:1003D00030680069002800D08047002FD1D03068F5
:1003E00080680028CDD08047F8BD0269012A18D066
:1003F000022AF9D1CC600C610C601F490C60111FFE
:10040000A9600821696003210170446004753068A7
:100410000069002800D08047306880680028E2D159
:10042000F8BD0C604C600021C943A96001216960DE
:100430003168097D002902D0134A04215160154911
:10044000C0684860F8BD0822D243AA6008226A60EA
:10045000B9E71148FFF7C4FEF8BD000068010020AD
:1004600090010A00001300400011004060000020CD
:10047000A9010A009F010A000012004080E200E08A
:10048000401500400010004000F50140A4010A00A2
:10049000D038000000150040D6010A00F8B5204D04
:1004A0002C468034012080F310886068002832D008
:1004B00020680C21484340190279310A090211438E
:1004C0004279FF231B02120299431A401143827999
:1004D0001B02120499431A401143C2790E02360AD4
:1004E00011060E4381688289C08997B200040743D0
:1004F0006068401E60602068401C206020680A28F8
:1005000001D300202060002080F310882B683A4639
:1005100030469847C6E7002080F31088F8BD0000F9
:100520008C01002010B500F027FE002805D00E49F0
:100530000C484860C8130D4988610D48018CC9B248
:1005400001290ED1818C09070BD1018D0906090FF4
:10055000042906D1808D0006000F02D10549012033
:10056000886010BDDFFF07C000050040006C004040
:10057000C00F00F00006004070B5012013490004D0
:100580008860134800250560124C6068002802D17D
:100590001148FFF725FEA5706368104801226560C9
:1005A00042600F484168006895031430A94205D2A3
:1005B0000325AD03A84201D9627005E0814201D351
:1005C000012000E000206070984770BD00A300404B
:1005D00040A1004058000020EC00040040A0004072
:1005E00040A5004030B47446641E2578641CAB42BC
:1005F00000D21D46635D5B00E31830BC184702E083
:1006000008C8121F08C1002AFAD17047704700209D
:1006100001E001C1121F002AFBD17047F0B5494823
:100620008BB003684849494A012B02D04B6B002B21
:1006300005D153681B78202B01D8012300E000234B
:10064000434D03242C700024404A002B146057D0E3
:1006500084688268CA623D4A03A901920091C26817
:1006600001232146184602F08BFD002824D00128E2
:1006700005D0022824D003284FD036484BE00398F9
:10068000002802D03448FFF7ABFD204602F0ECFE14
:10069000002802D13148FFF7A3FD68680222817D5E
:1006A000684600260270019606814681447081707A
:1006B000C67002F0DBFC30E02948FFF791FD2CE02A
:1006C0000398002802D12748FFF78AFD204602F050
:1006D000CBFE002802D12448FFF782FD6868022281
:1006E000817D039E6846027000236A46019613814D
:1006F0005381447001278170C77002F0B7FC0CE091
:1007000000200090034602460146019002F038FDA9
:10071000042802D01548FFF763FD0C4C2068002820
:1007200007D00120607512482061042028700BB0AA
:10073000F0BD02F0D3FA00206075206100F01AF8D5
:100740000BB0F0BD00140040001500404401002033
:1007500044000020C8050900B8050900B9050900D2
:10076000BD050900C0050900C1050900CF05090044
:100770001108000070B502F0B1FA1C4C00251C4EA7
:100780000120256130701B481B490069086302F095
:1007900071FE00281FD002F06DFE032802D017481A
:1007A000FFF71EFD022002F095FB002002F00CFC7A
:1007B00002F060FE032802D01148FFF711FD3078E7
:1007C000012802D00F48FFF70BFD022030700E48C1
:1007D0002561E06070BD02F085FC0228E2D302F0E2
:1007E000D5FE60600028DDD10848D9E7440100202B
:1007F00044000020F400002000150040800509009E
:1008000088050900920509001D0600007B05090006
:1008100010B5034905200870FFF7ACFF10BD0000BC
:1008200044000020F0B5454885B00068012803D099
:100830004348406B002806D1424840680078202891
:1008400001D8012500E000253F4C01266069002801
:1008500004D101F03BFA002800D1666102F00AFEE3
:10086000012802D03948FFF7BBFC39484068007DB9
:10087000002802D03748FFF7B3FC02F02FFA002D12
:1008800057D00121084602F045FD052840D201005D
:100890007944097949188F4402381D3838000027F7
:1008A00002F0D6FD0390A689E58902F0D7FD024645
:1008B000274869464068837D0F7003990191694616
:1008C0000E814D814A7000208B70C870684602F01E
:1008D000CDFB1DE0002702F0BBFD0390A689E58952
:1008E00002F0BCFD02461A4869464068837D0F70DD
:1008F0000399019169460E814D814A7001208B70E8
:10090000C870684602F0B2FB02E01348FFF768FCCB
:1009100000F0DCFE206111481149426962602378D1
:10092000022B01D0002A06D0C0680860002000F029
:1009300001FF05B0F0BD8068F7E70000001400403B
:10094000001500404401002028010020A8060900ED
:1009500044000020A9060900C8060900F400002090
:100960005C01002030B5234D83B0687E00283AD06A
:1009700001F04CF9002401280CD001F091F91E4837
:10098000007F002802D1012081074860002002F08A
:10099000A1FE6C6002F0A2F9AC706C76052168468D
:1009A000017001940481448144708470C47002F029
:1009B0005DFB1248124904700320886002F05AFD62
:1009C000012812D0022810D003280CD10023009453
:1009D0001A4619461846019402F0D2FB042802D0A8
:1009E0000848FFF7FDFB03B030BD0021084602F0C8
:1009F00091FCF3E728010020F400002044000020CF
:100A000000F50140E801090010B501F0C1F901F05D
:100A10000FFB0028FBD110BD10B50024204601F0CB
:100A20000FFA641C082CF9DB10BD10B501F036FA82
:100A3000012804D0FFF7E8FF012001F06BFB01F073
:100A4000F7FA002801D101F0AFF910BD10B5400050
:100A500001F00CFB10BD10B50024204601F000FA97
:100A6000641C082CF9DB10BD10B503220149FFF707
:100A700073FB10BDBC380000F0B50746204889B0B4
:100A8000007815460E46002813D0012814D00228FD
:100A900034D110221B4904A8FFF75EFB1A490D222E
:100AA00004A8FFF759FB0020154B6C465B1C02465F
:100AB0000DE010221349F3E71022124904A8FFF7B2
:100AC0004BFB04A800F094F8EDE7052802D2195C6E
:100AD000215400E02254401CC0B21028F5D300F08D
:100AE00067FE04A800F076FE6946084600F036FE70
:100AF0002B466A463146384600F02EFB09B0F0BD61
:100B00000C000020BF380000CC0000200149087014
:100B1000704700000C00002010B501460D2202486D
:100B2000FFF71AFB10BD0000CC00002010B50146F5
:100B300005220248FFF710FB10BD00000D00002049
:100B400070B5094C0D46E278002A0AD00749FFF734
:100B500003FB002D01D0E07828700020E070012018
:100B600070BD002070BD000012000020D9000020E0
:100B70000248C078002800D00120704712000020F1
:100B8000F7B5064682B0144611464E20FFF7CEFA5E
:100B900000900220307030194F212038C17703981F
:100BA000002811D00125671E0CE0A9070398890FC2
:100BB000405C0099FFF7BAFA00986843081870552E
:100BC0006D1CEDB2BD42F0DB012105230CE0701875
:100BD0002038725CC07F101AC0B2052802D2181AE1
:100BE00010187054491CC9B2A142F0D305B0F0BD31
:100BF00010B505220149FFF7AFFA10BD0110000042
:100C000010B505220149FFF7A7FA10BD1A00002010
:100C1000F8B5012705463F03B8790E46FF2813D1E2
:100C20000021B81D02F080FA00240BE00121684683
:100C300000F00EFA684601780948201802F074FAAC
:100C4000641CE4B2B442F1D3002005E0C119C979B3
:100C5000401C2970C0B26D1CB042F7D3F8BD000033
:100C60000710000030B58BB0202000243F4D0A90C3
:100C7000AC70204601F028F9002805DD0AAA02A977
:100C8000002001F0A1F80446E87820430AD10120B1
:100C900001F01AF9002805DD0AAA02A9012001F0D5
:100CA00093F80446002C40D06846007A0300FFF712
:100CB00099FC07053C090D1125373C0002A800F0FE
:100CC000B5F832E002A800F08DF92EE002A800F09D
:100CD0004FF92AE069460A2008700C46481CFFF7C5
:100CE0008FFF00F051F8002802D1601CFFF71EFFB3
:100CF00001220621684600F089F816E002AC0120C6
:100D0000FFF704FF1022611C601CFFF7B5FE601C9A
:100D100000F014FA002808D0201DFFF7FDFE04E0C3
:100D20000A98C1B202A800F0E3F801F081F90028A6
:100D30000CD1FFF78BFE6878002805D001F0D2F8BF
:100D40000121084301F000FAFFF76FFE0749002078
:100D500008310A5C521C1206120E0A5403D1401CC0
:100D6000C0B20528F5D30BB030BD00001200002042
:100D700000B500F009F8002802D0024902200870EE
:100D800000BD00001200002002480078002800D0BA
:100D9000012070471200002008B504216846FFF7C3
:100DA00037FF684600F070F901F09CF80221084313
:100DB00001F0CAF904490020487088700870C870B2
:100DC000FFF744FE08BD00001200002070B50E4D74
:100DD00004466878A04215D0FFF716FE002C06D016
:100DE00001F080F80121084301F0AEF907E001F0BD
:100DF00079F84008400001F0A7F9002028706C70D5
:100E0000FFF713FE70BD00001200002070B51646FB
:100E10000C460546FFF7F8FDFFF71DFE2246294662
:100E2000304600F059FFFFF700FE70BDFEB50546E5
:100E3000202002902D4E0020B070FFF7E5FD01F05C
:100E400051F8C4B2311D0220085E4021C84244DB83
:100E5000002001F079F99620FFF7F8FDFFF7DCFD9F
:100E6000FFF7E3FD01F0E4F80028FBD10820694614
:100E7000087000A804210130FFF7CAFE0522694668
:100E8000002000F029FFFF205F30FFF7DFFD012089
:100E900001F05AF9FFF7C9FD01270DE0002001F02C
:100EA00013F8002808D002AA2946002000F08CFF81
:100EB0002878012800D1B77001F0BAF80028EDD1E8
:100EC000FFF7C9FDFFF7A8FD0020FFF7BFFD204693
:100ED00001F03AF9FFF7A9FDFEBD6008400001F0FE
:100EE00033F9FF20F530FFF7B1FDF3E712000020E2
:100EF0003EB50D460446FFF747FF002801D000200D
:100F000000E00220FFF702FE681EC2B2611C601CF6
:100F1000FFF7B2FD601C00F011F9002807D02D1F6B
:100F20001148EAB2C270211D1048FFF715F9694651
:100F30000B2008700C46881DFFF796FD0322A11DAB
:100F4000A01DFFF799FD601CFFF75AFEFFF71CFF7D
:100F5000002802D1601CFFF7E9FD01220921684643
:100F6000FFF754FF3EBD000012000020D900002012
:100F7000FEB50446FFF708FF002826D00020FFF743
:100F8000C5FD0322611C601CFFF776FD601C00F0AC
:100F9000D5F8002819D0124C002520786E4602287A
:100FA00014D0032818D035710920694608703446DA
:100FB000701CFFF759FD0922611C601CFFF75CFDE6
:100FC00001220A216846FFF721FFFEBD0120307192
:100FD000701DFFF70DFE01E0022030712570E3E780
:100FE000120000207CB5194D0446687800282BD0EB
:100FF000FFF7CAFE002804D1601CFFF797FD01200F
:1010000028706846FFF7F4FD00216846425CFF2A1D
:1010100002D1491C0529F9DB052915D1FFF7F0FD9F
:1010200069460523621C084600F096F80124240353
:1010300020786946FF2807D10522601C02F092F84B
:101040000021204602F070F87CBD00001200002054
:10105000F0B50A4B00271F60094D01242C603A4669
:1010600008E01E68002EFCD0064EB66886541F604D
:10107000521CD2B28A42F4D36C60F0BD00D1004061
:1010800000D0004000D50040F0B585B0054600F026
:10109000CFFF294C0646002D4BD0697828780902ED
:1010A0004018A978EA78090412068918471801F04F
:1010B0006BF8204600F0E6FF00280CD0002108461F
:1010C00000F0BEFF002806D0384600F0EBFF0028F5
:1010D00001D0012403E0012409E0002F07D02146BC
:1010E000084600F0ADFF002801D0012700E00027EE
:1010F000641CE4B2082CF0D300F0CAFE0446C2B26D
:1011000029466846FFF73CFD002F0FD02146684670
:1011100000F0D8FF002809D00120002E04D000F0F4
:1011200043FE002805D0012005B0F0BD0020002EB0
:10113000FAD00020F8E700000406080A10B50322E0
:101140000449FFF72DF8002801D0002010BD012030
:1011500010BD0000BC38000070B5002408E00D7818
:101160001678641C75400570401C491CE4B2521C82
:101170009C42F4D370BD00001048018CC9B2012913
:1011800017D1818C090714D1018D09060A0F03D1EB
:10119000828D1206120F0ED0090F012903D1828D04
:1011A0001206120F07D0032903D1808D0006000F0D
:1011B00001D000207047012070470000C00F00F0F0
:1011C000F8B5AA4D002068610326AE60A849C8633F
:1011D0000120C863A74C6069891588436061606914
:1011E00000090001801D606160690F2109048843C6
:1011F000310440186061A069012149068843A0615B
:10120000A06949100843A061A069000A00022030CB
:10121000A061A069FF2109028843A06196490220CC
:10122000086000F0EBFCE8619448A8616E609448A7
:1012300001F026FE934948609348A269417F072345
:101240001B049A4309040A43A2610021036A0A4667
:101250001827D6001846F040C0B28507C407ED0F26
:10126000240EAD0125434407E40F64012C43050718
:10127000ED0F2D012543C406E40FE4002C43850641
:10128000ED0FAD0025434406E40F64002C43C00974
:101290002043BC1BA040521C0143D2B2042AD8D325
:1012A0007448C16178480021436A0A46D60018464E
:1012B000F040C0B2C407250E8407E40FA4012C43FC
:1012C0004507ED0F6D0125430407E40F24012C436E
:1012D000C506ED0FED0025438406E40FA4002C4362
:1012E0004506ED0F6D002543C0092843BC1BA040F7
:1012F000521C0143D2B2042AD8D35E4D2962624EF9
:10130000002430192030007A082C4ED2A107C90ED3
:10131000FF228A40D243042C23D26B6A13406B62B3
:10132000C207130E8207D20F92011A434307DB0F45
:101330005B0113430207D20F12011A43C306DB0FEE
:10134000DB0013438206D20F92001A434306DB0FE1
:101350005B001343C00918438840696A0843686208
:1013600026E0AB6A1340AB628307C207DB0F120EA5
:101370009F0117434207D20F53010207D20F3B438D
:1013800012011A43C306DB0FDB0013438206D20FA0
:1013900097004206D20F52001F433A43C009104340
:1013A0008840A96A0843A86202E03848FEF718FF9F
:1013B000641C082CA5DB364C207CE860607C696BE3
:1013C000090A0902696300281CD001281DD00228DF
:1013D00025D003282BD02F48FEF702FFA07C2E4BF0
:1013E0002E492F4C2F4A00282AD0012832D002281B
:1013F00007D128618C622C484B62C8622B484A6333
:101400000863F8BD686B6863E8E7686B012108430F
:101410006863FF20E863FF200830A863DEE7686B9D
:101420000221084368632248E863224806E0686BAB
:101430000321084368632048E8630020A863CDE7E0
:10144000002028618C621D484B62C8621C484A63B8
:101450000863F8BD012028618C621A484B62C8629B
:101460001948086319484863F8BD000000F50140B9
:10147000C01F00400015004080E200E00411004061
:101480004401002044000020F4000020390309003A
:1014900014010020C203090000500078001700402A
:1014A0004E0000543E420F8208800C608864720037
:1014B000FFFF000021100100FFFFFF0003800C6010
:1014C0002264720002800C6011646600DEC08F82AC
:1014D000244A8CB007CA08AB07C30020224C08ABD3
:1014E000032281005958890009190A60401C032809
:1014F000F7D3012000F008FDFF20F93000F034FEA2
:10150000FFF74AFC00F0EEFC0421084300F01CFE4B
:101510000120FFF75BFC00F047FC2024FFF7A2FB53
:10152000FFF732FC002801D0FFF722FC02200B94C9
:1015300000F0CAFC002805D00BAA6946022000F082
:1015400043FC07E0FFF714FB0028E7D00BA968462F
:10155000FFF7F6FA0028E1D06846007802F0C8F8F4
:10156000DCE70000A438000000070050F8B50304D1
:101570001B0E0E460093C3B2010E0002001600249B
:10158000170C404295B2062B5BD21A007A441279AE
:1015900092189744021427423F3C002900D00121B1
:1015A0000C4629043D46000405430C43304600F038
:1015B00073FE2A462146009800F0E9FBF8BD234857
:1015C0008068407E002802D12148FEF709FE30469F
:1015D00000F062FE2146280401433A46009800F0DC
:1015E000D5FBF8BD002900D001210C4600040443BE
:1015F000002907D0002E02D11648FEF7F1FD304633
:1016000000F04AFE2146009800F070FCF8BD00F0A2
:10161000CAFBF8BD00F012FDF8BD0F484168491C37
:10162000416001780029F7D08168002902D0491E65
:101630008160F8BD00F018FF0028E8D100F0B2FD8D
:10164000F8BD0648FEF7CCFDF8BD000024000020E0
:10165000B5030500C3030500E8000020E30305000F
:1016600002490F220A70C860704700002400002061
:1016700009480A4A4168491C416012681368994246
:1016800008D3002343600168491C016052689142FD
:1016900000D3036070470000500000204C00002081
:1016A00070B5084D064C296820684968884202D305
:1016B0000548FEF795FD286821688068405C70BD8C
:1016C000500000204C000020B200010001480068DA
:1016D000704700005000002001484068704700003B
:1016E0005000002010B5040002D10548FEF778FD37
:1016F00004480021046004480160416010BD0000FE
:101700002A0001004C0000205000002010B50446C3
:10171000054800684068A04202D80448FEF760FD12
:101720000348046010BD00004C000020B900010017
:101730005000002010B50446054800680068A0422B
:1017400002D80448FEF74CFD0348446010BD000079
:101750004C000020C50001005000002070B5114D64
:101760000646012468682406814202D01022FEF752
:10177000F3FC0D49002008600C4B01221A6001E0C7
:10178000641E0CD00A68002AFAD00860A9688E424C
:1017900003D010223046FEF7DFFC012070BD002090
:1017A00070BD00000000002000E1004000E00040AB
:1017B000054906480A46103206C010320260044845
:1017C00041600120704700007C00002000000020E4
:1017D00000E50040014610B5024810220068FEF7FF
:1017E000BBFC10BD00000020F0B583B005461028FA
:1017F00002D33548FEF7F4FC28460C214843334910
:101800004018019068002E18314830180090102DB3
:1018100002D33048FEF7E4FC2D49885D002851D002
:101820000098019A83789B00D4588278521C827069
:101830008278801C032A01D300220270885D401E3A
:101840008855002C3ED02448844202D12348FEF71C
:10185000C7FC234F3868062802D32248FEF7C0FC95
:101860001F490020096800290CD91F4A8300D3585A
:10187000A34203D11D48FEF7B3FC0EE0401CC0B2EA
:101880008842F3D31A48002122224A431318A34264
:1018900006D0491CC9B20629F6D31648FEF7A0FCAB
:1018A0000F48114F0068800039580B48814202D020
:1018B0001148FEF795FC0A4801688A00BC50491C93
:1018C0000160A4E703B0F0BDD7000300D8020020F8
:1018D000A8020020A6000300ADDEADDEDB000300A1
:1018E000780000208500030098030020F600030024
:1018F000B0030020860003008800030070B51B4C75
:1019000005462068062802D31948FEF769FC2168BD
:101910000020184E00290BD98200B258AA4203D1E8
:101920001548FEF75DFC0EE0401CC0B28842F3D3C0
:101930001248002122224A431318AB4206D0491C08
:10194000C9B20629F6D30E48FEF74AFC20680D49B5
:1019500080003058884202D00B48FEF741FC2068D6
:1019600081007550401C206070BD00007800002090
:101970008500030098030020F6000300B003002058
:1019800086000300ADDEADDE88000300014800687C
:10199000704700007800002010B50446102802D3DC
:1019A0000348FEF71DFC600002492018085C10BDCA
:1019B000C8000300A802002070B400201F4A01469E
:1019C0004300C3189C186170A170D154401C1028AA
:1019D000F6D300211A4D1B4BDE240A462220424337
:1019E0008E0050199851AC5444708470C4700471C6
:1019F00044718471C471047244728472C472047339
:101A000044738473C473047444748474C474047518
:101A100044758475C475047644768476C4760477F8
:101A200044778477C47720300470491C44700629B9
:101A3000D3D305490620086070BC7047A802002077
:101A4000B0030020980300207800002070B5002526
:101A50000446102802D30F48FEF7C2FB60000E496F
:101A60002218885C002813D00C2044430B4823180C
:101A700050188478A4001D598478641C847084787C
:101A8000801C032C01D300230370885C401E885403
:101A9000284670BDA6000300A8020020D80200203E
:101AA000F8B50D460446102902D32048FEF798FBEE
:101AB0001F4900200968064600290CD91D4A8300E9
:101AC000D358A34203D11C48FEF78AFB0EE0401C0A
:101AD000C0B28842F3D319480022222151430B1887
:101AE000A34206D0521CD2B2062AF6D31448FEF7FF
:101AF00077FB6800134A2918505C032814D20C2085
:101B0000454311482B1888184578AD005C5144783E
:101B1000641C44704478401C032C00D30670505C55
:101B2000401C50540120F8BD0020F8BD8F00030078
:101B30007800002098030020F6000300B003002086
:101B400090000300A8020020D802002010B504462F
:101B5000102802D30948FEF743FB6000211808480B
:101B6000425C002A08D00C225443064AA2180818E6
:101B700080788000105810BD002010BDB700030011
:101B8000A8020020D802002070B5164900240A6877
:101B9000002A25D09000144B144DC0188038C46F13
:101BA000521EC5670A600021002A0BD988001D5803
:101BB000A54203D10E48FEF713FB0EE0491CC9B243
:101BC0009142F3D30B48002122224A431318A34227
:101BD00006D0491CC9B20629F6D30748FEF700FB18
:101BE000204670BD7800002098030020ADDEADDEF9
:101BF000F6000300B00300207D000300004870479A
:101C000048A000400048704740A1004001480078CB
:101C1000704700005800002070B51148012545604C
:101C2000C560104E0024B4600F4845600F484068FE
:101C3000002802D00E48FEF7D3FA00200D49C04319
:101C400088600D480460042030610C4844600570D1
:101C50004470847008150A4908600A49086070BD1C
:101C600000A0004000A5004040A0004040A500406A
:101C70003500040000A3004040A1004058000020AF
:101C800080E200E000E100E0034901200860034930
:101C9000002008707047000000A00040580000209D
:101CA00010B4074801214160C16000220548064C7C
:101CB000426042708B0223608270017010BC7047DA
:101CC00000A000405800002080E200E00148407879
:101CD0007047000058000020F7B52A4D1646074609
:101CE000082804D304202870002003B0F0BD019818
:101CF000002806D0202E09D906202870002003B025
:101D0000F0BD03202870002003B0F0BD384600F07D
:101D1000E1FA032804D309202870002003B0F0BDA5
:101D2000384600F0CDFA032804D30A20287000209A
:101D300003B0F0BD00F0BAFA022804D208202870DF
:101D4000002003B0F0BD00F0C3FB044606704078ED
:101D50000121084360703246A01C0199FEF7FCF98E
:101D6000F8B2214600F094FB002802D0012003B015
:101D7000F0BD0548FEF734FA0F202870002003B0AC
:101D8000F0BD000024000020DD0005007047704712
:101D900010B500F069FB002802D000F004F810BD77
:101DA00000F000FA10BD704706488168002903D191
:101DB000022101700020704710B500F009FA0120DF
:101DC00010BD000024000020F8B516460F4604465A
:101DD00000F076FA184D00280CD0002F0ED02046C7
:101DE00000F072FB0078316881420BD20620287027
:101DF0000020F8BD0B2028700020F8BD03202870BB
:101E00000020F8BD204600F039FB04000CD0A01CD7
:101E10000AD02278A11C38463260FEF79DF9204690
:101E200000F03AFA0120F8BD0448FEF7D9F90F2076
:101E300028700020F8BD00002400002005010500E6
:101E400010B5082804D3054904200870002010BDEF
:101E5000C0B200F0FDF9012010BD000024000020F8
:101E600010B50A498A68527E002A03D00C200870F7
:101E7000002010BD082803D304200870002010BDE6
:101E8000C0B200F0EFF9012010BD000024000020D6
:101E900001484068704700002400002010B500F0A1
:101EA00009FA002808D0012808D0022808D00548DF
:101EB000FEF796F9022010BD022010BD002010BDD3
:101EC000012010BD7001050010B5082804D3044995
:101ED00004200870401F10BD00F0F2F910BD000092
:101EE0002400002010B500F0EFF910BD03B5002864
:101EF00006D104496846808888806846C088C880C2
:101F00000CBD000012000020F1B5454D82B0002448
:101F10002C704448EC60046044608460424800F0E7
:101F2000DDF9A8600125002874D03D4F407E3F496F
:101F300002267A68012817D0102A17D8100015D069
:101F40000846FEF709F93948796800F0E1FA0120FE
:101F50000090029800280DD001280FD002280FD041
:101F60000520387000200FE03E7001E00720387037
:101F70000020EDE7012000F02FFB04E0022000E04C
:101F8000002000F029FB0120009908400090042067
:101F900000F0A8FA224900208968497E002903D070
:101FA0001F482746067002E000F0ACFA2F461C4995
:101FB000009889680740497E0020002903D018480E
:101FC0000670204602E000F0E7FB28460740144870
:101FD0008068407E002803D011480670204603E048
:101FE000012000F0AFFA28460D4907408A6800201A
:101FF000527E002A01D00E7002E000F0D7FB2C4682
:102000003C40012000F012F9002C03D0012003B065
:10201000F0BDFFE702480570002003B0F0BD0000EE
:1020200024000020E80000206D150000340000208E
:1020300001488068407E70472400002070470000FF
:1020400010B5094A93685B7E002B03D00220107004
:10205000002010BD082803D304201070002010BDFC
:1020600000F03EFB012010BD2400002000220449A6
:1020700000280A7002D088600120087070470000B4
:10208000E800002010B506498A68527E002A03D075
:1020900002200870002010BD00F0B6FA012010BD2B
:1020A0002400002010B506498A68527E002A03D019
:1020B00002200870002010BD00F0DCFA012010BDE5
:1020C0002400002010B5114CA268527E012A11D0C4
:1020D000102913D8002911D0002813D00A466160B6
:1020E00001460B48FEF738F80948616800F010FA1D
:1020F000012010BD02202070002010BD072020709C
:10210000002010BD03202070002010BD24000020FE
:102110003400002010B5002808D001280AD0022879
:102120000AD0084905200870002010BD012000F0E9
:1021300053FA04E0022000E0002000F04DFA0120F4
:1021400010BD00002400002010B506498A68527EA8
:10215000002A03D002200870002010BD00F010FB00
:10216000012010BD2400002010B506498A68527E67
:10217000002A03D002200870002010BD00F006FBEA
:10218000012010BD2400002010B5FFF751FF0028EA
:1021900006D0FFF7FDFD30BFFFF74AFF0028FBD157
:1021A00010BD000010B5012080F310880748417E63
:1021B000002906D08178002903D10121817001F026
:1021C000B9FA002080F3108810BD0000280100201B
:1021D00070B5114C607E00281CD1FEF7F1FF0F4D49
:1021E000A868002802D10E48FDF7FAFF68680028A9
:1021F00002D10C48FDF7F4FF01F058FA002802D094
:102200000948FDF7EDFF002001F064FA0120607637
:1022100001F090FA70BD0000280100205C01002050
:102220005E0209005F0209006602090010B504465B
:1022300004484068002802D10348FDF7D1FF034855
:10224000047510BD44000020F6030900440100207D
:1022500010B5012181F3108801F0CAF8002080F345
:10226000108810BD10B50446012181F3108808497B
:102270000878002805D0487E002802D00548FDF7E0
:10228000AFFF204601F0BAF8002080F3108810BD9F
:1022900028010020FA02090010B5012181F31088FD
:1022A00001F0C8F8002080F3108810BD10B501F0CF
:1022B000C5F810BD014800787047000028010020D3
:1022C00010B501F0D1F810BD014800697047000059
:1022D000F400002010B501F0D3F810BDF8B50646A3
:1022E000012080F31088544C00256070032020707A
:1022F000A5706560A560A581E5812561656125768C
:102300004E486576056045608560C5600561057568
:102310004B4F1830BD604560FFF77EFC304600F043
:10232000E9FE01F0B1F8002001F0CCF93846FFF7E2
:10233000D9F9454A43491068FF2633049843106091
:1023400008681A1290430860404801684022B1436F
:1023500011430160012080F310882178012905D004
:102360006070607E00285ED001F0E4F9002080F308
:1023700010883046364E042230617277354830621C
:1023800035487062354801210172022141720323F0
:102390008372C2720522027306224273072282737D
:1023A0000822C27305744174012282741E20706178
:1023B0004B20C000F16070602278022A02D0606871
:1023C000002833D039600F20B060022A02D0626842
:1023D000002A2ED03960002070830120307670767C
:1023E0000020307701F0CCF8692030606078012857
:1023F00002D01B48FDF7F4FE01202070A570656037
:10240000A560A581E5812561656125766576FEF784
:10241000D7FE01211348890201608902016085F31A
:1024200010880548F8BD01F0B7F99FE7B06838603B
:10243000C9E73860CFE700002801002044010020F0
:102440005C01002000E400E008E400E014E400E0A7
:10245000F400002004070A0D05080B0E14010020EB
:102460003C02090080E200E00348407E002801D0E1
:1024700000207047012070472801002010B501217D
:1024800081F3108801F036F8002181F3108810BD27
:1024900010B5012282F3108801F031F800280DD028
:1024A00008488178002904D1407E002801D001F03D
:1024B00041F9002080F31088012010BD002080F336
:1024C000108810BD2801002010B501F02BF810BDB8
:1024D00010B5012080F3108801F029F8002181F364
:1024E000108810BD0549487705498A6907231B04F0
:1024F0009A43000402438A6170470000F400002000
:10250000001500400149087670470000F4000020E3
:1025100070B50C00054602D10748FDF761FE002D9D
:1025200002D10648FDF75CFE054885604460002046
:10253000FFF7ECF870BD00004803090049030900EB
:102540005C01002030B41749174C8874174B1849A8
:10255000184A194D00280DD0012816D0022807D19D
:1025600020614B6215488A62C86215484D63086352
:1025700030BC7047002020614B6212488A62C862FA
:1025800011484D63086330BC7047012020614B62E5
:102590000E488A62C8620E4808630E48486330BC21
:1025A0007047000014010020001500400050007822
:1025B000001700404E0000543E420F8208800C601D
:1025C0008864720003800C602264720002800C60D8
:1025D00011646600DEC08F8210B5012181F310887E
:1025E00008490A78824205D04870487E002805D004
:1025F00001F0A0F8002080F3108810BD01F0CCF8A5
:10260000F8E7000028010020F0B418490862002112
:102610000B461826DD000246EA40D2B2D407270E48
:102620009407E40FA4013C435707FF0F7F012743A2
:102630001407E40F24013C43D706FF0FFF003C437F
:102640009706FF0FBF0027435406E40F64003C4386
:10265000D2092243741BA2405B1C1143DBB2042B42
:10266000D8D30348C161F0BC70470000F4000020DB
:1026700000150040F0B41849486200210B461826A6
:10268000DD000246EA40D2B2D407270E9407E40FD9
:10269000A4013C435707FF0F7F0127431407E40FB2
:1026A00024013C43D706FF0FFF003C439706FF0F72
:1026B000BF0027435406E40F64003C43D209224381
:1026C000741BA2405B1C1143DBB2042BD8D303481C
:1026D0000162F0BC70470000F400002000150040CB
:1026E000F8B5082841D2234A121820321172820705
:1026F000D60EFF22B240D7438B07CA07DB0F120E5C
:102700009B0113434A07D20F52011A430B07DB0FF9
:102710001B019C46CB06DB0FDD008B06DB0F9C000C
:102720004B06DB0F5B00C909042813480ED2406A30
:102730003840114F78626046104305432C432343D1
:102740001943786AB14001437962F8BD806A384024
:10275000094FB8626046104305432C432343194395
:10276000B86AB1400143B962F8BD0448FDF738FDCD
:10277000F8BD0000F40000200015004039030900F6
:102780000149086170470000F400002001494860D9
:1027900070470000F4000020024908740249C86034
:1027A000704700001401002000150040014908771F
:1027B00070470000F400002070B51248124C4068C9
:1027C000407D002805D0012000F0FEFBA089401CC0
:1027D000A08100260D4930464E610D494A680968BE
:1027E000551A00F077FF6069A84202D30948FDF747
:1027F000F7FC60690122291A0748FDF7F5FC6661BC
:1028000070BD0000440000202801002000F50140B8
:10281000F40000204D06090091360000F0B5FA489A
:10282000FA4C4069FA4EFB4F87B0002803D1FFF7FE
:102830004DFA002816D0F44D6868002801D0401EDB
:1028400068602878022802D06968002979D0F16888
:102850002160A978002975D0FEF70AFFFEF782F8FB
:1028600007B0F0BDE84800250078012802D0022812
:1028700005D009E000F0A0FB002805D0B9E13878C8
:1028800004287DD003287BD0FEF7F2FEDE484168A5
:10289000002901D0491E41600178022902D0416817
:1028A000002919D0F168216004468078002815D0ED
:1028B000FEF758F800F016FC022870D3032668468D
:1028C0000024067001940481448144708570C570B1
:1028D00000F0CCFB07B0F0BDB168E4E700F05CFFAE
:1028E000002811D00020766800F0F4FE6069B04244
:1028F00002D3C948FDF774FC60690122311AC74848
:10290000FDF772FC6561D5E7207800287ED00128AC
:1029100019D002287BD0C248FDF762FC707E0128E6
:10292000C8D120780228C5D061680029C2D101270A
:10293000BF0700286CD001286BD0BA48FDF750FCC7
:10294000B8E77FE180E100F0C9F900F093FD0028CD
:1029500026D0708B00287CD0A189814279D30121B7
:10296000002000F0D7FC012700F072FD0590A2893D
:102970000492E289039200F071FD69460F7000E055
:1029800037E1059901916946049A0A81039A4A81BF
:1029900048708D70CD70684600F068FBA7E023E1B9
:1029A00000F0A0FB02287DD32078022802D06068C6
:1029B000002804D0FEF790FE002832D097E020696E
:1029C000FEF7A4FE0020FEF7B5FE00F003FE00288F
:1029D00068D0A581E58100F041FD9349C86200F00F
:1029E0003DFD012181409048016300F031FD8F4998
:1029F000086000F027FD8D4948608D48C860FEF7EB
:102A00004FFE8949886000F035FD03E0BEE09FE09D
:102A1000DCE0C6E0012872D000F02CFD02285CD07A
:102A200058E0307E002828D000F0D4FD00285ED089
:102A3000A581E58100F012FD7B49C86200F00EFD22
:102A4000012181407848016300F002FD7749086068
:102A500000E055E000F0F6FC744948607448C86036
:102A6000FEF71EFE7049886000F004FD012865D065
:102A700000F000FD02285FD02CE0FEF727FE216960
:102A8000884234D100F0A6FD002830D0A581E58130
:102A900000F0E4FC6449C86200F0E0FC01218140E0
:102AA000614800E023E0016300F0D2FC5F49086068
:102AB00000F0C8FC5D4948605D48C860FEF7F0FD65
:102AC0005949886000F0D6FC012837D000F0D2FCCC
:102AD000022831D05748FDF783FB2DE000F0FAF9CA
:102AE000FFF790F854490861786840684861012010
:102AF000376800F0EFFD6069B84221D34DE01DE07A
:102B0000FFF7E4F8002802D04C48FDF769FBFEF718
:102B1000C7FD45498968884202D0E089401CE081B0
:102B2000FEF7BEFD4049886000F0A4FC012805D0F6
:102B300000F0A0FC0228CDD10020CFE70120CDE796
:102B400060690122391A3548FDF74EFB6561E5E6FB
:102B500000200090FEF7A4FD33498968884201D126
:102B6000009805E0FEF79CFD2F4988600120009049
:102B70003978401E084201D1FDF7FCFD002077683E
:102B800000F0A8FD6069B842DAD306E0002077685B
:102B900000F0A0FD6069B842D2D31F48FDF720FBCA
:102BA000CEE700F067FC002800D083E600F06AFD65
:102BB0000028FAD1FFF72AF80128F6D0FFF770F8BD
:102BC000307F00280BD10120786008E0FFF71EF865
:102BD0000128EAD0FFF764F8307F0028F3D0002006
:102BE00000F078FD656065E61548FDF7F9FA07B075
:102BF000F0BD706801224108034841610748FDF7B4
:102C0000F3FA07B0F0BD0000280100205C010020AD
:102C1000F4000020440000204D0609009136000019
:102C20005804090072040900001500404401002006
:102C3000250800001E06090000F501400A050900EC
:102C40008C040900B16803E6022809D0FEF710FDE4
:102C50000020746800F03EFD6869A04223D31FE0A5
:102C60003878042829D0032827D0FEF701FD002456
:102C7000FEF716FD154FB968884203D0FEF710FD28
:102C8000B86001241248641E0078044201D1FDF7A7
:102C900071FD0020746800F01DFD6869A04202D338
:102CA0000C48FDF79DFA68690122211A0A48FDF7D0
:102CB0009BFA0020686107B0F0BD706801224108EE
:102CC00005486961FDF790FA07B0F0BD00150040B6
:102CD000440000204D06090091360000F8B51C485C
:102CE000022707601B49401788601B4807601B4884
:102CF000002404601A4E34611A4901200861886179
:102D0000194D287801281CD002281ED003281CD079
:102D10000120FDF7DFF9346110482C7004600020B9
:102D20000C49C04388600C480760F4600320687059
:102D30003460346174606C602C750C486C7507608D
:102D4000F8BD0620FDF7C6F9E5E70220E1E700003F
:102D500080E100E00013004080E200E0001200404B
:102D600000110040001000406801002000E100E078
:102D7000F8B53348354A06690327324B0025324CF3
:102D80001168012E05D0022E48D03148FDF728FAEF
:102D9000F8BD042606708669761C86611F602D4E7C
:102DA00002233360E5602560256165602A4B0826B3
:102DB0005E60097D002910D0284EB168284F8175CA
:102DC0003868400702D42748FDF70AFAE56126492A
:102DD000012088610420B860B5602068002802D016
:102DE0002248FDF7FDF9E068002802D02048FDF7F1
:102DF000F7F920480068800702D51F48FDF7F0F971
:102E0000124C2068C068002800D080472068417DAF
:102E10000029BDD0194900684860F8BDE56025610A
:102E2000256065601D6000230B4A0570DB439360DD
:102E300047704560057508690028EED08047F8BDE9
:102E400068010020001200400011004060000020D6
:102E5000E7020A0080E200E0001300404015004055
:102E600000F50140AD020A0000100040B6020A0061
:102E7000B7020A0000E200E0B8020A0000150040B4
:102E800010B50D49022408600C4804600D480C4937
:102E900041620D490162FFF721FF00210B48032227
:102EA000017042704160016101754175817508488A
:102EB0000460064810BD00006000002080E100E0D2
:102EC0001410004000F5014004110040680100208A
:102ED00000E100E0F8B505462A4900012A4C4718F0
:102EE000207D002802D02948FDF77AF90026002D20
:102EF0002AD0012D28D0022D26D02548FDF770F9C3
:102F00002448FDF76DF9002123486675C9438160A7
:102F1000224902200860224865700068032D01687C
:102F2000A16040682661A661E0603A6862601BD2D9
:102F30001C4B3A7A1A60FB7A1B4A002B08D050606F
:102F4000506800280DD109E020780028DBD0D7E7B1
:102F500051605068002804D1144800E01448FDF77F
:102F60003FF90D48797A41600D480068007D0028DE
:102F700005D0022D03D10F49A67504204860012019
:102F80006075F8BDD038000068010020DB000A0041
:102F9000F9020A00DD000A000013004080E200E0B0
:102FA00060000020001200400015004000010A00EF
:102FB00005010A0000F5014002484068012800D0E0
:102FC0000020704700110040F8B51E4C0746657898
:102FD0001D4928014618607D012802D01B48FDF7D5
:102FE000FFF8207D002802D01948FDF7F9F80120EC
:102FF000002120756175032D0AD2002F01D131689F
:103000000860022D01D0012D05D1B07A207002E0B8
:103010001048FDF7E5F810480068007D00280FD043
:10302000022D0DD10D484068400702D40C48FDF731
:10303000D7F80C484068002802D10B48FDF7D0F8BB
:10304000F8BD000068010020D038000021010A000E
:1030500022010A003A010A006000002000F5014048
:1030600040010A000015004041010A0070B5184DEA
:1030700004462868002802D11648FDF7B1F8164E1C
:1030800070680A2802D31548FDF7AAF8E86F0C21EA
:10309000484341192078087160784871A078887198
:1030A000E078C87160688860208988816089C881FB
:1030B0007068401C7060E86F401CE867E86F0A2881
:1030C00001D30020E867012005490005086070BDB4
:1030D0008C01002034000B000C02002035000B0096
:1030E00000E200E0024840680A21081AC0B27047B6
:1030F0000C02002010B5040002D10748FDF770F85B
:1031000006490C600020C867054908604860012036
:1031100004490005086010BD29000B008C01002047
:103120000C02002000E100E0820710B5920F9043EE
:10313000D200FF24944003689140A343CA18074B70
:103140000121596006490C68002CFCD00260086817
:103150000028FCD00020586010BD000000E50140B0
:1031600000E40140F0B515460E460746002404E091
:10317000315D3819FFF7D8FF641CAC42F8D3F0BDBD
:10318000FFB55A4885B0C06F032500270F9E0C4637
:10319000002802D15648FDF723F854480078032848
:1031A00002D05448FDF71CF85048C06F417852488F
:1031B000CA070190002A1ED1807C00281BD0002065
:1031C0000090059800286ED0079849070002890FE3
:1031D000000A464B09060843A200D118896B002259
:1031E0000E9B88421A60326003905ED03F4FF86FAA
:1031F000002805D101E00120E2E74048FCF7F0FF9C
:103200003A482146C06F08310291FEF749FC002878
:1032100004D0002035490127C86700E00027009846
:1032200038400090002F40D0029881002F480918A4
:103230000398886108990F4236D03148005D002814
:1032400032D02046FEF7A8FB002802D12D48FCF71B
:10325000C7FF2046FEF7FAFB0290002811D0019824
:103260002546007C002805D020480069A84201D1ED
:1032700000F062F91D490020491980310870204989
:1032800048550E99029808600E99002909D0002827
:1032900002D11D48FCF7A4FF002119480225015561
:1032A00003E01A48F6E712E00125009800280AD04A
:1032B0002046FEF74BFC3060002803D01048012167
:1032C000015501E012483060002F01D006E00425CE
:1032D000064CE06FFEF712FB0020E0670349002078
:1032E000087000F029F9284609B0F0BD140200204A
:1032F0005B010C005C010C00940200206F020C00CA
:103300006400002091010C0096010C009A010C0051
:103310006C020020F8B52D4C064620780D46012899
:1033200004D0022802D02A48FCF75AFF002E28D0E9
:103330002078012802D02748FCF752FFE0680028D7
:1033400002D12548FCF74CFFE0680078002804D043
:10335000E06F6668002805D101E0002712E01F48F1
:10336000FCF73EFF31460831E06FFEF799FB00287D
:1033700002D00020E06702E01948FCF731FF022785
:1033800000E00427002D1AD065682846FEF75EFB92
:1033900006000ED01348007C002804D02069A84203
:1033A00001D100F0C9F800206119803108700E4980
:1033B0004855A068B04202D00C48FCF711FF00202D
:1033C000207000F0B9F83846F8BD00001402002063
:1033D000FC000C0002010C0003010C006F020C0049
:1033E0000E010C0094020020640000201E010C005D
:1033F00010B50830FEF7F8F910BD000070B50446AE
:1034000009480A4D007C002804D02969A14201D155
:1034100000F092F8291900208031054A08701055F3
:103420002046FEF7E1F970BD94020020140200204E
:103430006400002010B5FEF761FA10BD10B5FEF76C
:10344000A5FA10BD0148C0687047000014020020B2
:10345000014880687047000014020020014840685D
:10346000704700001402002010B50830FEF794FAEF
:1034700010BD0000014800787047000014020020D1
:1034800010B5FEF789FA10BD70B5FEF795FA002267
:10349000144C154E10460106930001431B19996107
:1034A000134605060146083329439D002D19A961DD
:1034B000A11880310870E11880310870B054521C96
:1034C000082AE8D320706060A060E06020610749AE
:1034D00060610874064A48741076E06701208874B9
:1034E00070BD00001402002064000020940200203F
:1034F0005402002010B50830FEF7A8FA10BD70B5D0
:103500000E4604460025FEF741FA002808D0214661
:103510003046FEF7C5FA002802D000F00DF801256C
:10352000284670BD10B50830FEF710FB10BD10B571
:10353000FEF72AFB10BD0000F8B50F4C20780028DC
:1035400019D10E4E307C002815D10825012760695D
:10355000FEF722FA002802D03774606920616069A2
:10356000401C6061082801D100206061307C002887
:1035700001D16D1EEBD1F8BD140200209402002091
:1035800001498874704700009402002070B50F4D07
:103590002878002802D00E48FCF722FEE86F0028A9
:1035A00002D1FEF7F1FAE86704000CD0FF2020708A
:1035B0006078062108436070FF222021A01CFCF7E0
:1035C000DDFD03202870204670BD0000140200209D
:1035D0003B010C0070B5264C2078002802D025480D
:1035E000FCF7FEFD244D0026287C002825D020690C
:1035F0006060FEF7ABFAA060002802D11F48FCF71C
:10360000EFFDA0684078C00705D1A87C002802D053
:103610000220E6600FE060680830FEF7BDF903287D
:103620000BD2E06F002802D1FEF7AEFAE067E0604F
:10363000002802D00120207002E02078002816D057
:10364000A068002802D10E48FCF7CAFD206960601E
:1036500080000119C87EF923401CC876A268800743
:103660005178400F1940014351702E74012070BDF4
:1036700014020020C3000C0094020020C9000C00BA
:10368000E7000C000148007C704700009402002015
:103690000448017881704178017088000249085817
:1036A000004700006C0000207000002001480078F6
:1036B000704700006C00002001484078704700000F
:1036C0006C00002002498870487008707047000044
:1036D0006C00002010B50446022802D30248FCF713
:1036E0007FFD0248447010BD2A000D006C000020D0
:1036F000FEB50E4B6C460ECB0EC4032600220C4DBD
:103700006C4601210B469340034205D09300E35CD5
:103710000F469F40EF6004E09300E35C0F469F403C
:10372000AF60521CB242EDD3FEBD0000B0380000C5
:103730000005005010B5FEF769FA012820D1FFF707
:10374000BBFF002802D00F48FCF74AFD00221E21D3
:103750000D48FCF749FD0D48007F00280ED10C48AC
:10376000012141610B48002202608205116000BF07
:1037700000BF00BF00BF01680029FCD0FEF784FA3B
:1037800010BD00002C06090091360000F400002056
:103790000005004000010040F0B53B4E83B030789A
:1037A000717888426DD0002801D1FDF709FD70784D
:1037B000364D002400281CD10320A860FFF75AFED4
:1037C000012804D0022802D0032812D104E00021ED
:1037D0000846FFF79FFD07E0002300941A461946AC
:1037E00018460194FFF7CCFC042802D02848FCF7C7
:1037F000F7FC6C61FFF772FA264D274F2C606C6066
:103800002C61AC60EC603078012802D0022809D02D
:103810001CE0FFF72FFE002815D000210846FFF717
:1038200079FD10E0FFF75AFA1C482C610470FFF78D
:1038300021FE032807D1002300941A461946184692
:103840000194FFF79DFC3078022802D070680028B0
:1038500013D01348F9680160707830700425684609
:103860000023057001930381438143708470C47009
:10387000FFF7FCFB012003B0F0BD0948B968016007
:10388000EAE7002003B0F0BD2801002000F5014068
:10389000E801090044010020F40000204400002059
:1038A0005C01002015000000160000001700000059
:1038B00015000000160000001700000032536601DA
:1038C000172D391A440C400D490D3E1A2D0C4D0090
:1038D0000010004010110040031000000100000023
:1038E00000100040000000000B0204000000000077
:1038F0000410004000000000070803010000000061
:1039000020390000000000207C000000FE050000BF
:103910009C3900007C000020040C00000E06000012
:103920000000000000000000000000000000000097
:103930000000000000000000000000000000000087
:103940000024F4000000000005000000000000005A
:103950000000000004192A3F4D0000000000000094
:103960000000000000000000000000000000000057
:103970000000000000000000000000000000000047
:103980000000000000000000000000000000000037
:0C3990001D280000B92700000000000006
:04000005000000C136
:00000001FF
