:020000040000FA
:10000000E00D0020150100002F010000310100006B
:1000100000000000000000000000000000000000E0
:10002000000000000000000000000000330100009C
:100030000000000000000000350100003701000052
:1000400039010000FD0200005106000039010000E6
:1000500039010000000000003901000039010000F2
:100060003901000099050000E50500003901000094
:100070003901000039010000390100003901000098
:100080003901000039010000390100003901000088
:10009000BD040000390100003901000039010000F1
:1000A00039010000390100000000000000000000DC
:1000B0000000000000000000000000000000000040
:1000C0000348854600F08AF800480047791F000081
:1000D000E00D0020401E00BF00BF00BF00BF00BFFA
:1000E00000BF00BF00BF00BF00BF00BF00BFF1D115
:1000F00070470000401E00BF00BF00BF00BF00BF30
:1001000000BF00BF00BF00BF00BF00BF00BFF1D1F4
:10011000704700000321094802680A43026008484A
:1001200002680A4302600748804707480047FEE725
:10013000FEE7FEE7FEE7FEE7FEE7000024050040DD
:100140005405004045050000C100000030B50B46D5
:10015000014600202022012409E00D46D5409D42A1
:1001600005D31D469540491B254695404019154627
:10017000521E002DF1DC30BD03460B439B0703D01C
:1001800009E008C9121F08C0042AFAD203E00B785C
:100190000370401C491C521EF9D27047D2B201E0D4
:1001A0000270401C491EFBD270470022F6E710B5D2
:1001B00013460A4604461946FFF7F0FF204610BDD5
:1001C00030B504460020034600E05B1C934203D296
:1001D000E05CCD5C401BF8D030BD0000064C012532
:1001E000064E05E0E36807CC2B430C3C98471034DF
:1001F000B442F7D3FFF768FF7C4B00009C4B000034
:1002000010B502F035F810BDF7B5074600240120FF
:100210002E490004154688602D4EB078002802D083
:100220002C48FFF7EDFF002F02D12B48FFF7E8FF26
:100230007068002802D02948FFF7E2FF284677605F
:100240000127274D002820D0012828D0022824D0BB
:100250002448FFF7D5FF2448B770002101600199B9
:10026000611889B229602E6820494F606D68006866
:10027000002802D01E48FFF7C3FFA64211D3A542B3
:1002800001D3B5421CD31B4818E0184847606C687E
:100290000760154900200860DDE7AC68DBE72C68E3
:1002A000D9E7B54201D2012000E00020AC4201D8DC
:1002B000012100E00021884202D10F48FFF7A0FF92
:1002C000012002490004486003B0F0BD00A30040D3
:1002D0007400002073000400750004007600040020
:1002E00040A500408900040040A1004040A000401B
:1002F0009B000400B0000400C9000400F8B55F4C86
:1003000020696778401C2061607D002802D05C482D
:10031000FFF776FF204622785A4D00245A495B4E5B
:10032000032A3FD1CA68002A3CD0012F03D0022FF4
:100330002FD057489EE007460069032802D0554851
:10034000FFF75EFF02203870B969491CB961524954
:100350000C60C11EA960514908604B48C46004602C
:1003600004614460032179707C603C753268117DC2
:1003700000290AD04A498B68BB75C461494B0120EA
:100380009861494B042098608C60D06800283AD16D
:10039000F8BD0069012802D04448FFF731FF03F09F
:1003A000F5FCF8BD032F64D0012F2ED0022FF6D01C
:1003B00042783F4B1201D218137B0027002B03D049
:1003C000CB68002B00D00127927A334B02701C605F
:1003D000032A48D00022D243AA60304B02221A607E
:1003E000CC60032242700C600C614C604460047568
:1003F00030680069002800D08047002FD1D03068D5
:1004000080680028CDD08047F8BD0269012A18D045
:10041000022AF9D1CC600C610C601F490C60111FDD
:10042000A960082169600321017044600475306887
:100430000069002800D08047306880680028E2D139
:10044000F8BD0C604C600021C943A96001216960BE
:100450003168097D002902D0134A042151601549F1
:10046000C0684860F8BD0822D243AA6008226A60CA
:10047000B9E71148FFF7C4FEF8BD0000C80200202C
:1004800090010A0000130040001100407C00002091
:10049000A9010A009F010A000012004080E200E06A
:1004A000401500400010004000F50140A4010A0082
:1004B0004C4B000000150040D6010A00F8B5204D55
:1004C0002C468034012080F310886068002832D0E8
:1004D00020680C21484340190279310A090211436E
:1004E0004279FF231B02120299431A401143827979
:1004F0001B02120499431A401143C2790E02360AB4
:1005000011060E4381688289C08997B200040743AF
:100510006068401E60602068401C206020680A28D7
:1005200001D300202060002080F310882B683A4619
:1005300030469847C6E7002080F31088F8BD0000D9
:10054000EC02002010B501F057FB002805D00E4941
:100550000C484860C8130D4988610D48018CC9B228
:1005600001290ED1818C09070BD1018D0906090FD4
:10057000042906D1808D0006000F02D10549012013
:10058000886010BDDFFF07C000050040006C004020
:10059000C00F00F00006004010B50F48002201789F
:1005A000142905D2491CC9B201700A2901D302E0FD
:1005B0000270022101E00121C943084803685B1869
:1005C0000360436859184160012141720448026088
:1005D00001F0B6FD10BD00000700002098010020CA
:1005E0004091004070B50120134900048860134811
:1005F00000250560124C6068002802D11148FFF701
:10060000FFFDA570636810480122656042600F48D5
:100610004168006895031430A94205D20325AD0353
:10062000A84201D9627005E0814201D3012000E0B7
:1006300000206070984770BD00A3004040A10040BA
:1006400074000020EC00040040A0004040A50040E1
:10065000F0B53C4D012185B04902284604F05BF815
:1006600001270026384C002823D0FF2125312846B9
:1006700004F04CF800281CD0FF2025302E5081209B
:10068000324980008860607D002800D16F600221BF
:10069000684601702E49086808600390E17C68464E
:1006A0000172E0680190E67406CC6846083C904709
:1006B0001DE00421284604F02EF8002817D0FF2161
:1006C0000931284604F022F8002810D004F098F8E8
:1006D000E07C217D88420AD1607D002800D16F60D6
:1006E00081201A4980008860207D04F09FF8FF2156
:1006F0001D31284604F00AF800280DD0A07C218A7C
:10070000884202D904F0E2F806E0FF211D316E5064
:10071000002801D004F0F0F8FF214531284603F00D
:10072000F5FF00280CD0FF2045302E50607D0028BA
:1007300000D02F60E07C002802D0207D04F076F805
:1007400005B0F0BD00200040C4010020002300409F
:10075000802400400FB410B503A9044B044A02984A
:1007600000F017F810BC08BC04B01847070E0000D2
:100770001C00002002E008C8121F08C1002AFAD19C
:1007800070477047002001E001C1121F002AFBD111
:100790007047FFB581B00546002706E025280AD03E
:1007A000049A039990476D1C7F1C28780028F5D186
:1007B000384605B0F0BD002269786D1C10462E2920
:1007C00013D1697804226D1C2A2909D102996D1C64
:1007D00001C9029109E00A235843303808186D1CFA
:1007E00029780B46303B092BF5D92B78002BDFD02D
:1007F000632B07D0732B10D0049A184603999047A7
:100800007F1C2DE002996C460B782370091D029124
:10081000002161706E46012104E0029940C90291F5
:100820000021C94352070AD5002400E0641C844219
:100830000DDA8C42FADB325D002AF7D107E00024A2
:1008400000E0641C8C42FCDB305D0028F9D13F19CC
:1008500004E03078049A761C03999047641EF8D21D
:100860006D1CA2E710B58268C368934203D000F004
:10087000B7FA002010BD052010BD002906D0002ABF
:1008800002D0531E134203D0092070470E20704738
:100890000160838000218160C1600846704710B507
:1008A0008268C3689A1A83889A4203D800F0A2FA31
:1008B000002010BD042010BD70B50446224888B049
:1008C0001E460D0042601CD0A888296882B21F48CD
:1008D000FFF7D3FF002815D1A889A96882B21B4869
:1008E0001030FFF7CAFF00280CD1202218496846B3
:1008F000FFF742FCA06806902079002804D001216F
:1009000003E0072008B070BD002168460175067736
:100910006079002800D00E2069464875E078029082
:10092000A07803902078019060780090094968468B
:1009300001F04CFD0028E5D101F0FAFD024801214B
:10094000801C01F09BFDDDE708000020A4010020D1
:10095000F84A00001D49000010B504460648012170
:100960004470401C01F0F0FD112803D121460348DA
:10097000FFF795FF10BD000008000020B401002023
:10098000F0B549488BB003684849494A012B02D069
:100990004B6B002B05D153681B78202B01D801230A
:1009A00000E00023434D03242C700024404A002B18
:1009B000146057D084688268CA623D4A03A90192D4
:1009C0000091C26801232146184603F0E7FB002886
:1009D00024D0012805D0022824D003284FD036483F
:1009E0004BE00398002802D03448FFF709FC20466A
:1009F00003F048FD002802D13148FFF701FC686888
:100A00000222817D68460026027001960681468199
:100A100044708170C67003F037FB30E02948FFF75F
:100A2000EFFB2CE00398002802D12748FFF7E8FBF2
:100A3000204603F027FD002802D12448FFF7E0FB01
:100A400068680222817D039E6846027000236A4620
:100A5000019613815381447001278170C77003F0A0
:100A600013FB0CE000200090034602460146019073
:100A700003F094FB042802D01548FFF7C1FB0C4C8F
:100A80002068002807D001206075124820610420EA
:100A900028700BB0F0BD03F02FF9002060752061C5
:100AA00000F01AF80BB0F0BD001400400015004033
:100AB000A402002060000020C8050900B805090054
:100AC000B9050900BD050900C0050900C1050900F7
:100AD000CF050900750B000070B503F00DF91C4C33
:100AE00000251C4E0120256130701B481B49006900
:100AF000086303F0CDFC00281FD003F0C9FC0328D5
:100B000002D01748FFF77CFB022003F0F1F9002028
:100B100003F068FA03F0BCFC032802D01148FFF789
:100B20006FFB3078012802D00F48FFF769FB0220E5
:100B300030700E482561E06070BD03F0E1FA0228D4
:100B4000E2D303F031FD60600028DDD10848D9E729
:100B5000A402002060000020540200200015004084
:100B60008005090088050900920509008109000037
:100B70007B05090010B5034905200870FFF7ACFF9D
:100B800010BD00006000002004280CD2074A126942
:100B9000074B80001B5C01209840904300D001204F
:100BA0000870002070470020FAE7000000050050A0
:100BB000D84A00003FB50146002089070FD5094CEF
:100BC0006D461ECC1EC50021074D6C460C238A00C5
:100BD000A258920052191360491C0429F7D304B09B
:100BE00030BD0000E84A000000070050F0B545485D
:100BF00085B00068012803D04348406B002806D127
:100C0000424840680078202801D8012500E00025EE
:100C10003F4C01266069002804D101F093FF0028B1
:100C200000D1666103F034FC012802D03948FFF797
:100C3000E7FA39484068007D002802D03748FFF7BE
:100C4000DFFA03F059F8002D57D00121084603F0D0
:100C50006FFB052840D201007944097949188F4477
:100C600002381D383800002703F000FC0390A689E5
:100C7000E58903F001FC0246274869464068837D08
:100C80000F700399019169460E814D814A700020D1
:100C90008B70C870684603F0F7F91DE0002703F079
:100CA000E5FB0390A689E58903F0E6FB02461A48B6
:100CB00069464068837D0F700399019169460E81F2
:100CC0004D814A7001208B70C870684603F0DCF9D2
:100CD00002E01348FFF794FA01F000FB206111488D
:100CE0001149426962602378022B01D0002A06D0A4
:100CF000C0680860002001F025FB05B0F0BD8068E9
:100D0000F7E700000014004000150040A402002096
:100D100088020020A806090060000020A90609003A
:100D2000C806090054020020BC02002070B5174C10
:100D3000012560782279014668401040002600288D
:100D400004D0267112A0FFF705FD02E0002900D0B3
:100D500025712078E27801466940114204D0E6709E
:100D600013A0FFF7F7FC02E0002800D0E570A078A0
:100D7000627901466840104204D0667112A0FFF704
:100D8000E9FC70BD0029FCD0657170BD0000002039
:100D900053797374656D2061646472657373206E3A
:100DA0006F742072656365697665640A00000000EF
:100DB000486F7374204944206E6F742072656365B8
:100DC000697665640A00000044796E204B657920DD
:100DD0006E6F742072656365697665640A00000051
:100DE000826883881A4003689A5C0A708168491C8B
:100DF00081607047C26883881A4003689954C1684B
:100E0000491CC160704710B50446C0B2FFF7A4FD8D
:100E1000204610BD30B5234D83B0687E00283AD0FF
:100E200001F030FE002401280CD001F075FE1E48B0
:100E3000007F002802D1012081074860002003F0D4
:100E400057FC6C6002F058FFAC706C760521684668
:100E5000017001940481448144708470C47003F073
:100E600013F91248124904700320886003F010FB44
:100E7000012812D0022810D003280CD1002300949E
:100E80001A4619461846019403F088F9042802D03E
:100E90000848FFF7B5F903B030BD0021084603F05C
:100EA00047FAF3E788020020540200206000002087
:100EB00000F50140E801090010B503220149FFF7E0
:100EC0005BF910BD384B0000F0B58BB02027002631
:100ED000099701F067FF044601F084FF0A9002F0D1
:100EE00037F9C82002F0D8F8052002F005F90020F3
:100EF00001F02AFF01F0DCFE00206946087005467B
:100F000000220121684600F099FD002806D000204B
:100F100002F02CF96D1CEDB2642DF1D3C82000F065
:100F200027FB01206946087001460022684600F050
:100F300085FD002823D01F48007800281FD00020FE
:100F400001F034FF00281EDD09AA01A9002009973D
:100F500001F0BEFE002816D068460079082812D19C
:100F6000144801AD04220938691CFFF705F9681C13
:100F700000F0CAFD002000F067FC012603E0FF201E
:100F80002D3000F0F5FAFF205F3000F0F1FA02F0AA
:100F9000DFF8002001F0D8FE002001F0E5FE204639
:100FA00002F07AF80A9802F0A7F801F081FE3046C4
:100FB0000BB0F0BD32000020002207E00378401C97
:100FC000FF2B01D000207047521CD2B28A42F5D3C9
:100FD0000120704701490870704700002000002080
:100FE00010B501460D220248FFF7C6F810BD0000FB
:100FF0002C0200200148407A704700009801002030
:10100000FFFFFFFFFFFFFFFFFFFFFFFFFFFFFFFFF0
:10101000FFFFFFFFFFFFFFFFFFFFFFFFFFFFFFFFE0
:10102000FFFFFFFFFFFFFFFFFFFFFFFFFFFFFFFFD0
:10103000FFFFFFFFFFFFFFFFFFFFFFFFFFFFFFFFC0
:10140000F0B50746204889B0007815460E460028FA
:1014100013D0012814D0022834D110221B4904A86B
:10142000FEF7AAFE1A490D2204A8FEF7A5FE002029
:10143000154B6C465B1C02460DE010221349F3E786
:101440001022124904A8FEF797FE04A800F0D2F873
:10145000EDE7052802D2195C215400E02254401C1B
:10146000C0B21028F5D301F0DFF804A801F0EEF8BF
:101470006946084601F0AEF82B466A4631463846C2
:1014800000F0AAFB09B0F0BD200000203B4B00009B
:101490002C02002070B50C4605460D2912D800F02C
:1014A0001FF8002801D0012070BD074800780028EF
:1014B00008D100F085F9002804D02146284600F024
:1014C0000FF870BD002070BD2600002010B5014649
:1014D00005220248FEF750FE10BD0000210000204A
:1014E000F0B50746081D89B00D46C6B2062069460C
:1014F000087404AC601CFFF7DFFC2A463946201D47
:10150000FEF73AFE194D2878002801D0002000E0AF
:101510000220FFF75FFD701EC2B2611C601CFFF766
:101520006FFF01200090002301AA314604A800F0BB
:101530009DFA002803D1684600790B2802D00020CC
:1015400009B0F0BD01ACA01D03220146FFF758FF12
:10155000A01D00F033FB0028F2D02878002802D12B
:10156000601CFFF7B3FF0120EAE70000260000201F
:1015700010B5044601F032FC60434000FEF7AAFDBE
:1015800010BDF7B5064682B0144611464E20FEF750
:10159000DDFD00900220307030194F212038C177D6
:1015A0000398002811D00125671E0CE0A9070398B5
:1015B000890F405C0099FEF7C9FD00986843081840
:1015C00070556D1CEDB2BD42F0DB012105230CE02E
:1015D00070182038725CC07F101AC0B2052802D281
:1015E000181A10187054491CC9B2A142F0D305B0A2
:1015F000F0BD000010B505220149FEF7BDFD10BD8C
:101600002D00002010B5012088B0C043002102AA9F
:10161000FF235354491C09B20529FADB10498323DF
:101620005B01CA18927FFF2A14D014090F2C00D135
:101630001440214604A800F0FCF8052202A905A8E0
:10164000FEF7BEFD002802D0204608B010BD0020E5
:10165000C043FAE7491E09B20029E2DAF5E70000C3
:1016600081030000F0B5324D87B0287800260127AD
:1016700001AC002817D0032069460871601CFFF7F1
:101680001BFC0020FFF7A6FC0322611C601CFFF777
:10169000B7FE002303AA042101A8009700F0E6F991
:1016A000002815D018E00220694608710521601C49
:1016B00000F092F90122062101A800F0BFF90028EC
:1016C0000AD0601CFFF702FF2F70002007B0F0BDAA
:1016D0006846007B092802D02E700320F6E703AC91
:1016E000601C09220146FFF78BFE601C00F066FAC1
:1016F000002819D06846007C002804D0012805D0B5
:10170000022800D12E706846007CDFE7601D00F0E3
:101710007FF90D21074800F05FF90648FFF760FCEC
:10172000012000F091F8EDE72E700220CEE70000D6
:1017300026000020390200209F204001C07FFF28A2
:1017400001D0012070470020704700000848832224
:1017500052018118897FFF2904D008090F2800D180
:1017600008407047401E00B20028F2DA0E20704791
:10177000810300000EB5114900200870FFF7DCFF5F
:10178000002815D183204001807FFF2810D0FFF76B
:10179000DDFF01460E280BD2684600F04AF80748E4
:1017A00004226946C01CFEF7E7FC01A800F030F9EE
:1017B0000248C01C00F0A8F90EBD00002600002061
:1017C00010B58AB0042069460874012001460090D3
:1017D000002301AA04A800F049F9002827D168468F
:1017E00000790A2823D101A80130FFF76FFE0520F8
:1017F0006946087404AC601CFFF75EFB0D21201DD8
:1018000000F0EAF8201DFFF7EBFB0120FFF7E2FBF9
:101810001022611C601CFFF7F3FD0122112104A8B6
:1018200000F00CF9002802D001200AB010BD002001
:10183000FBE7CA0089180122120310B58918092292
:10184000FEF79AFC10BD0000F0B5002785B03C46BD
:101850000397002861D000256E4629466846FFF7A9
:10186000E8FF042259496846FEF7AAFC002807D180
:1018700056490522091D301DFEF7A2FC002810D094
:101880006D1CEDB20E2DE8D3002529466846FFF702
:10189000D0FF04224D496846FEF792FC002802D092
:1018A0000FE02C4634E00521301DFFF785FB0028B2
:1018B00007D046490522091D301DFEF75DFC2C4668
:1018C0004BE06D1CEDB20E2DDFD300252946684696
:1018D000FFF7AFFF09216846FFF76EFB002805D030
:1018E00004223A496846FEF747FCE2E76D1CEDB278
:1018F0000E2DEBD30398002808D0E0000122201819
:10190000120380186946092202F03AFC002F5AD0CF
:10191000FFF712FF002827D055E000242146684633
:10192000FFF787FF042229496846FEF749FC002893
:10193000EED0641CE4B20E2CF0D30024214668469D
:10194000FFF777FF04216846FFF736FB002806D033
:1019500004221E496846FEF70FFC0127CDE7641CF0
:10196000E4B20E2CEAD32EE0FFF7F0FEA0422AD01C
:101970000E2C28D083225201154B0020917F5D1C34
:1019800003E08118897F98421AD0CE4336070DD0E4
:101990000E090F2E0ED0401C00B2A842F1DB0D4AFA
:1019A000801802F0CFFB012005B0F0BD0909090144
:1019B0002143F4E70907090F22011143C9B2EEE7F9
:1019C000E0212143EBE70020EEE7000029000020A2
:1019D000810300007E100000F0B50A4B00271F6055
:1019E000094D01242C603A4608E01E68002EFCD008
:1019F000064EB66886541F60521CD2B28A42F4D397
:101A00006C60F0BD00D1004000D0004000D5004027
:101A100010B5014605220248FEF7AEFB10BD0000DE
:101A20002D00002010B5044601F012F9640000E01A
:101A300030BF01F0CDF9A042FAD310BD70B5054614
:101A4000094C002013466070A0700A4629461846CB
:101A500001F0A4F8002801D170BD30BF60780028E3
:101A6000FBD0A07870BD000026000020FFB583B039
:101A70000A200C9D009016460F46284601F076FB82
:101A8000012401F009F901F065FA0028FBD101F009
:101A90009BF902901E2001F00FFB01F009F92A4684
:101AA00039460398FFF7CAFF00281FD002242846B2
:101AB00001F05CFB0720694608710A20FFF7B2FFBE
:101AC0002A46012101A8FFF7B9FF00280ED02846B9
:101AD00001F06CF9002809D0202000906A463146B8
:101AE000284601F0F5F8002800D0002401F0D4F8D1
:101AF00001F030FA0028FBD1029801F0DDFA01F084
:101B0000D7F8204607B0F0BDF0B585B0054601F026
:101B100021FA294C0646002D4BD069782878090215
:101B20004018A978EA78090412068918471801F0C4
:101B30000FFB204601F04CFA00280CD0002108468B
:101B400001F030FA002806D0384601F051FA00289A
:101B500001D0012403E0012409E0002F07D0214631
:101B6000084601F01FFA002801D0012700E00027F5
:101B7000641CE4B2082CF0D301F00EF90446C2B2A2
:101B800029466846FFF7FDFC002F0FD02146684626
:101B900001F03EFA002809D00120002E04D001F007
:101BA00087F8002805D0012005B0F0BD0020002EE8
:101BB000FAD00020F8E700000405070B10B5032257
:101BC0000449FEF7FDFA002801D0002010BD0120D5
:101BD00010BD0000384B000070B5002408E00D78FF
:101BE0001678641C75400570401C491CE4B2521CF8
:101BF0009C42F4D370BD00001048018CC9B2012989
:101C000017D1818C090714D1018D09060A0F03D160
:101C1000828D1206120F0ED0090F012903D1828D79
:101C20001206120F07D0032903D1808D0006000F82
:101C300001D000207047012070470000C00F00F065
:101C40000022027002214254491CC9B20829FAD369
:101C50007047002202700421817003214254491C04
:101C6000C9B20829FAD37047F8B5AA4D00206861B7
:101C70000326AE60A849C8630120C863A74C606909
:101C8000891588436061606900090001801D6061F9
:101C900060690F2109048843310440186061A0691C
:101CA000012149068843A061A06949100843A06149
:101CB000A069000A00022030A061A069FF2109028A
:101CC0008843A06196490220086000F0D3FEE861D5
:101CD0009448A8616E60944802F0E0F89349486027
:101CE0009348A269417F07231B049A4309040A43CE
:101CF000A2610021036A0A461827D6001846F04060
:101D0000C0B28507C407ED0F240EAD01254344077B
:101D1000E40F64012C430507ED0F2D012543C40694
:101D2000E40FE4002C438506ED0FAD002543440687
:101D3000E40F64002C43C0092043BC1BA040521C8C
:101D40000143D2B2042AD8D37448C1617848002133
:101D5000436A0A46D6001846F040C0B2C407250EB2
:101D60008407E40FA4012C434507ED0F6D012543C3
:101D70000407E40F24012C43C506ED0FED002543B5
:101D80008406E40FA4002C434506ED0F6D002543A7
:101D9000C0092843BC1BA040521C0143D2B2042AF4
:101DA000D8D35E4D2962624E002430192030007A6B
:101DB000082C4ED2A107C90EFF228A40D243042C20
:101DC00023D26B6A13406B62C207130E8207D20FD5
:101DD00092011A434307DB0F5B0113430207D20F43
:101DE00012011A43C306DB0FDB0013438206D20F36
:101DF00092001A434306DB0F5B001343C0091843EC
:101E00008840696A0843686226E0AB6A1340AB62A7
:101E10008307C207DB0F120E9F0117434207D20F41
:101E200053010207D20F3B4312011A43C306DB0FD3
:101E3000DB0013438206D20F97004206D20F5200F6
:101E40001F433A43C00910438840A96A0843A86267
:101E500002E03848FEF7D4F9641C082CA5DB364CA8
:101E6000207CE860607C696B090A090269630028CC
:101E70001CD001281DD0022825D003282BD02F48A4
:101E8000FEF7BEF9A07C2E4B2E492F4C2F4A00287E
:101E90002AD0012832D0022807D128618C622C4830
:101EA0004B62C8622B484A630863F8BD686B68637D
:101EB000E8E7686B012108436863FF20E863FF20BF
:101EC0000830A863DEE7686B022108436863224894
:101ED000E863224806E0686B0321084368632048F2
:101EE000E8630020A863CDE7002028618C621D48CC
:101EF0004B62C8621C484A630863F8BD0120286130
:101F00008C621A484B62C8621948086319484863D2
:101F1000F8BD000000F50140C01F00400015004062
:101F200080E200E004110040A402002060000020D4
:101F3000540200203903090074020020C203090082
:101F400000500078001700404E0000543E420F82BF
:101F500008800C6088647200FFFF000021100100FF
:101F6000FFFFFF0003800C602264720002800C609F
:101F700011646600DEC08F8270B53F4888B007C824
:101F80006B4607C33D48012411C33D48059020021C
:101F9000069003233B4A03A96846FEF78DFC002206
:101FA00011460220FEF706FE37A0FEF7D3FB012004
:101FB00000F092F8054600F087F8002000F036FFA8
:101FC0000540962001F068F80540002001F048F82F
:101FD0000540FF20F93001F07FF828400646002038
:101FE00001F06AF805463540FFF70CFB2349002253
:101FF000891F801C03D0012804D00C7003E00A70F4
:102000004A7001E00A704C70FFF7B4FB00F050FE1C
:1020100028402ED003A90120FEF7B6FD6846007BBC
:10202000002819D0FEF7E6FF002815D005A800F01B
:1020300089F8002810D0022000F094FF0028FAD080
:10204000042205A9022000F0A9FD002801D015A056
:1020500000E018A0FEF77EFB04A90020FEF794FD27
:102060006846007C002801D002F05EFBFEF75EFEB1
:10207000D0E708B070BD0000CC4A00000600002088
:1020800098000020194900004465736B746F70203C
:10209000656D756C61746F72206578616D706C65CB
:1020A0000A0000004D6F7573652073656E74204FD4
:1020B0004B0A00004D6F7573652073656E74204682
:1020C00041494C45440A000002480121C1600160B9
:1020D0007047000000900040124A002111605160DA
:1020E00051721172104A01215160D1600F4A8B1E4A
:1020F00093600B0453600E4A11600E4A0421116173
:102100000C494031002802D07D20800101E07D2073
:102110004001086001200849400208600749086042
:10212000012070479801002000900040009300407B
:10213000009200400095004080E200E000E100E0F5
:102140007047000010B50C494A7A002A11D00222CB
:1021500002708A8842700C8812052301120F134303
:1021600083702211C270002008604860487201200C
:1021700010BD002010BD000098010020F8B5030438
:102180001B0E0E460093C3B2010E0002001600247F
:10219000170C404295B2062B5BD21A007A44127992
:1021A00092189744021427423F3C002900D0012195
:1021B0000C4629043D46000405430C43304601F01B
:1021C00067F82A462146009800F058FDF8BD2348DC
:1021D0008068407E002802D12148FEF711F8304681
:1021E00001F056F82146280401433A46009800F0D1
:1021F00035FDF8BD002900D001210C460004044340
:10220000002907D0002E02D11648FDF7F9FF30460D
:1022100001F03EF82146009800F006FEF8BD00F0FF
:1022200046FDF8BD00F09CFEF8BD0F484168491C12
:10223000416001780029F7D08168002902D0491E49
:102240008160F8BD01F018F90028E8D100F0A6FF80
:10225000F8BD0648FDF7D4FFF8BD0000400000209F
:10226000B5030500C303050048020020E303050091
:1022700002490F220A70C860704700004000002029
:1022800009480A4A4168491C41601268136899422A
:1022900008D3002343600168491C016052689142E1
:1022A00000D30360704700006C000020680000202D
:1022B00070B5084D064C296820684968884202D3E9
:1022C0000548FDF79DFF286821688068405C70BD67
:1022D0006C00002068000020B20001000148006886
:1022E000704700006C000020014840687047000003
:1022F0006C00002010B5040002D10548FDF780FFF6
:1023000004480021046004480160416010BD0000E1
:102310002A000100680000206C00002010B504466F
:10232000054800684068A04202D80448FDF768FFED
:102330000348046010BD000068000020B9000100DF
:102340006C00002010B50446054800680068A042F3
:1023500002D80448FDF754FF0348446010BD000054
:1023600068000020C50001006C0000208207D30E29
:10237000FF229A408907090E10B5994000280BDA10
:1023800003071B0F083B9C080C4BA400E318DC69F7
:1023900094430C43DC6107E08408094BA400E41873
:1023A000236893430B432360C106C90E0120884074
:1023B000044908600449086010BD000000ED00E019
:1023C00000E400E080E200E000E100E0F3B5044654
:1023D000244881B0807D002801D00820FEBD002C5B
:1023E00000D1214C206800F0CEFB2078012739462F
:1023F0001E4E8140B1600021606800F0BBFB1C4DA7
:10240000A0696862607D217D0843E86603CCE860CE
:102410006961207B083C01280ED10021A06800F0F2
:10242000A9FBE06800F0AFFB207B39468140B1603A
:10243000E168A068A96028610A4E0298706021696D
:102440003160002806D00C4A217F0A4850600220E3
:10245000FFF78CFF042028600020F074B074B7757B
:102460007075FEBDC4010020184B0000000500502F
:10247000002500408000020000230040F8B5294DEF
:10248000EA7C002A01D01120F8BDE974E860002040
:102490002875687D002801D102F0D8F96868224CBF
:1024A000002805D081202149800048600020F8BD27
:1024B000FF212531204602F029F90546FF21093187
:1024C000204602F023F90746FF214531204602F05D
:1024D0001DF90646394631432943E9D028463043A1
:1024E00006D102F08DF90F48C17C007D8142DFD812
:1024F000FF21453100206050FF21253160500949FE
:10250000002DC87401D00320F8BD002E01D00F208B
:10251000F8BD497D0120002901D02060C6E7606038
:10252000C4E70000C4010020002000400023004058
:1025300010B5044C607D002803D102F087F901201A
:10254000607510BDC4010020F8B5204C0026A27CA7
:10255000002A01D01120F8BDA174A06000202082C3
:102560001B4DFF271D37E8510120A86002F0AEF98E
:102570006168002911D024E0FF270137294614485B
:1025800002F0C4F8002802D1208AB842F6D1208A8D
:10259000B84203D002F09AF900E03D46A07C218ABF
:1025A0008842E9D8218AC81FF9380CD0084F29463B
:1025B000384602F0ABF80028F9D00120F86000207E
:1025C000A0743046F8BD0F26F9E70000C4010020D2
:1025D0000020004070B5114D0646012468682406AD
:1025E000814202D01022FDF7C7FD0D49002008608E
:1025F0000C4B01221A6001E0641E0CD00A68002A0C
:10260000FAD00860A9688E4203D010223046FDF748
:10261000B3FD012070BD002070BD0000100000203F
:1026200000E1004000E00040054906480A4610323B
:1026300006C010320260044841600120704700006B
:10264000DC0100201000002000E50040014610B52C
:10265000024810220068FDF78FFD10BD1000002019
:10266000F0B583B00546102802D33548FDF7C8FD04
:1026700028460C21484333494018019068002E1821
:10268000314830180090102D02D33048FDF7B8FDC6
:102690002D49885D002851D00098019A83789B00CD
:1026A000D4588278521C82708278801C032A01D30D
:1026B00000220270885D401E8855002C3ED02448C0
:1026C000844202D12348FDF79BFD234F386806283A
:1026D00002D32248FDF794FD1F4900200968002914
:1026E0000CD91F4A8300D358A34203D11D48FDF7DC
:1026F00087FD0EE0401CC0B28842F3D31A48002187
:1027000022224A431318A34206D0491CC9B2062903
:10271000F6D31648FDF774FD0F48114F006880008E
:1027200039580B48814202D01148FDF769FD0A482B
:1027300001688A00BC50491C0160A4E703B0F0BDE9
:10274000D70003003804002008040020A60003007E
:10275000ADDEADDEDB000300940000208500030049
:10276000F8040020F6000300100500208600030096
:102770008800030070B51B4C05462068062802D36C
:102780001948FDF73DFD21680020184E00290BD99E
:102790008200B258AA4203D11548FDF731FD0EE080
:1027A000401CC0B28842F3D31248002122224A437F
:1027B0001318AB4206D0491CC9B20629F6D30E48FD
:1027C000FDF71EFD20680D4980003058884202D078
:1027D0000B48FDF715FD206881007550401C2060F6
:1027E00070BD00009400002085000300F804002064
:1027F000F60003001005002086000300ADDEADDE0C
:102800008800030001480068704700009400002021
:1028100010B50446102802D30348FDF7F1FC600010
:1028200002492018085C10BDC800030008040020FD
:1028300070B400201F4A01464300C3189C18617001
:10284000A170D154401C1028F6D300211A4D1B4B07
:10285000DE240A46222042438E0050199851AC547F
:1028600044708470C470047144718471C4710472C2
:1028700044728472C472047344738473C4730474A2
:1028800044748474C474047544758475C475047682
:1028900044768476C476047744778477C47720308E
:1028A0000470491C44700629D3D3054906200860EA
:1028B00070BC70470804002010050020F8040020B8
:1028C0009400002070B500250446102802D30F485C
:1028D000FDF796FC60000E492218885C002813D092
:1028E0000C2044430B48231850188478A4001D5929
:1028F0008478641C84708478801C032C01D30023AA
:102900000370885C401E8854284670BDA6000300F2
:102910000804002038040020F8B50D4604461029AC
:1029200002D32048FDF76CFC1F49002009680646C9
:1029300000290CD91D4A8300D358A34203D11C4857
:10294000FDF75EFC0EE0401CC0B28842F3D319488C
:102950000022222151430B18A34206D0521CD2B2AE
:10296000062AF6D31448FDF74BFC6800134A2918D1
:10297000505C032814D20C20454311482B188818AA
:102980004578AD005C514478641C44704478401C28
:10299000032C00D30670505C401C50540120F8BD3D
:1029A0000020F8BD8F00030094000020F8040020F0
:1029B000F60003001005002090000300080400202A
:1029C0003804002010B50446102802D30948FDF74A
:1029D00017FC600021180848425C002A08D00C222D
:1029E0005443064AA218081880788000105810BD79
:1029F000002010BDB70003000804002038040020A8
:102A000070B5164900240A68002A25D09000144B9E
:102A1000144DC0188038C46F521EC5670A6000216B
:102A2000002A0BD988001D58A54203D10E48FDF796
:102A3000E7FB0EE0491CC9B29142F3D30B480021D9
:102A400022224A431318A34206D0491CC9B20629C0
:102A5000F6D30748FDF7D4FB204670BD9400002054
:102A6000F8040020ADDEADDEF60003001005002006
:102A70007D0003000048704748A0004000487047B0
:102A800040A1004001480078704700007400002019
:102A900070B5114801254560C560104E0024B46032
:102AA0000F4845600F484068002802D00E48FDF7E7
:102AB000A7FB00200D49C04388600D480460042036
:102AC00030610C48446005704470847008150A49F0
:102AD00008600A49086070BD00A0004000A50040E1
:102AE00040A0004040A500403500040000A3004085
:102AF00040A100407400002080E200E000E100E01E
:102B00000349012008600349002008707047000055
:102B100000A000407400002010B40748012141606B
:102B2000C16000220548064C426042708B0223605F
:102B30008270017010BC704700A00040740000203B
:102B400080E200E0014840787047000074000020F7
:102B500030B552000A439900039C0A432102049DA8
:102B60000A4329040A43024980004018026030BD2C
:102B7000000700501CB500220B460092114601923E
:102B8000FFF7E6FF1CBD1CB5002100910B4601229A
:102B900001911146FFF7DCFF1CBD0000F7B52A4D7F
:102BA00016460746082804D304202870002003B0E6
:102BB000F0BD0198002806D0202E09D906202870E3
:102BC000002003B0F0BD03202870002003B0F0BD4A
:102BD000384600F081FB032804D309202870002028
:102BE00003B0F0BD384600F067FB032804D30A2089
:102BF0002870002003B0F0BD00F054FB022804D27E
:102C000008202870002003B0F0BD00F069FC0446E5
:102C1000067040780121084360703246A01C01997B
:102C2000FDF7AAFAF8B2214600F03AFC002802D0DB
:102C3000012003B0F0BD0548FDF7E2FA0F2028702F
:102C4000002003B0F0BD000040000020DD000500C2
:102C500001490020486070474802002007B508225B
:102C600001A90548FDF788FA034801210C38417095
:102C7000002181700EBD00003200002007B508223F
:102C800001A90448FDF778FA024801210C38417087
:102C900081700EBD3200002010B500F0EDFB002861
:102CA00002D000F004F810BD00F078FA10BD7047B3
:102CB00006488168002903D1022101700020704775
:102CC00010B500F081FA012010BD00004000002086
:102CD000F8B516460F46044600F0EEFA184D0028E7
:102CE0000CD0002F0ED0204600F0F6FB00783168A3
:102CF00081420BD2062028700020F8BD0B202870DE
:102D00000020F8BD032028700020F8BD204600F008
:102D1000BDFB04000CD0A01C0AD02278A11C3846B0
:102D20003260FDF729FA204600F0B2FA0120F8BD22
:102D30000448FDF765FA0F2028700020F8BD000058
:102D4000400000200501050010B5082804D30549FE
:102D500004200870002010BDC0B200F075FA0120F8
:102D600010BD00004000002010B50A498A68527E5C
:102D7000002A03D00C200870002010BD082803D3BF
:102D800004200870002010BDC0B200F067FA0120D6
:102D900010BD00004000002001484068704700005E
:102DA0004000002010B500F081FA10BD10B50828D1
:102DB00004D3044904200870401F10BD00F07CFAC1
:102DC00010BD00004000002010B500F079FA10BDE1
:102DD00001484068704700004802002010B500F02C
:102DE00075FA10BD10B5012400F07AFAF02816D05B
:102DF00006DC002816D0042809D0EC2812D110E0F7
:102E0000F4280AD0F82806D0FC280BD101E00024D1
:102E100008E0022406E0032404E0042402E0052480
:102E200000E00624204610BD70470000F1B5454D76
:102E300082B000242C704448EC60046044608460DC
:102E4000424800F053FAA8600125002874D03D4F95
:102E5000407E3F4902267A68012817D0102A17D8E9
:102E6000100015D00846FDF787F93948796800F059
:102E700057FB01200090029800280DD001280FD0A8
:102E800002280FD00520387000200FE03E7001E0CE
:102E9000072038700020EDE7012000F0ABFB04E0D4
:102EA000022000E0002000F0A5FB0120009908406E
:102EB0000090042000F01EFB224900208968497E12
:102EC000002903D01F482746067002E000F022FBCD
:102ED0002F461C49009889680740497E0020002938
:102EE00003D018480670204602E000F063FC284634
:102EF000074014488068407E002803D011480670BF
:102F0000204603E0012000F025FB28460D4907403C
:102F10008A680020527E002A01D00E7002E000F084
:102F200053FC2C463C40012000F07CF9002C03D0DF
:102F3000012003B0F0BDFFE702480570002003B098
:102F4000F0BD000040000020480200207D2100006C
:102F50005000002001488068407E704740000020FB
:102F60007047000010B50446082804D30C4904201B
:102F70000870002010BD00F0AFF903280DDA2046DC
:102F800000F09AF9032808DA00F08CF90621081AF3
:102F9000081A022801D3012010BD002010BD000036
:102FA0004000002010B5094A93685B7E002B03D0D7
:102FB00002201070002010BD082803D304201070D8
:102FC000002010BD00F09AFB012010BD4000002041
:102FD00010B506498A68527E002A03D00220087084
:102FE000002010BD00F01EFB012010BD400000209D
:102FF00010B506498A68527E002A03D00220087064
:10300000002010BD00F044FB012010BD4000002056
:1030100010B5114CA268527E012A11D0102913D884
:10302000002911D0002813D00A46616001460B48E0
:10303000FDF7A2F80948616800F072FA012010BD9E
:1030400002202070002010BD07202070002010BD3D
:1030500003202070002010BD400000205000002000
:1030600010B50C4902468B6800205B7E002B03D014
:1030700002200870002010BD002A06D0012A03D0CB
:103080000E200870002010BD012000F043FA01203E
:1030900010BD00004000002010B506498A68527E2D
:1030A000002A03D002200870002010BD00F09CFA16
:1030B000012010BD4000002010B506498A68527EEC
:1030C000002A03D002200870002010BD00F066FB2B
:1030D000012010BD4000002010B506498A68527ECC
:1030E000002A03D002200870002010BD00F05CFB15
:1030F000012010BD4000002010B5144902468B6825
:1031000000205B7E002B03D002200870002010BD41
:10311000072A17D213007B441B79DB189F44030E48
:103120000507090B0D00042008E0FC2006E0F8204C
:1031300004E0F42002E0F02000E0EC2000F03AFB94
:10314000012010BD0E200870002010BD400000209E
:1031500010B5FFF7FFFE002806D0FFF79DFD30BF3A
:10316000FFF7F8FE0028FBD110BD000038B504467B
:10317000012181F31088202505E06A460649204692
:103180000095FFF7A5FD2046FFF710FE0028F4DCB0
:10319000002080F3108838BD0C02002010B50120FB
:1031A00080F310880748417E002906D081780029E5
:1031B00003D10121817001F057FB002080F31088BA
:1031C00010BD00008802002070B5114C607E002800
:1031D0001CD1FEF749FD0F4DA868002802D10E480A
:1031E000FDF70EF86868002802D10C48FDF708F8D2
:1031F00001F06AFA002802D00948FDF701F8002022
:1032000001F076FA0120607601F02EFB70BD00001F
:1032100088020020BC0200205E0209005F02090053
:103220006602090010B5044604484068002802D12F
:103230000348FCF7E5FF0348047510BD600000205B
:10324000F6030900A402002010B5012181F31088C3
:1032500001F0DCF8002080F3108810BD10B50446A2
:10326000012181F3108808490878002805D0487E9C
:10327000002802D00548FCF7C3FF204601F0CCF837
:10328000002080F3108810BD88020020FA02090097
:1032900010B5012181F3108801F0DAF8002080F3E5
:1032A000108810BD10B501F0D7F810BD0148408B53
:1032B000704700005402002010B501F0E3F810BD83
:1032C00001484069704700005402002001484068EE
:1032D000704700005402002010B501F0DFF810BD67
:1032E0000148007C7047000074020020F8B50646D3
:1032F000012080F31088544C00256070032020705A
:10330000A5706560A560A581E5812561656125766B
:103310004E486576056045608560C5600561057548
:103320004B4F1830BD604560FFF7B2FB304600F0F0
:10333000EFFE01F0B7F8002001F0D2F93846FEF7B1
:10334000D9FF454A43491068FF263304984310606B
:1033500008681A1290430860404801684022B1434F
:1033600011430160012080F310882178012905D0E4
:103370006070607E00285ED001F076FA002080F355
:1033800010883046364E04223061727735483062FC
:1033900035487062354801210172022141720323D0
:1033A0008372C2720522027306224273072282735D
:1033B0000822C27305744174012282741E20706158
:1033C0004B20C000F16070602278022A02D0606851
:1033D000002833D039600F20B060022A02D0626822
:1033E000002A2ED03960002070830120307670765C
:1033F0000020307701F0D2F8692030606078012831
:1034000002D01B48FCF7FCFE01202070A57065600F
:10341000A560A581E5812561656125766576FEF764
:1034200023FC01211348890201608902016085F3B0
:1034300010880548F8BD01F0C3FA9FE7B06838600E
:10344000C9E73860CFE7000088020020A40200200E
:10345000BC02002000E400E008E400E014E400E026
:103460005402002004070A0D05080B0E7402002008
:103470003C02090080E200E00348407E002801D0C1
:1034800000207047012070478802002010B50121FC
:1034900081F3108801F03CF8002181F3108810BD01
:1034A00010B5012282F3108801F037F800280DD002
:1034B00008488178002904D1407E002801D001F01D
:1034C000D3F9002080F31088012010BD002080F384
:1034D000108810BD8802002010B501F031F810BD31
:1034E00010B5012080F3108801F02FF8002181F33E
:1034F000108810BD0549487705498A6907231B04D0
:103500009A43000402438A6170470000540200207D
:103510000015004001490876704700005402002061
:1035200070B50C00054602D10748FCF769FE002D76
:1035300002D10648FCF764FE05488560446000201F
:10354000FEF7ECFE70BD00004803090049030900C6
:10355000BC02002030B41749174C8874174B184927
:10356000184A194D00280DD0012816D0022807D17D
:1035700020614B6215488A62C86215484D63086332
:1035800030BC7047002020614B6212488A62C862DA
:1035900011484D63086330BC7047012020614B62C5
:1035A0000E488A62C8620E4808630E48486330BC01
:1035B00070470000740200200015004000500078A1
:1035C000001700404E0000543E420F8208800C60FD
:1035D0008864720003800C602264720002800C60B8
:1035E00011646600DEC08F82014948837047000085
:1035F0005402002010B5012181F3108808490A788F
:10360000824205D04870487E002805D001F02CF990
:10361000002080F3108810BD01F0D2F9F8E7000017
:1036200088020020F0B41849086200210B461826D1
:10363000DD000246EA40D2B2D407270E9407E40F19
:10364000A4013C435707FF0F7F0127431407E40FF2
:1036500024013C43D706FF0FFF003C439706FF0FB2
:10366000BF0027435406E40F64003C43D2092243C1
:10367000741BA2405B1C1143DBB2042BD8D303485C
:10368000C161F0BC704700005402002000150040EA
:10369000F0B41849486200210B461826DD000246A6
:1036A000EA40D2B2D407270E9407E40FA4013C43AA
:1036B0005707FF0F7F0127431407E40F24013C4302
:1036C000D706FF0FFF003C439706FF0FBF002743BD
:1036D0005406E40F64003C43D2092243741BA24009
:1036E0005B1C1143DBB2042BD8D303480162F0BC4E
:1036F000704700005402002000150040F8B508286B
:1037000041D2234A1218203211728207D60EFF22AC
:10371000B240D7438B07CA07DB0F120E9B0113433E
:103720004A07D20F52011A430B07DB0F1B019C46BD
:10373000CB06DB0FDD008B06DB0F9C004B06DB0F9F
:103740005B00C909042813480ED2406A3840114F63
:1037500078626046104305432C4323431943786A3B
:10376000B14001437962F8BD806A3840094FB862C0
:103770006046104305432C4323431943B86AB140C4
:103780000143B962F8BD0448FCF73AFDF8BD0000FA
:103790005402002000150040390309000149486126
:1037A0007047000054020020014948607047000043
:1037B00054020020024908740249C86070470000A2
:1037C000740200200015004001490877704700008E
:1037D0005402002070B51248124C4068407D002809
:1037E00005D0012000F0FEFBA089401CA08100262E
:1037F0000D4930464E610D494A680968551A00F076
:1038000077FF6069A84202D30948FCF7F9FC6069B8
:103810000122291A0748FCF7F7FC666170BD000019
:10382000600000208802002000F5014054020020C2
:103830004D060900AD460000F0B5FA48FA4C406963
:10384000FA4EFB4F87B0002803D1FFF77BF9002821
:1038500016D0F44D6868002801D0401E68602878B2
:10386000022802D06968002979D0F1682160A9781E
:10387000002975D0FEF704FDFDF7CCFA07B0F0BDC6
:10388000E84800250078012802D0022805D009E088
:1038900000F0A0FB002805D0B9E1387804287DD0DD
:1038A00003287BD0FEF7ECFCDE484168002901D0FC
:1038B000491E41600178022902D04168002919D0CF
:1038C000F168216004468078002815D0FDF7A2FA3F
:1038D00000F016FC022870D3032668460024067008
:1038E00001940481448144708570C57000F0CCFB64
:1038F00007B0F0BDB168E4E701F062F8002811D02C
:103900000020766800F0F4FE6069B04202D3C94836
:10391000FCF776FC60690122311AC748FCF774FC99
:103920006561D5E7207800287ED0012819D00228CB
:103930007BD0C248FCF764FC707E0128C8D1207897
:103940000228C5D061680029C2D10127BF0700281D
:103950006CD001286BD0BA48FCF752FCB8E77FE185
:1039600080E100F0C9F900F093FD002826D0708BAB
:1039700000287CD0A189814279D30121002000F068
:10398000D7FC012700F072FD0590A2890492E2891C
:10399000039200F071FD69460F7000E037E1059970
:1039A00001916946049A0A81039A4A8148708D7090
:1039B000CD70684600F068FBA7E023E100F0A0FBB3
:1039C00002287DD32078022802D06068002804D025
:1039D000FEF78AFC002832D097E02069FEF79EFCB3
:1039E0000020FEF7AFFC00F003FE002868D0A581A0
:1039F000E58100F041FD9349C86200F03DFD0121E1
:103A000081409048016300F031FD8F49086000F06B
:103A100027FD8D4948608D48C860FEF749FC8949FB
:103A2000886000F035FD03E0BEE09FE0DCE0C6E02A
:103A3000012872D000F02CFD02285CD058E0307EC6
:103A4000002828D000F0D4FD00285ED0A581E581B3
:103A500000F012FD7B49C86200F00EFD012181409B
:103A60007848016300F002FD7749086000E055E006
:103A700000F0F6FC744948607448C860FEF718FC12
:103A80007049886000F004FD012865D000F000FD59
:103A900002285FD02CE0FEF721FC2169884234D156
:103AA00000F0A6FD002830D0A581E58100F0E4FCFF
:103AB0006449C86200F0E0FC01218140614800E0F7
:103AC00023E0016300F0D2FC5F49086000F0C8FC0D
:103AD0005D4948605D48C860FEF7EAFB5949886067
:103AE00000F0D6FC012837D000F0D2FC022831D0FB
:103AF0005748FCF785FB2DE000F0FAF9FEF7BEFF12
:103B0000544908617868406848610120376800F0CE
:103B1000EFFD6069B84221D34DE01DE0FFF712F8D8
:103B2000002802D04C48FCF76BFBFEF7C1FB45496F
:103B30008968884202D0E089401CE081FEF7B8FB2A
:103B40004049886000F0A4FC012805D000F0A0FCEA
:103B50000228CDD10020CFE70120CDE76069012206
:103B6000391A3548FCF750FB6561E5E60020009006
:103B7000FEF79EFB33498968884201D1009805E031
:103B8000FEF796FB2F498860012000903978401E8F
:103B9000084201D1FCF7A0FF0020776800F0A8FDE3
:103BA0006069B842DAD306E00020776800F0A0FD33
:103BB0006069B842D2D31F48FCF722FBCEE700F081
:103BC00067FC002800D083E600F06AFD0028FAD1E7
:103BD000FEF758FF0128F6D0FEF79EFF307F002841
:103BE0000BD10120786008E0FEF74CFF0128EAD0F5
:103BF000FEF792FF307F0028F3D0002000F078FD20
:103C0000656065E61548FCF7FBFA07B0F0BD706823
:103C100001224108034841610748FCF7F5FA07B063
:103C2000F0BD000088020020BC02002054020020E9
:103C3000600000204D060900AD4600005804090050
:103C40007204090000150040A4020020ED0B0000E2
:103C50001E06090000F501400A0509008C04090050
:103C6000B16803E6022809D0FEF70AFB0020746859
:103C700000F03EFD6869A04223D31FE03878042895
:103C800029D0032827D0FEF7FBFA0024FEF710FB0B
:103C9000154FB968884203D0FEF70AFBB8600124CB
:103CA0001248641E0078044201D1FCF715FF002081
:103CB000746800F01DFD6869A04202D30C48FCF74F
:103CC0009FFA68690122211A0A48FCF79DFA002030
:103CD000686107B0F0BD706801224108054869615C
:103CE000FCF792FA07B0F0BD00150040600000201C
:103CF0004D060900AD460000F8B51C4802270760D4
:103D00001B49401788601B4807601B48002404605B
:103D10001A4E34611A49012008618861194D2878CA
:103D200001281CD002281ED003281CD00120FCF73B
:103D3000E1F9346110482C70046000200C49C04344
:103D400088600C480760F460032068703460346158
:103D500074606C602C750C486C750760F8BD0620AB
:103D6000FCF7C8F9E5E70220E1E7000080E100E0A8
:103D70000013004080E200E000120040001100400B
:103D800000100040C802002000E100E0F8B5334810
:103D9000354A06690327324B0025324C1168012E43
:103DA00005D0022E48D03148FCF72AFAF8BD042687
:103DB00006708669761C86611F602D4E0223336073
:103DC000E5602560256165602A4B08265E60097DF7
:103DD000002910D0284EB168284F817538684007F7
:103DE00002D42748FCF70CFAE561264901208861D6
:103DF0000420B860B5602068002802D02248FCF793
:103E0000FFF9E068002802D02048FCF7F9F92048C3
:103E10000068800702D51F48FCF7F2F9124C2068B1
:103E2000C068002800D080472068417D0029BDD0AF
:103E3000194900684860F8BDE56025612560656046
:103E40001D6000230B4A0570DB439360477045609B
:103E5000057508690028EED08047F8BDC80200202B
:103E600000120040001100407C000020E7020A0020
:103E700080E200E0001300404015004000F50140E2
:103E8000AD020A0000100040B6020A00B7020A00A4
:103E900000E200E0B8020A000015004010B50D492C
:103EA000022408600C4804600D480C4941620D4929
:103EB0000162FFF721FF00210B48032201704270CD
:103EC00041600161017541758175084804600648CB
:103ED00010BD00007C00002080E100E014100040D4
:103EE00000F5014004110040C802002000E100E09C
:103EF000F8B505462A4900012A4C4718207D0028BC
:103F000002D02948FCF77CF90026002D2AD0012D8B
:103F100028D0022D26D02548FCF772F92448FCF75A
:103F20006FF9002123486675C94381602249022048
:103F30000860224865700068032D0168A160406830
:103F40002661A661E0603A6862601BD21C4B3A7A37
:103F50001A60FB7A1B4A002B08D05060506800287A
:103F60000DD109E020780028DBD0D7E751605068F8
:103F7000002804D1144800E01448FCF741F90D482A
:103F8000797A41600D480068007D002805D0022D37
:103F900003D10F49A6750420486001206075F8BD63
:103FA0004C4B0000C8020020DB000A00F9020A00A6
:103FB000DD000A000013004080E200E07C000020E9
:103FC000001200400015004000010A0005010A002F
:103FD00000F5014002484068012800D000207047E9
:103FE00000110040F8B51E4C074665781D492801B0
:103FF0004618607D012802D01B48FCF701F9207D9E
:10400000002802D01948FCF7FBF801200021207598
:104010006175032D0AD2002F01D131680860022D8D
:1040200001D0012D05D1B07A207002E01048FCF7D4
:10403000E7F810480068007D00280FD0022D0DD150
:104040000D484068400702D40C48FCF7D9F80C48EA
:104050004068002802D10B48FCF7D2F8F8BD0000F8
:10406000C80200204C4B000021010A0022010A0076
:104070003A010A007C00002000F5014040010A00DE
:104080000015004041010A0070B5184D044628682B
:10409000002802D11648FCF7B3F8164E70680A28BB
:1040A00002D31548FCF7ACF8E86F0C2148434119DE
:1040B0002078087160784871A0788871E078C871BC
:1040C00060688860208988816089C8817068401C28
:1040D0007060E86F401CE867E86F0A2801D3002091
:1040E000E867012005490005086070BDEC0200206A
:1040F00034000B006C03002035000B0000E200E0F0
:10410000024840680A21081AC0B270476C030020B8
:1041100010B5040002D10748FCF772F806490C609C
:104120000020C8670549086048600120044900056F
:10413000086010BD29000B00EC0200206C03002079
:1041400000E100E0820710B5920F9043D200FF24F7
:10415000944003689140A343CA18074B012159605A
:1041600006490C68002CFCD0026008680028FCD0CE
:104170000020586010BD000000E5014000E401404F
:10418000F0B515460E460746002404E0315D3819A7
:10419000FFF7D8FF641CAC42F8D3F0BDFFB55A4816
:1041A00085B0C06F032500270F9E0C46002802D162
:1041B0005648FCF725F854480078032802D05448A4
:1041C000FCF71EF85048C06F41785248CA0701906A
:1041D000002A1ED1807C00281BD00020009005986A
:1041E00000286ED0079849070002890F000A464B45
:1041F00009060843A200D118896B00220E9B884251
:104200001A60326003905ED03F4FF86F002805D1EE
:1042100001E00120E2E74048FBF7F2FF3A4821467F
:10422000C06F08310291FEF777FB002804D0002010
:1042300035490127C86700E0002700983840009002
:10424000002F40D0029881002F48091803988861F8
:1042500008990F4236D03148005D002832D0204600
:10426000FEF7D6FA002802D12D48FBF7C9FF2046F9
:10427000FEF728FB0290002811D001982546007C0B
:10428000002805D020480069A84201D100F062F959
:104290001D490020491980310870204948550E9960
:1042A000029808600E99002909D0002802D11D4803
:1042B000FBF7A6FF002119480225015503E01A4823
:1042C000F6E712E00125009800280AD02046FEF704
:1042D00079FB3060002803D010480121015501E02E
:1042E00012483060002F01D006E00425064CE06F34
:1042F000FEF740FA0020E06703490020087000F054
:1043000029F9284609B0F0BD740300205B010C00B8
:104310005C010C00F40300206F020C008000002000
:1043200091010C0096010C009A010C00CC030020B6
:10433000F8B52D4C064620780D46012804D00228F9
:1043400002D02A48FBF75CFF002E28D020780128F5
:1043500002D02748FBF754FFE068002802D1254827
:10436000FBF74EFFE0680078002804D0E06F666835
:10437000002805D101E0002712E01F48FBF740FFAD
:1043800031460831E06FFEF7C7FA002802D000205E
:10439000E06702E01948FBF733FF022700E004273B
:1043A000002D1AD065682846FEF78CFA06000ED05C
:1043B0001348007C002804D02069A84201D100F0F5
:1043C000C9F800206119803108700E494855A0686D
:1043D000B04202D00C48FBF713FF0020207000F021
:1043E000B9F83846F8BD000074030020FC000C004A
:1043F00002010C0003010C006F020C000E010C0006
:10440000F4030020800000201E010C0010B50830CD
:10441000FEF726F910BD000070B5044609480A4DA4
:10442000007C002804D02969A14201D100F092F853
:10443000291900208031054A087010552046FEF7E2
:104440000FF970BDF40300207403002080000020E9
:1044500010B5FEF78FF910BD10B5FEF7D3F910BDFA
:104460000148C0687047000074030020014880685C
:104470007047000074030020014840687047000046
:104480007403002010B50830FEF7C2F910BD00001B
:1044900001480078704700007403002010B5FEF753
:1044A000B7F910BD70B5FEF7C3F90022144C154ED4
:1044B00010460106930001431B1999611346050636
:1044C0000146083329439D002D19A961A1188031A7
:1044D0000870E11880310870B054521C082AE8D3E3
:1044E00020706060A060E06020610749606108742E
:1044F000064A48741076E0670120887470BD000099
:104500007403002080000020F4030020B403002086
:1045100010B50830FEF7D6F910BD70B50E4604464A
:104520000025FEF76FF9002808D021463046FEF737
:10453000F3F9002802D000F00DF80125284670BDDF
:1045400010B50830FEF73EFA10BD10B5FEF758FA68
:1045500010BD0000F8B50F4C2078002819D10E4E80
:10456000307C002815D1082501276069FEF750F935
:10457000002802D03774606920616069401C606166
:10458000082801D100206061307C002801D16D1E17
:10459000EBD1F8BD74030020F403002001498874B6
:1045A00070470000F403002070B50F4D28780028F4
:1045B00002D00E48FBF724FEE86F002802D1FEF778
:1045C0001FFAE86704000CD0FF20207060780621F5
:1045D00008436070FF222021A01CFBF7DFFD0320B1
:1045E0002870204670BD0000740300203B010C00C1
:1045F00070B5264C2078002802D02548FBF700FE35
:10460000244D0026287C002825D020696060FEF714
:10461000D9F9A060002802D11F48FBF7F1FDA0687E
:104620004078C00705D1A87C002802D00220E660AF
:104630000FE060680830FEF7EBF803280BD2E06F5C
:10464000002802D1FEF7DCF9E067E060002802D024
:104650000120207002E02078002816D0A0680028F1
:1046600002D10E48FBF7CCFD206960608000011983
:10467000C87EF923401CC876A26880075178400F95
:104680001940014351702E74012070BD7403002045
:10469000C3000C00F4030020C9000C00E7000C006C
:1046A0000148007C70470000F403002004480178B2
:1046B0008170417801708800024908580047000065
:1046C000880000208C00002001480078704700001E
:1046D00088000020014840787047000088000020D2
:1046E00002498870487008707047000088000020F8
:1046F00010B50446022802D30248FBF781FD0248A8
:10470000447010BD2A000D00880000204058002889
:1047100000D0012070470322120280184068084030
:1047200000D0012070470000FEB56846FDF791FA01
:10473000274C20786178084302D1FCF7C5FB6070F4
:104740006078217801268843002500280BD0FCF7EB
:1047500089FF012832D0022801D0032801D1257019
:1047600065700028F3D02078A178884306D008210E
:104770006846FCF78FFE002823D0A6702078A17829
:1047800008421AD008216846FCF784FE00281AD097
:1047900010A0FBF7DFFF02A90020FCF7F5F968463F
:1047A000007A0028F7D16846FDF74AFA08216846E2
:1047B000FCF770FE002800D1A570FEBD2670667063
:1047C000D1E72570DAE708A0FBF7C4FFF4E70000A3
:1047D000000000204B6579626F6172642073656E22
:1047E00074204F4B0A0000004B6579626F61726460
:1047F0002073656E74204641494C45440A00000010
:10480000FF210748093100224250064881690648C5
:10481000037DC268D154017D491C017570470000B9
:104820000020004000250040C40100201FB50122E7
:1048300069460A7008720448C16801910021C17478
:1048400006C8684690471FBDC4010020FF220548E6
:10485000253200218150FF2209328150012101605F
:10486000704700000020004010B5FEF70BF901284A
:1048700020D1FFF72FFF002802D00F48FBF7C0FC24
:1048800000221E210D48FBF7BFFC0D48007F0028C9
:104890000ED10C48012141610B48002202608205C3
:1048A000116000BF00BF00BF00BF01680029FCD03D
:1048B000FEF726F910BD00002C060900AD460000E9
:1048C000540200200005004000010040FF2107487D
:1048D0001D31002242500648028A8168895C028AA2
:1048E000521C02820348C161704700000020004052
:1048F000C4010020002500401FB500216A46117048
:104900001072044882680192817406C86846904714
:104910001FBD0000C4010020704700007CB5017875
:10492000254D01290AD002292FD000292CD1294652
:104930002248FBF797FF00282ED031E0406801782D
:104940001E481038FBF7ABFF1C4C103C002805D06C
:1049500001216A4611700190684608E0A068E1688C
:10496000081A012805D10020694608706846696860
:104970008847A068E168081AA188884204D80E48D0
:104980000121801CFDF77AFD7CBD02216A46117071
:10499000C068019068460CE001210748FDF7D4FD8E
:1049A00006488168C0688842EED1032069460870D5
:1049B0006846696888477CBD08000020B401002073
:1049C000F0B53B4E83B03078717888426DD00028C6
:1049D00001D1FDF749F97078364D002400281CD12B
:1049E0000320A860FFF754FD012804D0022802D05C
:1049F000032812D104E000210846FFF799FC07E0E4
:104A0000002300941A46194618460194FFF7C6FB86
:104A1000042802D02848FBF7F3FB6C61FFF76CF920
:104A2000264D274F2C606C602C61AC60EC603078B8
:104A3000012802D0022809D01CE0FFF729FD002838
:104A400015D000210846FFF773FC10E0FFF754F97A
:104A50001C482C610470FFF71BFD032807D10023BD
:104A600000941A46194618460194FFF797FB3078D0
:104A7000022802D07068002813D01348F96801603A
:104A80007078307004256846002305700193038117
:104A9000438143708470C470FFF7F6FA012003B0BD
:104AA000F0BD0948B9680160EAE7002003B0F0BD35
:104AB0008802002000F50140E8010900A40200205E
:104AC0005402002060000020BC0200200B09080AEC
:104AD0000100000000509D001100000012000000C5
:104AE000130000001400000011000000120000007C
:104AF0001300000014000000090000000B0000007B
:104B00000A00000008000000000000000000000093
:104B100000509D0003000000090000000B00000091
:104B20000A00000008000000000000000000000073
:104B300000509D000300000032536601172D2D1A0E
:104B4000440C4023490D171A2D0B4D000010004056
:104B50001011004003100000010000000010004090
:104B6000000000000B0204000000000004100040E0
:104B70000000000007080301000000009C4B00003B
:104B8000000000209800000074070000344C000072
:104B900098000020480D000084070000000000017C
:104BA0000101000000000000000000000000000003
:104BB00000000000000000000000000000000000F5
:104BC00000000000000000000000000000000000E5
:104BD00000000000000000000024F40000000000BD
:104BE00005000000000000000000000004192A3F3A
:104BF0004D00000000000000000000000000000068
:104C000000000000000000000000000000000000A4
:104C10000000000000000000000000000000000094
:104C2000000000000000000039380000D537000007
:044C30000000000080
:04000005000000C136
:00000001FF
