:020000040000FA
:10000000F80B0020F50000000F01000011010000B6
:1000100000000000000000000000000000000000E0
:1000200000000000000000000000000013010000BC
:100030000000000000000000150100001701000092
:1000400019010000B1290000190100001901000088
:100050001901000000000000190100001901000052
:1000600019010000190100004326000019010000D9
:100070001901000019010000190100001901000018
:100080001901000019010000190100001901000008
:10009000612C000019010000190100001901000085
:1000A000190100001901000000000000000000001C
:1000B0000000000000000000000000000000000040
:1000C0000348854602F07EFE00480047DD2E000012
:1000D000F80B0020401E00BF00BF00BF00BF00BFE4
:1000E00000BF00BF00BF00BF00BF00BF00BFF1D115
:1000F000704700000321094802680A43026008486B
:1001000002680A4302600748804707480047FEE745
:10011000FEE7FEE7FEE7FEE7FEE7000024050040FD
:1001200054050040E92D0000C1000000014610B553
:100130000020002903D0012900D010BD012000F0CB
:1001400048FD012010BD014610B50220002908D04D
:10015000012908D0022907D0F84801F0E5FE002067
:1001600010BD002000E0012000F0CDFA012010BDFC
:1001700010B5012400280BD001280BD0022802D092
:10018000EF4801F0D1FE204602F040FF012010BDF3
:100190000224F8E70024F6E710B50024072814D25B
:1001A00001007944097949188F4403120507090BA6
:1001B0000D0004240CE0FC240AE0F82408E0F424F8
:1001C00006E0F02404E0EC2402E0DE4801F0ACFE9E
:1001D000204602F065FF012010BD014610B5032046
:1001E000002905D0012906D0022903D0002010BD26
:1001F000022000E0042000F063FB012010BD10B5D8
:10020000002803D0012803D0002010BD012000E009
:10021000022000F08CFD012010BD014610B5CA4837
:10022000C068407E002801D0002010BDC748817002
:100230000121801C00F03DFF012010BDF8B5030432
:100240001C0E93B2C7B2020E00020016BE4E45420B
:10025000062F54D2380078440079001887440215DC
:100260002B4B1448B948002A0380084601D00121CD
:1002700000E00021317000F0A2FE2946204602F085
:100280007DFE307800282ED1F8BDB04D08462B8079
:100290004978CE07F60F00F092FEE878002801D0EA
:1002A000002E03D0204602F05FFEF8BD002120465C
:1002B00002F064FEF8BD002A01D0012000E0002019
:1002C00030700E4600280ED0002E02D0A048864284
:1002D00002D1A04801F028FE304600F070FE294609
:1002E000204602F04BFE2946204602F00DFEF8BDE6
:1002F00002F008FEF8BD984801F016FEF8BD9748D8
:10030000FAE7F8B50546964800F026FD8E49012625
:100310008E4AC860D670002830D000241480407EF9
:10032000002801D0002706E00A2090700121901CCF
:1003300000F0BFFE0127002D02D0012D06D101E003
:10034000012000E0022000F0F2FC34463C40042092
:1003500000F0B6FA3546002002F0A2FE284602F070
:1003600055FE284600F0CFF9002000F032FC0120B5
:1003700000F0CAFE002C01D00120F8BD0020F8BD1D
:1003800010B500F099FD10BD10B500F0B8FD00F0FB
:10039000C9FD002802D002F0B5FD10BD00F0AFFD90
:1003A00010BD10B500F0BEFD0121484010BD082869
:1003B00001D300207047FFB581B0064602981F4662
:1003C0001546002828D0202D28D800F03CFE002813
:1003D00022D0304600F02FFE03281FD2304600F016
:1003E0002EFE03281AD200F0E0FD040016D025707E
:1003F000002F16D0012F18D05A4801F095FD2A463B
:10040000A01C029902F0BAFCF0B2214600F0E1FD16
:1004100000280FD000BF012005B0F0BD002005B0BE
:10042000F0BD60780121084302E060784008400098
:100430006070E4E74C4801F077FD002005B0F0BDA6
:1004400070B516460D46044600F0F9FD002812D09E
:10045000002D11D0204600F0D6FD04000ED0A01CC7
:100460000CD02278A11C2846326002F087FC20467E
:1004700000F0A5FD012070BD002070BD3B4801F0DB
:1004800053FD002070BD10B500F0D5FD10BD10B5B6
:1004900000F0D5FD10BD10B5C0B200F0D8FD10BD04
:1004A00010B5C0B200F0E9FD10BD284800887047C3
:1004B00010B500F077FD012807D0022807D00024EE
:1004C0002B4801F031FD204610BD0024FBE701243C
:1004D000F9E710B500F003FE022808D0032808D081
:1004E000042808D0234801F01FFD022010BD002081
:1004F00010BD012010BD022010BD1349C968497EFE
:10050000002901D00020704710B500F0A8F90120A3
:1005100010BD10B500F0BBFD10BD0B49C968497E88
:10052000002901D00020704710B500F067F90120C4
:1005300010BD10B500F0AEFD10BD00008E0202002F
:100540005B0202001C0202000800002010000020D4
:10055000ADDEADDE290302003303020038030200E2
:100560003D020000B6000200BC000200E2000200F2
:1005700032010200620102005B4AD268527E002A08
:1005800001D1082801D30020704710B500F0EDF824
:10059000012010BD082801D30020704710B50C467B
:1005A00000F07BFD2070012010BD10B500F09AFD19
:1005B000012010BD10B500F098FD10BD4A49C96872
:1005C000497E002901D00020704710B500F031FBB2
:1005D000012010BD10B500F08BFD10BD4249C96867
:1005E000497E002901D00020704710B500F0FAFACA
:1005F000012010BD10B500F084FD10BD3B4880788F
:10060000704710B502F0FCFCF0281CD006DC002876
:1006100011D004280DD0EC2806D116E0F42810D013
:10062000F8280CD0FC2808D0314801F07DFC0120CE
:1006300010BD002010BD012010BD022010BD032000
:1006400010BD042010BD052010BD062010BD10B542
:1006500002F0D0FC00280AD001280AD0022804D0D9
:10066000244801F061FC022010BD002010BD0120D3
:1006700010BD022010BD10B502F0B6FC002807D056
:10068000012805D0022803D01B4801F04DFC0220B0
:1006900010BD10B5002400F049FD002804D0012849
:1006A00004D0164801F040FC204610BD0124FBE7B1
:1006B00010B5012000F089FA0C490120C87010BD66
:1006C00010B5002000F081FA08490020C87010BD64
:1006D00081000B480918C87E401EC8767047024842
:1006E0004168491C4160704708000020100000204C
:1006F0004302020075020200A8020200D1020200B9
:10070000E4000020704710B5FE494874FE494A6B6A
:10071000120A12024A63002809D001280AD00228CE
:1007200011D0032818D0F94801F0FEFB10BD486B2A
:10073000486310BD486B012210434863FF20C86323
:10074000FF20083006E0486B022210434863F0485F
:10075000C863F048886310BD486B032210434863A8
:10076000ED48C8630020886310BDF8B5082841D261
:10077000EA4A1218203211728207D60EFF22B240C6
:10078000D7438B07CA07DB0F120E9B0113434A079F
:10079000D20F52011A430B07DB0F1B019C46CB06FD
:1007A000DB0FDD008B06DB0F9C004B06DB0F5B00D5
:1007B000C9090428D4480ED2406A3840D24F786222
:1007C0006046104305432C4323431943786AB140E4
:1007D00001437962F8BD806A3840CB4FB862604609
:1007E000104305432C4323431943B86AB1400143E6
:1007F000B962F8BDCA4801F097FBF8BDF0B4C7492B
:10080000486200210B461826DD000246EA40D2B2BB
:10081000D407270E9407E40FA4013C435707FF0FAA
:100820007F0127431407E40F24013C43D706FF0F41
:10083000FF003C439706FF0FBF0027435406E40F19
:1008400064003C43D2092243741BA2405B1C114349
:10085000DBB2042BD8D3AC480162F0BC7047F0B4D3
:10086000AE49086200210B461826DD000246EA4028
:10087000D2B2D407270E9407E40FA4013C435707D4
:10088000FF0F7F0127431407E40F24013C43D706E1
:10089000FF0FFF003C439706FF0FBF00274354069E
:1008A000E40F64003C43D2092243741BA2405B1C4A
:1008B0001143DBB2042BD8D39348C161F0BC70471D
:1008C0009649487790498A6907231B049A43000494
:1008D00002438A617047F8B5924D00206861032693
:1008E000AE609149C8630120C863874C606989156F
:1008F00088436061606900090001801D6061606972
:100900000F2109048843310440186061A069012166
:1009100049068843A061A06949100843A061A06905
:10092000000A00022030A061A069FF21090288436B
:10093000A0617E490220086001F07FFEE8617C48EA
:10094000A8616E607B4801F006FF7B4948607348F0
:10095000A269417F07231B049A4309040A43A26149
:100960000021036A0A461827D6001846F040C0B294
:100970008507C407ED0F240EAD0125434407E40F9E
:1009800064012C430507ED0F2D012543C406E40F38
:10099000E4002C438506ED0FAD0025434406E40F2B
:1009A00064002C43C0092043BC1BA040521C0143DF
:1009B000D2B2042AD8D35448C16158480021436AAE
:1009C0000A46D6001846F040C0B2C407250E840778
:1009D000E40FA4012C434507ED0F6D0125430407E7
:1009E000E40F24012C43C506ED0FED0025438406DA
:1009F000E40FA4002C434506ED0F6D002543C0090C
:100A00002843BC1BA040521C0143D2B2042AD8D3B5
:100A10003D4D2962414E002430192030007A082CC7
:100A20004ED2A107C90EFF228A40D243042C23D202
:100A30006B6A13406B62C207130E8207D20F9201DA
:100A40001A434307DB0F5B0113430207D20F120166
:100A50001A43C306DB0FDB0013438206D20F92005A
:100A60001A434306DB0F5B001343C0091843884059
:100A7000696A0843686226E0AB6A1340AB62830789
:100A8000C207DB0F120E9F0117434207D20F53011B
:100A90000207D20F3B4312011A43C306DB0FDB00F0
:100AA00013438206D20F97004206D20F52001F4313
:100AB0003A43C00910438840A96A0843A86202E08B
:100AC000174801F031FA641C082CA5DB0D4C207C82
:100AD000E860607C696B090A09026963002841D0FB
:100AE000012842D002284AD0032850D0074801F0FC
:100AF0001BFAA07C114B1249124C134A00284FD00C
:100B0000012823E09000002000150040C2030900E6
:100B1000FFFF000021100100FFFFFF007000002018
:100B20003903090000F50140C01F004080E200E0E9
:100B300004110040C0000020180000200050007880
:100B4000001700404E0000543E420F8232D002286F
:100B500007D128618C62F7484B62C862F6484A6345
:100B60000863F8BD686B6863C3E7686B01210843DD
:100B70006863FF20E863FF200830A863B9E7686B6B
:100B8000022108436863ED48E863ED4806E0686BBE
:100B9000032108436863EB48E8630020A863A8E7E3
:100BA000002028618C62E8484B62C862E7484A63CB
:100BB0000863F8BD012028618C62E5484B62C86279
:100BC000E4480863E4484863F8BD10B501F0A0F9B3
:100BD00010BDE24908777047E04948767047DF4921
:100BE00008767047DD494883704710B4DB49DC4A1A
:100BF00088601478DB4B022C02D05268002A03D0A4
:100C0000C868186010BC7047186010BC704710B4FA
:100C1000D249D34AC8601478D24B022C02D0526811
:100C2000002A02D0186010BC70478868186010BC99
:100C30007047CA4948607047C84948617047F0B575
:100C4000C74E83B03078717888426DD0002801D1CA
:100C5000FFF741FE7078C44D002400281CD103200A
:100C6000A86001F0EEF8012804D0022802D0032881
:100C700012D104E00021084600F0A2FF07E00023A3
:100C800000941A4619461846019401F024F80428E5
:100C900002D0B64801F048F96C6101F023FDB44D73
:100CA000AE4F2C606C602C61AC60EC603078012839
:100CB00002D0022809D01CE001F0C3F8002815D0AA
:100CC0000021084600F07CFF10E001F00BFDA94870
:100CD0002C61047001F0B5F8032807D100230094BB
:100CE0001A4619461846019400F0F5FF307802289C
:100CF00002D07068002813D09A48F96801607078B3
:100D000030700425684600230570019303814381F8
:100D100043708470C47001F06BFF012003B0F0BD1C
:100D20009048B9680160EAE7002003B0F0BD10B553
:100D3000012181F310888A490A78824205D04870DF
:100D4000487E002805D000F008FE002080F31088BF
:100D500010BDFFF774FFF8E7F8B50646012080F3F1
:100D600010887F4C0025607003202070A57065609E
:100D7000A560A581E5812561656125767C4865765C
:100D8000056045608560C56005610575754F183063
:100D9000BD60456001F0AEFB304601F017FF00F08A
:100DA00061FE002001F0ACFF384601F0C1F8734A43
:100DB00071481168FF231B049943116001681A12DE
:100DC000914301606E4801684022090A09021143FB
:100DD0000160012080F310882178012905D060701E
:100DE000607E002861D000F0B8FD002080F31088FC
:100DF000411E5A4E04203161707762483062624869
:100E000070626248E7220272C2224272C322827278
:100E1000C422C272C5220273C6224273C7228273E1
:100E2000C822C27300220274022343740125857410
:100E30004B207261C000F16070602278022A02D0FB
:100E40006068002834D0084638600846B160022A3D
:100E500002D06268002A2DD03960102070830120F2
:100E6000307670760020307701F052F869203060DB
:100E70006078012802D0464801F056F82570002518
:100E8000A5706560A560A581E58125616561257610
:100E90006576FFF720FD01213E4889020160890245
:100EA000016085F310882E48F8BDFFF7C8FE9CE767
:100EB000B068C9E73860D0E770B5294C607E00287B
:100EC0001CD1FFF708FD274DA868002802D1324841
:100ED00001F02AF86868002802D1304801F024F8AF
:100EE00001F01DFF002802D02D4801F01DF8002060
:100EF00001F00BFF0120607600F02FFD70BD10B5F2
:100F0000012080F310881648417E002906D08178A0
:100F1000002903D10121817000F01FFD002080F322
:100F2000108810BD0E48407E002801D00020704778
:100F30000120704708800C6088647200FFFF000089
:100F400021100100FFFFFF0003800C60226472008B
:100F500002800C6011646600DEC08F827000002089
:100F6000A4000020D800002000F50140E80109009D
:100F7000C00000201800002000E400E008E400E0C9
:100F800014E400E0E7E7E7E7C2C2C2C29000002035
:100F90003C02090080E200E05E0209005F020900F5
:100FA00066020900FE480078704710B5012080F302
:100FB000108800F08AFD002181F3108810BD10B563
:100FC000012181F3108800F07EFE002080F310885C
:100FD00010BD10B5012282F3108800F061FF0028D7
:100FE0000DD0EF488178002904D1407E002801D03F
:100FF00000F0B3FC002080F31088012010BD002019
:1010000080F3108810BD10B5012181F3108800F025
:1010100075FF002181F3108810BD10B500F069FF45
:1010200010BD10B5012181F3108800F057FD00219B
:1010300081F3108810BD10B500F049FE10BD10B549
:1010400000F047FD10BD10B500F026FF10BD10B533
:101050000446012181F31088D1490878002805D081
:10106000487E002802D0CF4800F05EFF204600F006
:101070002AFF002080F3108810BD10B5012181F3F4
:10108000108800F040FF002080F3108810BDC64893
:10109000006A7047C448406A704710B50446082883
:1010A00002D3C24800F040FFBF4800192030007A48
:1010B00010BD70B50C00054602D1BD4800F034FFEC
:1010C000002D02D1BB4800F02FFFBB488560446073
:1010D000002001F020F870BDB34840697047B24865
:1010E000407F7047B04908617047AF48006970475A
:1010F000AD4840687047AC48C0687047AA488068EF
:101100007047A948408B704710B50446AB4840680B
:10111000002802D1AA4800F007FFAA48047510BDB4
:10112000A148007E7047A048407E70479E48007FDF
:10113000704710B5A1490520087000F0A5F810BD52
:10114000F0B5A1488BB00368A0499E4A012B02D09C
:101150004B6B002B05D153681B78202B01D8012342
:1011600000E00023954D03242C700024954A002BA9
:10117000146057D084688268CA62924A03A90192B7
:101180000091C26801232146184600F0A4FD002802
:1011900024D0012805D0022824D003284FD08C4821
:1011A0004BE00398002802D08A4800F0BDFE20469C
:1011B00000F08FFC002802D1874800F0B5FE686877
:1011C0000222817D684600260270019606814681D2
:1011D00044708170C67001F00BFD30E07F4800F074
:1011E000A3FE2CE00398002802D17D4800F09CFE6D
:1011F000204600F06EFC002802D17A4800F094FEF0
:1012000068680222817D039E6846027000236A4658
:10121000019613815381447001278170C77001F0DA
:10122000E7FC0CE0002000900346024601460190D6
:1012300000F051FD042802D06B4800F075FE614CAF
:101240002068002807D001206075684820610420CC
:1012500028700BB0F0BD01F045FA002060752061E8
:1012600000F012F80BB0F0BD10B5544C20780128F6
:1012700002D05F4800F058FE022020705148002143
:1012800001615C49C16010BD70B501F02BFA4D4C95
:1012900000254A4E01202561307043484B490069C2
:1012A000086300F0CEFD00281FD000F0CAFD03281F
:1012B00002D0514800F038FE022001F07BFA0020F5
:1012C00001F0D0FA00F0BDFD032802D04B4800F039
:1012D0002BFE3078012802D0454800F025FE022080
:1012E000307044482561E06070BD01F0B3FC022815
:1012F000E2D300F0C9FC60600028DDD14048D9E7A6
:10130000F0B5314885B00068012803D02F48406B04
:10131000002806D12B4840680078202801D80125F4
:1013200000E000251E4C01266069002804D101F070
:101330001FF9002800D1666100F083FD012802D06A
:10134000304800F0F1FD1D484068007D002802D0C3
:101350002D4800F0E9FD01F0C5F9002D7AD00121FA
:10136000084600F02DFC052878D20100794409795F
:1013700049188F44027054707000002700F07EFC02
:101380000390A689E58900F076FC02460B48694681
:101390004068837D0F70039901910020694635E014
:1013A000A4000020FA020900700000204103090097
:1013B0004803090049030900D80000201800002054
:1013C000F6030900C0000020001400400015004092
:1013D000C8050900B8050900B9050900BD050900DF
:1013E000C0050900C1050900CF050900331100003F
:1013F00092050900411100008005090088050900D7
:101400007B050900A8060900A90609000E814D8187
:101410004A708B70C870684601F0EAFB1EE0002736
:1014200000F02CFC0390A689E58900F024FC02461C
:10143000FB4869464068837D0F70039901916946B6
:101440000E814D814A7001208B70C870684601F092
:10145000CFFB03E013E0F34800F066FD00F068FE08
:101460002061F148F149426962602378022B01D082
:10147000002A06D0C0680860002000F05CFE05B0BD
:10148000F0BD8068F7E7F0B5E948E84C4069E64E02
:10149000E34F87B0002803D101F06AF8002816D086
:1014A000E34D6868002801D0401E68602878022853
:1014B00002D0696800297DD0F1682160A9780029EF
:1014C00079D000F042FD00F06FFA07B0F0BDD848C7
:1014D00000250078012802D0022805D009E001F09B
:1014E000E9FD002805D0C5E1387804287DD003281F
:1014F0007BD000F02AFDCE484168002901D0491E6A
:1015000041600178022902D04168002909D0F168C0
:10151000216004468078002805D000F045FA07B025
:10152000F0BDB168F4E7FFF78AFB002812D0002075
:10153000766801F0EAFB6069B04202D3BD4800F072
:10154000F3FC60690122311ABB4801F014F86561AF
:1015500007B0F0BD207800287ED0012818D00228DE
:101560007BD0B64800F0E0FC707E0128F0D12078F6
:101570000228EDD061680029EAD10127BF070028C1
:101580006CD001286BD0AE4800F0CEFC07B0F0BDA7
:1015900001F0A8F800F055FC002827D0708B002837
:1015A0007DD0A18981427AD30121002000F008FB7F
:1015B000012701E068E169E100F060FB0590A28984
:1015C0000492E289039200F056FB69460F70059978
:1015D00001916946049A0A81039A4A8148708D7084
:1015E000CD70684601F004FBA7E043E101F032FB57
:1015F00002287DD32078022802D06068002804D019
:1016000000F0A6FD002832D097E0206900F083FDAD
:10161000002000F090FD00F065FA002868D0A58158
:10162000E58100F028FB8749C86200F024FB012116
:1016300081408448016300F021FB8349086000F089
:1016400020FB814948608148C86000F054FD7D4915
:10165000886000F0F6FB03E0BEE09FE0FEE0C6E03D
:10166000012872D000F0EDFB02285CD058E0307EFB
:10167000002828D000F036FA00285ED0A581E58148
:1016800000F0F9FA6F49C86200F0F5FA01218140D3
:101690006C48016300F0F2FA6B49086000E055E025
:1016A00000F0EFFA684948606848C86000F023FD20
:1016B0006449886000F0C5FB012865D000F0C1FBDB
:1016C00002285FD02CE000F033FD2169884234D13C
:1016D00000F008FA002830D0A581E58100F0CBFAAF
:1016E0005849C86200F0C7FA01218140554800E01E
:1016F00023E0016300F0C2FA5349086000F0C1FA28
:10170000514948605148C86000F0F5FC4D49886077
:1017100000F097FB012837D000F093FB022831D06E
:101720004B4800F001FC2DE001F044F800F087FF89
:10173000484908617868406848610120376801F0CD
:10174000E4FA6069B84221D34DE01DE000F010FFDB
:10175000002802D0404800F0E7FB00F0CCFC3949FB
:101760008968884202D0E089401CE08100F0C3FC17
:101770003449886000F065FB012805D000F061FB6A
:101780000228CDD10020CFE70120CDE760690122FA
:10179000391A294800F0EFFE6561E5E60020009067
:1017A00000F0A9FC27498968884201D1009805E02A
:1017B00000F0A1FC23498860012000903978401E88
:1017C000084201D1FFF760FD0020776801F09DFA23
:1017D0006069B842DAD306E00020776801F095FA34
:1017E0006069B842D2D3134800F09EFBCEE700F008
:1017F00028FB002800D0C9E600F064F90028FAD1DF
:1018000000F0B3FE0128F6D000F09FFE307F0028E4
:101810002DD0002001F079FA656007B0F0BD00001E
:1018200018000020C806090070000020D800002021
:10183000A40000204D060900312D000058040900C5
:101840007204090000150040C000002001130000D0
:101850001E06090000F501400A05090000F085FE9A
:101860000128DAD000F071FE307F0028D1D10120AC
:101870007860CEE77068012241086F4841616F4887
:1018800000F079FE07B0F0BDB16816E6022809D075
:1018900000F05BFB0020746801F037FA6869A04231
:1018A00023D31FE03878042829D0032827D000F05C
:1018B0004CFB002400F01FFC614FB968884203D044
:1018C00000F019FCB86001245E48641E00780442F0
:1018D00001D1FFF7D9FC0020746801F016FA68699D
:1018E000A04202D3584800F01FFB68690122211A68
:1018F000524800F040FE0020686107B0F0BD7068FB
:10190000012241084D48696100F035FE07B0F0BD85
:1019100070B54C48484C4068407D002805D00120F7
:1019200000F0A0FFA089401CA08100264749304656
:101930004E6147494A680968551A01F0E6F960693D
:10194000A84202D3404800F0EFFA60690122291A48
:101950003A4800F010FE666170BD10B500F005FE5B
:10196000012820D101F0E1F9002802D0394800F027
:10197000DBFA00221E21314800F0FDFD3448007FD3
:1019800000280ED134480121416134480022026010
:101990008205116000BF00BF00BF00BF01680029C1
:1019A000FCD000F0CBFD10BD30B5234D83B0687E78
:1019B00000283AD000F0D9FD002401280CD000F016
:1019C000C4FD2348007F002802D101208107486020
:1019D000002001F09AF96C6000F084FEAC706C7627
:1019E000052168460170019404814481447084702B
:1019F000C47001F0FDF81348144904700320886096
:101A000000F01FFA012812D0022810D003280CD1B0
:101A1000002300941A4619461846019400F05BF919
:101A2000042802D00E4800F07FFA03B030BD002138
:101A3000084600F0C5F8F3E7A4000020312D0000AF
:101A400000150040180000204D06090000F5014077
:101A5000700000202C060900000500400001004035
:101A6000E801090070B500F089FB0022F64CF74E42
:101A700010460106930001431B19996113460506A0
:101A80000146083329439D002D19A961A118803111
:101A90000870E11880310870B054521C082AE8D34D
:101AA00020706060A060E0602061E94960610874B6
:101AB000E84A48741076E0670120887470BDE349F5
:101AC000085C7047E248007C704710B500F098FB56
:101AD00010BD10B5083001F065FA10BD10B500F06A
:101AE0005EFC10BD70B5D84C2078002802D0DA48D2
:101AF00000F01AFAD64D0026287C002825D020694F
:101B0000606000F04CFCA060002802D1D34800F0D7
:101B10000BFAA0684078C00705D1A87C002802D045
:101B20000220E6600FE06068083001F03BFA03280D
:101B30000BD2E06F002802D100F062FBE067E060AA
:101B4000002802D00120207002E02078002816D062
:101B5000A068002802D1C24800F0E6F92069606060
:101B600080000119C87EF923401CC876A26880074E
:101B70005178400F1940014351702E74012070BDFF
:101B8000F8B5B14C2078002819D1B14E307C00282E
:101B900015D108250127606901F004FA002802D058
:101BA0003774606920616069401C6061082801D158
:101BB00000206061307C002801D16D1EEBD1F8BDA2
:101BC000F8B5A14C064620780D46012804D002281D
:101BD00002D0A44800F0A8F9002E28D020780128CF
:101BE00002D0A14800F0A0F9E068002802D19F4887
:101BF00000F09AF9E0680078002804D0E06F666889
:101C0000002805D101E0002712E0994800F08CF986
:101C100031460831E06F00F058FB002802D0002068
:101C2000E06702E0934800F07FF9022700E0042714
:101C3000002D1AD06568284600F08DFB06000ED0F6
:101C40008348007C002804D02069A84201D1FFF716
:101C500097FF00206119803108707C494855A068C1
:101C6000B04202D0844800F05FF900202070FFF7F6
:101C700087FF3846F8BD74484068704772488068EE
:101C800070477148C068704770B56F4D287800285C
:101C900002D07A4800F048F9E86F002802D100F03D
:101CA000AFFAE86704000CD0FF20207060780621AE
:101CB00008436070FF222021A01C01F071F803206E
:101CC0002870204670BD10B500F0C8FA10BD10B5E0
:101CD00001F068F910BDFFB55B4885B0C06F032502
:101CE00000270F9E0C46002802D1654800F01CF921
:101CF00055480078032802D0624800F015F9524890
:101D0000C06F41785248CA070190002A1ED1807CDA
:101D100000281BD000200090059800287CD0079850
:101D200049070002890F000A474B09060843A20031
:101D3000D118896B00220E9B88421A603260039092
:101D40005DD0414FF86F002805D101E00120E2E7A6
:101D5000474800F0E9F83C482146C06F083102913D
:101D600000F0B3FA002804D0002037490127C867E3
:101D700000E00027009838400090002F3FD00298E4
:101D80008100314809180398886108990F4235D0BD
:101D90002E48005D002831D0204601F003F90028CC
:101DA00002D1394800F0C0F8204600F0D4FA029081
:101DB000002811D001982546007C002805D0224833
:101DC0000069A84201D1FFF7DBFE1F490020491935
:101DD000803108701D4948550E99029808600E9987
:101DE000002909D0002802D1284800F09DF80021E0
:101DF00016480225015502E02548F6E7012500981E
:101E000000280BD0204600F0CAFA3060002804D029
:101E10000E480121015502E004E01E483060002F09
:101E200001D006E00425084CE06F00F017FA00200E
:101E3000E067054900200870FFF7A2FE284609B0B8
:101E4000F0BD014800787047E40000202000002029
:101E50006401002024010020C3000C00C9000C0014
:101E6000E7000C00FC000C0002010C0003010C0058
:101E70006F020C000E010C001E010C003B010C0057
:101E80005B010C005C010C0091010C0096010C0040
:101E90009A010C003C01002010B501F07DF810BD46
:101EA00070B50E460446002501F076F8002808D0EB
:101EB0002146304600F009FA002802D0FFF760FE04
:101EC0000125284670BD70B504461448144D007CA9
:101ED000002804D02969A14201D1FFF751FE291938
:101EE000002080310F4A08701055204600F06FFA2C
:101EF00070BD10B5083000F052FA10BD10B50830B2
:101F000000F029FA10BD10B5083000F060FA10BDDD
:101F10000249887470470148807C70476401002042
:101F2000E40000202000002010B5FEF7D8FB10BD13
:101F300010B5040002D18848FFF7F6FF874800215A
:101F4000046087480160416010BD85484168021FF8
:101F5000491C416012681368994208D3002343600A
:101F60000168491C01605268914200D303607047C8
:101F7000002832D0F8B57A4A131F176851681C68D8
:101F800001281CD00E1810464660256830462946A8
:101F900000F0DEFEC3197248AE42036005D321682B
:101FA0004268521A42608A42FAD261686C488B4297
:101FB00004D30268521A02608A42FAD2F8BD491C60
:101FC000516020688142F9D37F1C00201760506067
:101FD00061688F42F2D31060F8BD70475F48604976
:101FE000006849680068401A704770B55B4D044648
:101FF00028684068A04202D85A48FFF795FF584821
:102000000168A1420DD0A14202D32A685268141976
:102010002A6840681268131A601A401E5043181844
:1020200070BD002070BDF8B50D4600260446A842DC
:1020300002D34D48FFF778FF484F38680068A84240
:1020400002D24A48FFF770FF45484068A04201D3DA
:10205000A84207D3A04201D2261A03E039680968D2
:10206000081A06193046F8BDF8B53C4E05463068EA
:10207000144640680F46A04202D83A48FFF754FF82
:1020800037480068A04210D0354AA04202D33168D8
:1020900049680C19316852680968201A401E8A1A6A
:1020A0004843101801D04019F8BD0024BD4202D3A6
:1020B0002D48FFF739FF30680068B84202D22B483C
:1020C000FFF732FF26484168A94201D3B94207D33E
:1020D000A94201D26C1A03E030680068401A441922
:1020E000336820461A68511A8142DDD85968491E62
:1020F00051430819F8BD70B5194C251F296820688F
:102100004968884202D31A48FFF70EFF2868216801
:102110008068405C70BD10B5044610480068406897
:10212000A04202D81348FFF7FFFE0D48046010BD1F
:102130000B480068704710B50446084800680068FE
:10214000A04202D80C48FFF7EFFE0548446010BDDE
:1021500003484068704700002A0001002800002062
:102160002C000020680001007D0001007E000100BD
:10217000B2000100B9000100C500010070B40020E8
:10218000CB4A01464300C3189C186170A170D1541A
:10219000401C1028F6D30021C64DC74BDE240A464A
:1021A000222042438E0050199851AC5444708470E0
:1021B000C470047144718471C47104724472847275
:1021C000C472047344738473C47304744474847455
:1021D000C474047544758475C47504764476847635
:1021E000C476047744778477C47720300470491C20
:1021F00044700629D3D3B1490620086070BC7047EB
:1022000070B5AE4900240A68002A25D09000AA4B78
:10221000AB4DC0188038C46F521EC5670A600021DC
:10222000002A0BD988001D58A54203D1A548FFF705
:102230007BFE0EE0491CC9B29142F3D39D480021B8
:1022400022224A431318A34206D0491CC9B20629C8
:10225000F6D39D48FFF768FE204670BD70B5974CD9
:1022600005462068062802D39848FFF75DFE2168DE
:102270000020914E00290BD98200B258AA4203D106
:102280009048FFF751FE0EE0401CC0B28842F3D3E5
:102290008848002122224A431318AB4206D0491C29
:1022A000C9B20629F6D38A48FFF73EFE2068844962
:1022B00080003058884202D08648FFF735FE2068FB
:1022C00081007550401C206070BDF8B50D46044675
:1022D000102902D38048FFF727FE784900200968BB
:1022E000064600290CD9744A8300D358A34203D16F
:1022F0007448FFF719FE0EE0401CC0B28842F3D3C9
:102300006C480022222151430B18A34206D0521CD4
:10231000D2B2062AF6D37148FFF706FE6800644A77
:102320002918505C032814D20C2045436C482B1804
:1023300088184578AD005C514478641C447044783A
:10234000401C032C00D30670505C401C50540120EC
:10235000F8BD0020F8BD70B500250446102802D352
:102360006048FFF7E1FD600051492218885C0028B1
:1023700013D00C2044435A48231850188478A400E2
:102380001D598478641C84708478801C032C01D3CC
:1023900000230370885C401E8854284670BD10B529
:1023A0000446102802D35048FFF7BEFD60002118F4
:1023B0003F48425C002A08D00C225443484AA218E5
:1023C000081880788000105810BD002010BDF0B5AE
:1023D00083B00546102802D34448FFF7A5FD2846E0
:1023E0000C2148433E494018019068002E1830489F
:1023F00030180090102D02D33A48FFF795FD2C4974
:10240000885D002851D00098019A83789B00D458A9
:102410008278521C82708278801C032A01D30022A9
:102420000270885D401E8855002C3ED024488442AE
:1024300002D12F48FFF778FD204F3868062802D3D5
:102440002248FFF771FD1D490020096800290CD9B9
:10245000194A8300D358A34203D11A48FFF764FDF9
:102460000EE0401CC0B28842F3D312480021222261
:102470004A431318A34206D0491CC9B20629F6D311
:102480001348FFF751FD0D480B4F00688000395885
:102490000B48814202D00F48FFF746FD074801680C
:1024A0008A00BC50491C0160A4E703B0F0BD0000E5
:1024B0007801002080020020680200203400002003
:1024C000ADDEADDEF60003007D00030085000300F5
:1024D00086000300880003008F00030090000300C3
:1024E000A8010020A6000300B7000300D7000300E6
:1024F000DB00030070B5684801254560C560674E84
:102500000024B4606648456066484068002802D0F0
:102510006548FFF709FD00206449C04388606448AE
:102520000460042030616348446005704470847026
:102530000815614908606149086070BD564901206D
:1025400008605C4900200870704710B452480121AF
:102550004160C16000225748574C426042708B0274
:1025600023608270017010BC704752480078704739
:10257000504840787047F7B50746002401204B4982
:102580000004154688604B4EB078002802D04C48B5
:10259000FFF7CAFC002F02D14A48FFF7C5FC70685C
:1025A000002802D04848FFF7BFFC28467760012783
:1025B0003C4D002820D0012828D0022824D04348B0
:1025C000FFF7B2FC3A48B770002101600199611829
:1025D00089B229602E6832494F606D680068002812
:1025E00002D03B48FFF7A0FCA64211D3A54201D37D
:1025F000B5421CD3374818E0294847606C6807602B
:102600002B4900200860DDE7AC68DBE72C68D9E7E0
:10261000B54201D2012000E00020AC4201D80121E6
:1026200000E00021884202D12B48FFF77DFC012009
:102630001E490004486003B0F0BD284870471C489C
:10264000704770B5012019490004886018480025BA
:102650000560184C6068002802D12148FFF764FC2F
:10266000A57063680E480122656042600D484168AC
:10267000006895031430A94205D20325AD03A84292
:1026800001D9627005E0814201D3012000E0002001
:102690006070984770BD000000A0004000A5004099
:1026A00040A0004040A500403500040000A30040C9
:1026B00040A100403800002080E200E000E100E09E
:1026C0007300040075000400760004008900040013
:1026D0009B000400B0000400C900040048A00040B2
:1026E000EC000400F8B5FF4802270760FE494017D8
:1026F0008860FE480760FE4800240460FD4E346197
:10270000FD49012008618861FC4D287801281CD012
:1027100002281ED003281CD00120FDF7DBFC346109
:10272000F3482C7004600020EF49C0438860EF48F4
:102730000760F460032068703460346174606C601A
:102740002C75EF486C750760F8BD0620FDF7C2FCDC
:10275000E5E70220E1E710B5EA4902240860E14814
:102760000460EA48E8494162E9490162FFF7BAFFBB
:102770000021E2480322017042704160016101754D
:1027800041758175DE480460DC4810BD10B5002835
:1027900008D0012806D0022804D0DE48FFF7C4FB89
:1027A000002010BDD5480078002801D0002010BDC1
:1027B000012010BDF8B50546D7490001CF4C471898
:1027C000207D002802D0D548FFF7AEFB0026002D63
:1027D0002AD0012D28D0022D26D0CE48FFF7A4FB09
:1027E000CF48FFF7A1FB0021BF486675C943816050
:1027F000BE4902200860C34865700068032D016867
:10280000A16040682661A661E0603A6862601BD200
:10281000B74B3A7A1A60FB7AC24A002B08D0506054
:10282000506800280DD109E020780028DBD0D7E7D8
:1028300051605068002804D1BB4800E0BB48FFF756
:1028400073FBA948797A4160AE480068007D002892
:1028500005D0022D03D1AD49A675042048600120A2
:102860006075F8BDF8B5A54C07466578AA492801FA
:102870004618607D012802D0AD48FFF755FB207D4A
:10288000002802D0AB48FFF74FFB01200021207544
:102890006175032D0AD2002F01D131680860022D25
:1028A00001D0012D05D1B07A207002E0A248FFF7D7
:1028B0003BFB94480068007D00280FD0022D0DD10D
:1028C00092484068400702D49C48FFF72DFB95488A
:1028D0004068002802D19A48FFF726FBF8BD7047F0
:1028E000F8B58648874A06690327814B0025814C45
:1028F0001168012E05D0022E48D09248FFF714FB34
:10290000F8BD042606708669761C86611F60774EC6
:1029100002233360E560256025616560724B0826FF
:102920005E60097D002910D0874EB168774F8175B0
:102930003868400702D48548FFF7F6FAE5616E492A
:10294000012088610420B860B5602068002802D0AA
:102950007F48FFF7E9FAE068002802D07D48FFF7DA
:10296000E3FA7D480068800702D57C48FFF7DCFA6F
:10297000644C2068C068002800D080472068417DF2
:102980000029BDD0674900684860F8BDE560256151
:10299000256065601D600023534A0570DB4393602A
:1029A00047704560057508690028EED08047F8BD7E
:1029B000F8B5524C20696778401C2061607D002882
:1029C00002D06748FFF7B0FA20462278464D00242F
:1029D00048494C4E032A3FD1CA68002A3CD0012FF7
:1029E00003D0022F2FD05F48E7E007460069032895
:1029F00002D05D48FFF798FA02203870B969491C87
:102A0000B9613B490C60C11EA9603849086039486A
:102A1000C460046004614460032179707C603C758B
:102A20003268117D00290AD047498B68BB75C461A3
:102A3000314B01209861354B042098608C60D06840
:102A400000283AD1F8BD0069012802D04748FFF7B5
:102A50006BFAFFF745FFF8BD032F41D0012F2ED0B1
:102A6000022FF6D042782C4B1201D218137B00278C
:102A7000002B03D0CB68002B00D00127927A1C4B8F
:102A800002701C60032A2CD00022D243AA60174B8C
:102A900002221A60CC60032242700C600C614C6010
:102AA0004460047530680069002800D08047002F1A
:102AB000D1D0306880680028CDD08047F8BD026949
:102AC000012A61D0022AF9D1CC600C610C6008495E
:102AD0000C60111FA960082169600321017047E0A3
:102AE0006AE063E080E100E00013004080E200E083
:102AF0000012004000110040001000404C03002074
:102B000000E100E0400000201410004000F501400A
:102B100004110040F9020A005C310000DB000A00E9
:102B2000DD000A000015004000010A0005010A004E
:102B300021010A0022010A003A010A0040010A00AC
:102B400041010A00E7020A0040150040AD020A00F8
:102B5000B6020A00B7020A0000E200E0B8020A006A
:102B600090010A00A9010A009F010A00A4010A00BD
:102B70004460047530680069002800D080473068E0
:102B80008068002899D1F8BD0C604C600021C943D1
:102B9000A960012169603168097D002902D0084AD5
:102BA000042151600749C0684860F8BD0822D2433B
:102BB000AA6008226A6070E70348FFF7B5F9F8BD1C
:102BC00000F5014000150040D6010A0010B50400D0
:102BD00002D14448FFF7A8F943490C600020C867B8
:102BE000424908604860012041490005086010BD65
:102BF00070B53D4D04462868002802D13D48FFF7D6
:102C000093F93A4E70680A2802D33B48FFF78CF9D3
:102C1000E86F0C21484341192078087160784871A9
:102C2000A0788871E078C8716068886020898881A0
:102C30006089C8817068401C7060E86F401CE8675C
:102C4000E86F0A2801D30020E86701202B4900051E
:102C5000086070BD254840680A21081AC0B2704754
:102C6000F8B5214D2C468034012080F3108860682F
:102C7000002832D020680C21484340190279310ADB
:102C8000090211434279FF231B02120299431A40A1
:102C9000114382791B02120499431A401143C279ED
:102CA0000E02360A11060E4381688289C08997B2E6
:102CB000000407436068401E60602068401C20607C
:102CC00020680A2801D300202060002080F31088AB
:102CD0002B683A4630469847C6E7002080F31088B4
:102CE000F8BD000029000B0070030020F003002055
:102CF00000E100E034000B0035000B0000E200E0D2
:102D00001049887048700870704710B50446022852
:102D100002D30D48FFF708F90A48447010BD09486E
:102D200000787047074880787047064840787047B9
:102D3000044801788170417801708800034908587F
:102D400000470000440000202A000D004800002039
:102D500030B50B46014600202022012409E00D4633
:102D6000D5409D4205D31D469540491B25469540BB
:102D700040191546521E002DF1DC30BD03460B43B1
:102D80009B0703D009E008C9121F08C0042AFAD221
:102D900003E00B780370401C491C521EF9D27047A7
:102DA000D2B201E00270401C491EFBD270470022E3
:102DB000F6E710B513460A4604461946FFF7F0FF3A
:102DC000204610BD064C0125064E05E0E36807CC01
:102DD0002B430C3C98471034B442F7D3FDF774F9F9
:102DE0008C310000AC31000010B500F053F8002821
:102DF00005D00E490C484860C8130D4988610D483C
:102E0000018CC9B201290ED1818C09070BD1018D2A
:102E10000906090F042906D1808D0006000F02D192
:102E200005490120886010BDDFFF07C00005004094
:102E3000006C0040C00F00F00006004002E008C82F
:102E4000121F08C1002AFAD170477047002001E024
:102E500001C1121F002AFBD1704700007FB50B4B48
:102E60006C460FCB0FC40020094D042301466C466D
:102E70008A00A25C2E69D640F207D20F8A40024334
:102E8000491CD0B29942F3D304B070BD3C3100006C
:102E9000000500501048018CC9B2012917D1818C5E
:102EA000090714D1018D09060A0F03D1828D12067C
:102EB000120F0ED0090F012903D1828D1206120FB5
:102EC00007D0032903D1808D0006000F01D0002018
:102ED0007047012070470000C00F00F000F0F2F8CA
:102EE0000020FDF70EFAFDF74BFAFFF7B7FF044994
:102EF0000023087001221846FDF759FAFEE700008A
:102F00000000002070470000F0B585B004AA134906
:102F10000020FDF795FA049800281CD00F48104BAC
:102F200006780FCB6C460FC4042500210D4C6B4670
:102F3000012002468A40324205D08A009A5C074648
:102F40009740E76004E08A009A5C07469740A760D4
:102F5000491CA942EDD305B0F0BD0000500000208F
:102F60004C3100000005005010B500230122024939
:102F70001846FDF71CFA10BD0000002010B5FFF741
:102F80006DFF04490023087001221846FDF70FFA6F
:102F900010BD0000000000200148006870470000DC
:102FA0003400002010B50446102802D30348FEF771
:102FB000BBFF600002492018085C10BDC800030078
:102FC0007801002030B552000A439900039C0A435F
:102FD0002102049D0A4329040A4302498000401843
:102FE000026030BD000700500148407C704700007F
:102FF000900000200148807C704700009000002075
:103000000148007C704700009000002030B4174950
:10301000174C8874174B1849184A194D00280DD0C1
:10302000012816D0022807D120614B6215488A6218
:10303000C86215484D63086330BC704700202061AA
:103040004B6212488A62C86211484D63086330BC03
:103050007047012020614B620E488A62C8620E48A8
:1030600008630E48486330BC7047000090000020A1
:103070000015004000500078001700404E0000543A
:103080003E420F8208800C608864720003800C60EE
:103090002264720002800C6011646600DEC08F82C0
:1030A000024908740249C86070470000900000207F
:1030B0000015004002484068012800D000207047F9
:1030C0000011004070B514488AB01EC802AD1EC57C
:1030D0000FC8069007A80EC0002502AE2C46A80017
:1030E000305800220323009411460194FFF76AFF31
:1030F0006D1C042DF3D3002506AEA8003058012224
:103100000094002311460194FFF75CFF6D1C042D11
:10311000F3D30AB070BD00001C31000011000000A4
:103120001200000013000000140000001500000051
:103130001600000017000000180000001100000039
:103140001200000013000000140000001500000031
:1031500016000000170000001800000000100040DA
:10316000101100400310000001000000001000409A
:10317000000000000B0204000000000004100040EA
:10318000000000000708030100000000AC3100004F
:1031900000000020500000003C2E0000FC31000028
:1031A00050000020A80B00004C2E00000000000082
:1031B0000024F400000000000000000000000000F7
:1031C00000000000000000000000000000000000FF
:1031D00000000000000000000000000000000000EF
:1031E00000000000000000000000000000000000DF
:0C31F0000000000087140000111900000E
:04000005000000C136
:00000001FF
